:020000040800F2
:100000001097012071020008BD520008653C0008ED
:10001000BD500008D10E00086D6B00080000000004
:10002000000000000000000000000000B101000816
:10003000A5130008000000000D020008556100082B
:100040008B0200088B0200088B020008F957000899
:100050008B0200088B0200088B0200088B0200084C
:10006000351500088B020008451500088B020008B2
:100070008B0200088B0200088B0200088B0200082C
:100080008B0200088B0200088B02000800000000B1
:100090000000000000000000000000004B150008F8
:1000A0008B020008156200088B0200088B02000812
:1000B0008B0200088B0200088B0200088B020008EC
:1000C0008B0200088B0200088B0200088B020008DC
:1000D0008B0200082D6B00088B0200080000000056
:1000E000251500088B0200088B02000800000000A4
:1000F0000000000000000000000000008B0200086B
:10010000000000008B0200088B0200088B02000830
:1001100000000000000000000000000000000000DF
:100120008B0200088B020008211200088B020008D5
:100130008B0200080000000000000000000000002A
:100140000000000000000000000000008B0200081A
:100150002D1200088B020008391200088B020008DB
:100160008B0200088B020008000000000000000065
:10017000000000000000000000000000000000007F
:10018000000000008B0200080000000000000000DA
:100190008B0200088B020008DFF810D000F0DEFBB5
:1001A00000480047DD3D0208AFF3008010970120B2
:1001B0002C4B19680868B0E8F04F80F30988BFF34A
:1001C0006F8F4FF0000080F311887047000000002F
:1001D00008480068006880F308884FF0000080F34A
:1001E000148862B661B6BFF34F8FBFF36F8F00DF25
:1001F00000BF00BF08ED00E0DFF80C00016841F42B
:1002000070010160704700BF88ED00E0EFF30980E6
:10021000BFF36F8F134B1A681EF0100F08BF20ED4D
:10022000108A20E9F04F106009B44FF0500080F3BD
:100230001188BFF34F8FBFF36F8F30F00BF94FF082
:10024000000080F3118809BC19680868B0E8F04F15
:100250001EF0100F08BFB0EC108A80F30988BFF3BE
:100260006F8F704774060020EFF305807047000021
:100270000648804706480047FEE7FEE7FEE7FEE740
:10028000FEE7FEE7FEE7FEE7FEE7FEE705620008A1
:10029000990100082DE9F05F0546002092469B4633
:1002A00088460646814640241BE02846414647468C
:1002B000224600F06BFA53465A46C01A914110D3B9
:1002C00011461846224600F052FA2D1A67EB010833
:1002D0004F4622460120002100F049FA17EB0009A1
:1002E0004E41201EA4F10104DFDC484631462A4677
:1002F0004346BDE8F09F00000649074A086850439E
:1003000043F2390210440860400870470149086010
:10031000704700009C0800206D4EC64140EA010372
:100320009B0703D009E008C9121F08C0042AFAD2AB
:1003300003E011F8013B00F8013B521EF9D270476F
:10034000D2B201E000F8012B491EFBD27047002217
:10035000F6E710B513460A4604461946FFF7F0FFC4
:10036000204610BD421C10F8011B0029FBD1801A49
:10037000704710B5002200E0521C835C8C5CA342E5
:1003800001D1002BF8D1D8B2E1B2401A10BD30B57E
:1003900004460020034600E05B1C934203D2E05C6D
:1003A000CD5C401BF8D030BD034611F8012B00F89E
:1003B000012B002AF9D1184670472DE9FE4F8046DF
:1003C00081EA0300C00F0C46009021F0004123F0A9
:1003D0000045B8EB0200A94105D2404621469046AF
:1003E0001C460B46024623F00040104347D0270D21
:1003F000C7F30A00C3F30A510290401A0190402843
:100400006BDAC3F3130040F4801B0098924620B1CE
:100410000023D2EB030A63EB0B0B01985946C0F1A2
:100420004002504600F0A3F906460D465046594694
:10043000019A00F0BBF910EB08006141002487EA43
:10044000115284EAE7731A4340D0009A62B3019ACA
:10045000012A4FEA075215DC001B61EB02014FF045
:10046000004202EA0752CDE90042001C41F580112A
:1004700032462B4600F0F2F903B0BDE8F08F40465B
:100480002146F9E7001B61EB0201001C41F58013D6
:1004900000185B412018A2F5001747EB030140EA62
:1004A000D570B6196D4111E06D084FEA360645EA80
:1004B000C0754FEA0752001B61EB0201001C41F5B9
:1004C000801149084FEA30000019514132462B464D
:1004D00003B0BDE8F04F00F0B2B90098012240002F
:1004E0000023D0EB020263EBE073009821464FEA51
:1004F000E074B8EB000061EB0401E9E783F000432E
:100500005BE781F0004158E72DE9FE4F81EA0304E3
:1005100004F0004421F0004100944FF0000B23F060
:10052000004350EA01045ED052EA03045BD0C3F3F7
:100530000A54C1F30A552C44A4F2F3340194A0FBED
:100540000254C1F3130141F48011C3F3130343F4C4
:10055000801301FB024400FB034E840A970A44EA1D
:10056000815447EA8357A4FB076802958D0A05FB6F
:1005700007854FEA932C04FB0C542705029D4FEA94
:10058000065847EA1637B5EB08056EEB070C870EE1
:10059000920E47EA811742EA8312A7FB0201B6EBEB
:1005A0000B0164EB00042B0D43EA0C335E1844EBA3
:1005B0001C50DA465146E7FB0201C5F313044FEA2B
:1005C0000B3343EA14534FEA0432019C43EA060317
:1005D000A4F10C040294009CCDE900B400F03EF9B3
:1005E00003B0BDE8F08F00200146F9E72DE9F04D9A
:1005F00081EA030404F0004B21F0004514464FF05B
:10060000000A23F0004150EA050220D054EA01021A
:100610001DD0C5F30A570246C5F31303C1F31300F7
:10062000C1F30A5640F4801543F48013A7EB060883
:10063000101BD64608F2FD3873EB050002D308F113
:10064000010801E092185B41B8F1000F03DA0020C5
:100650000146BDE8F08D00204FF480110646844627
:100660000EE0171B73EB050705D3121B63EB0503A5
:1006700006434CEA010C49084FEA300092185B41EE
:1006800050EA0107EDD152EA030012D082EA0400D9
:1006900083EA0501084305D0101BAB4106D20122B5
:1006A000002306E000224FF0004302E06FF0010259
:1006B00053101AEB06004CEB085110EB0A0041EB0B
:1006C0000B01BDE8F04D00F0BAB80EB540F2334171
:1006D00002910021CDE900110A460B4600F0BEF858
:1006E00003B000BD00F0004230F000400AD0C10D60
:1006F00001F56071C0F3160042EA0151C2084007DB
:100700001143704700200146704701F0004330B4A8
:1007100021F0004150EA010206D00A0DA2F56072F4
:10072000C1F31301002A02DC30BC00207047440FE3
:1007300044EAC104C100E01830BC00EBC25000F034
:1007400047B830B50B46014600202022012409E0BD
:1007500021FA02F59D4205D303FA02F5491B04FA7A
:1007600002F52844151EA2F10102F1DC30BD202A59
:1007700004DB203A00FA02F1002070479140C2F1F8
:10078000200320FA03F3194390407047202A04DB2A
:10079000203A21FA02F00021704721FA02F3D040FA
:1007A000C2F120029140084319467047202A06DB17
:1007B000CB17203A41FA02F043EAE07306E041FA2F
:1007C00002F3D040C2F1200291400843194670471D
:1007D0000029A8BF7047401C490008BF20F0010055
:1007E000704710B4B0FA80FC00FA0CF050EA010433
:1007F00004BF10BC704749B1CCF1200421FA04F4C5
:1008000011FA0CF118BF012121430843A3EB0C019D
:10081000CB1D4FEA00614FEA102042BF002010BC00
:10082000704700EBC35010440029A4BF10BC7047B0
:10083000401C490008BF20F0010010BC704710B5F3
:10084000141E73F1000408DA401C41F100019218F3
:100850005B411A4301D120F0010010BD2DE9F04D9C
:1008600092469B4611B1B1FA81F202E0B0FA80F2F1
:1008700020329046FFF77BFF04460F4640EA0A000D
:1008800041EA0B0153465A46084313D0114653EA36
:10089000010019D0C8F140025046FFF777FF054626
:1008A0000E46504659464246FFF761FF084305D0C1
:1008B000012004E020463946BDE8F08D00200543C4
:1008C00046EAE0762C4337430A986305E40AA0EB36
:1008D00008000022FD0A44EA47540A3002D50020ED
:1008E0000146E9E7010510196941DDE908450019EC
:1008F0006941BDE8F04DA2E7C1F30A52C1F313010B
:1009000040F2FF3341F480119A4202DA002001469E
:10091000704740F233439A42A2F2334202DC524221
:10092000FFF734BFFFF723BF30B5041E71F1000499
:1009300004DB4FF00044404264EB0101141E73F1EC
:10094000000405DB1C464FF00043524263EB0403F6
:10095000994208BF904230BD00207047064C074DB9
:1009600006E0E06840F0010394E80700984710347F
:10097000AC42F6D3FFF714FCC0110608E0110608DC
:1009800070B58C1810F8015B15F0070301D110F851
:10099000013B2A1106D110F8012B03E010F8016B7E
:1009A00001F8016B5B1EF9D12B0705D40023521E01
:1009B0000DD401F8013BFAE710F8013BCB1A921C69
:1009C00003E013F8015B01F8015B521EF9D5A14267
:1009D000D8D3002070BD0000464910B54A6822F403
:1009E00040324A604A6843681A434A6001684A686C
:1009F00022F480724A6001684A68036942EA03226D
:100A00004A6001684A6822F040724A6001684A6898
:100A100083681A434A6001688A6822F400628A6027
:100A200001688A68C3681A438A60816A6FF07062DD
:100A3000D14201688A6822F070628A6001688A681F
:100A40000CD0836A1A438A6001688A6822F0405297
:100A50008A6001688A68C36A1A4301E022F0405242
:100A60008A6001688A6822F002028A6001688A68E6
:100A7000037E42EA43028A6090F820100029016850
:100A80004A680FD042F400624A6001684A6822F462
:100A900060424A6001684A68174C436A04EB43337A
:100AA0001A4301E022F400624A600168CA6A22F433
:100AB0007002CA620168CA6A838B104C04EB03534C
:100AC0001A43CA6201688A6822F400728A60016867
:100AD0008A6890F8303042EA43228A6001688A6866
:100AE00022F480628A6001688A68406942EA802054
:100AF000886010BD0023014000E0FFFF0000F0FF10
:100B0000094808B5016841F002010160006800F081
:100B100002000090054803F08BF928200BF020F923
:100B200000F0AAF8002008BD30380240DC050020A3
:100B30002DE9F05F82468B46052400254C4803F0E2
:100B400015FA70214A4803F0CDF9494803F04CFAF0
:100B5000AC21474803F0C6F9454803F045FA332174
:100B6000434803F0BFF9424803F03EFA00214048F1
:100B700003F0B8F93E4803F037FA3D4803F015FAA0
:100B800050200BF0EDF806E005200BF0E9F8641EAC
:100B9000E4B200F071F800F06FF8C00702D0002C4A
:100BA000F2D163E0002C61D0314803F0DFF971210C
:100BB0002F4803F097F92E4803F016FA2C4803F05B
:100BC00051F92B4803F075F9294803F04BF9814698
:100BD000274803F06EF9264803F044F9804624487C
:100BE00003F067F9224803F03DF90446204803F07A
:100BF00060F91F4803F036F907461D4803F059F91C
:100C00001B4803F02FF90646194803F097F91848D6
:100C100003F0CBF945EA090548EA052144EA012039
:100C200000094FF47A714843000D00EE100AF2EE0D
:100C3000040A47EA0421B8EE400A46EA0121C1F35A
:100C400013004FF4FA6180EE201A4843094901EB82
:100C5000105000EE100A0020B8EE400A8AED001A8B
:100C600080EE201A8BED001ABDE8F09F0120FBE713
:100C7000DC0500200CFEFFFF10B50B4803F076F9F1
:100C80007121094803F02EF9074803F0ADF9064831
:100C900003F0E8F80446044803F050F9024803F072
:100CA00084F9204610BD0000DC05002010B504F0DA
:100CB000C7FC9FED091AF0EE400A80EE810ADFEDD5
:100CC000070A06F057FBF7EE000A30EEC00ADFED28
:100CD000040A20EE200A10BD80E6C54701DE423E30
:100CE000002A2D472DE9F0411D462DED068B1446B7
:100CF0000E4607469DED0D8ADDED0C8A11FB06F0D0
:100D000012FB040000EE100AB8EEC00A06F02CFF39
:100D1000F0EE400A00EE107AB8EEC00A06F07CF859
:100D2000F0EE409A17FB07F014FB040000EE100AE7
:100D3000B8EEC00A06F018FFF0EE400A00EE106AA6
:100D4000B8EEC00A06F068F8B0EE409A06F06AFA0B
:100D5000F8EEE80A60EE208AB0EE490A06F03CFEA2
:100D6000F0EE400A00EE105AB8EEC00A20EE80AA5B
:100D7000B0EE690A06F030FE4AEE008AB0EE690A6B
:100D800006F050FAF8EEC80A20EE20AAB0EE490AA2
:100D900006F022FE4AEE408AB0EE690A06F042FAF8
:100DA000F0EE400A00EE105AB8EEC00A20EE809A2B
:100DB000B0EE690A06F010FEF8EEC80A00EE809A5E
:100DC000B0EE680AF0EE490A06F026F810EE100AB6
:100DD000FFF788FC9FED091B53EC112BFFF794FBE9
:100DE0009FED081B53EC112BFFF700FCFFF78DFC68
:100DF000BDEC068B00EE100ABDE8F081000000009B
:100E0000008066404AD8124DFB210940064882B056
:100E1000016841F001010160006800F001000090EC
:100E2000024802B003F004B830380240E805002060
:100E300008B50B46009202465021024803F0FEF826
:100E400008BD0000E805002008B50B4600920246E8
:100E50005021024803F064F908BD0000E8050020B5
:100E600070B500252C46154800F060FD052113489B
:100E700000F006FD114800F0A5FC05440F4800F005
:100E8000BBFD01200AF06CFF641CE4B2082CEAD31D
:100E9000E8084000FFF719FC9FED091B53EC112BEC
:100EA000FFF732FB9FED081B53EC112BFFF72CFBD8
:100EB000FFF72BFC00EE100A70BD0000A808002010
:100EC0006666666666660A40000000000000303F05
:100ED000FEE7000030B587B014216846FFF737FA07
:100EE0001348016841F002010160016801F002014C
:100EF0000591016841F00101016000684FF4004470
:100F000000F0010005900120CDE90040029003208F
:100F1000084D03906946284600F07AFF01222146D9
:100F2000284601F072F8044802F082FF07B030BD95
:100F30003038024000000240D0050020022000F0BE
:100F400023B800001CB501A800900423032215213A
:100F50000C4803F073F89DF804109DF8050001F0AB
:100F60000F0140EA01210748083801609DF8071089
:100F70009DF806200F3102F00F0241EA0221416084
:100F80001CBD0000D005002002461521014803F0D9
:100F900099B80000D00500200B46024615210148F3
:100FA00003F0F2B8D005002070B50A4D4FF40044AC
:100FB00000222146284601F028F80A2000F008FF08
:100FC00001222146284601F020F8BDE87040642047
:100FD00000F0FEBE000002400321E520FFF7DCBF69
:100FE000FFF7E2BF10B50C4603464979601E085C66
:100FF0002B2806D02D280ED02A2816D02F281ED018
:1010000026E0187D03EB800010ED020A50ED010A86
:1010100070EE200A1CE0187D03EB800010ED020A40
:1010200050ED010A70EE600A12E0187D03EB8000BB
:1010300010ED020A50ED010A60EE200A08E0187D6A
:1010400003EB800010ED020A10ED011AC0EE010A58
:10105000184604F041F9184604F03EF9B0EE600A73
:10106000184604F049F92046BDE8104005F047B89D
:1010700008B5264F264E274D00244FF001084FF4A7
:10108000FA793878E8B3244804803C7000F0C2F85C
:10109000A8B196F8300006EBC00151E902026840A1
:1010A000624010430BD027F0BBFF0023CDF8008037
:1010B0001A460621286820F017FD2A461DE000F098
:1010C000A9F8F0B996F8300006EBC00151E9020228
:1010D00068406240104314D129F012FEDFF83CA0B2
:1010E0000023CDF800801A460621DAF8000020F02F
:1010F000FBFC07482EF09BFF5246002304482EF0CD
:10110000A6FF484624F0AEFABBE700000E00002020
:10111000B00B00208000002018000020E401002017
:1011200088B02E4E2E4FDFF8BC80DFF8BC902F4CDD
:1011300000254FF4FA6A00BF96F8300006EBC001B4
:1011400051E9020178406940084342D1002202A9D6
:10115000274801F073FC002207A9254801F04CFC48
:101160009DF8092098F800108A420AD088F80020DB
:1011700020A1684605F018FE2048694600681BF06B
:101180000BFD9DF8082099F800108A420AD089F8D2
:10119000002018A1684605F007FE19486946006856
:1011A0001BF0FAFC04F076F920700146401E63281B
:1011B0000ED81448006814F052FD227812A1684637
:1011C00005F0F2FD1248694600681BF0E5FC00E0FE
:1011D0002570504624F046FAAEE70000B00B002020
:1011E00080000020D9010020D8010020DD0100206E
:1011F000F008002025303264000000009400002038
:101200009000002084000020253264252500000085
:101210008C0000200421014800F0EABE00000240DA
:10122000014800F063BC000068090020014800F09C
:101230005DBC0000540A0020014800F057BC0000CB
:10124000B40A002001681823CAB2103AB2FBF3F2C4
:10125000054B6FF30901032A9B5CC36500D9091D87
:1012600081650846704700002C7B040810B50146D4
:1012700000208B698A6A4FF0C07453B1B3F5005FE8
:1012800015D072B1012A0CD0022A0AD0032A09D142
:1012900004E01AB1012A06D0022A03D1C96AC901A1
:1012A00000D5012010BDC96AA142FAD010BD002AA4
:1012B000F7D0012AF2D0022AF3D0032AF3D010BDCE
:1012C00030B50468256825F48025256004686360CE
:1012D0008368402B036803D099600068C26030BD0A
:1012E0009A600068C16030BD1FB5294E294D0024A9
:1012F0008DF80C400123002203A9306824F0EEF998
:10130000F0BB25480222102100788DF80000234808
:1013100000788DF80100684604F0E1FD002201A983
:101320001F4801F069FB03222021684604F0C4FD38
:101330009DF800009DF8061088420DD0287810B95D
:1013400000200AF009FF9DF806008DF800008DF8D6
:1013500002408DF801400FE00294287810B902A8ED
:101360000AF0A1FE9DF8061002988DF800108DF885
:101370000200000A8DF8010003222021684600E0E7
:1013800001E004F0ACFD642024F06CF9B0E700004B
:101390007000002004000020100000202C0100201C
:1013A000F0080020704708B50A200AF0D9FC6A4608
:1013B00002210020FFF73CFD9DF80000552803D1D5
:1013C0009DF80100AA2821D055208DF80000AA2000
:1013D0008DF801000A200AF0C3FC6A4602210020B1
:1013E000FFF732FD002000900A200AF0B9FC6A469F
:1013F00002210020FFF71CFD9DF80000552803D1B5
:101400009DF80100AA2801D0012008BD002008BDD8
:10141000FFF7FCBC10B5292000F00CF84FF6FF7167
:1014200001EA0024282000F005F8204310BD002028
:10143000AFF3008002462421014802F043BE0000C1
:10144000340600200B4602462421014802F09CBECF
:101450003406002010B5052404E0642000F0B8FC38
:10146000641EE4B2FFF7E3FF362802D0002CF4D16B
:1014700006E02CB100210120FFF7E4FF002010BDA1
:10148000012010BD10B5052404E0642000F0A0FC8C
:10149000641EE4B2FFF7CBFF362802D0002CF4D153
:1014A00006E02CB108210120FFF7CCFF002010BD81
:1014B000012010BD38B519480524016841F002012A
:1014C0000160006800F002000090154802F0B0FCD6
:1014D00004E0642000F07CFC641EE4B2FFF7A7FF88
:1014E000362802D0002CF4D116E0ACB10021012046
:1014F000FFF7A8FF00210820FFF7A4FF7F210A20A3
:10150000FFF7A0FF47210D20FFF79CFF00210E20D1
:10151000FFF798FF002038BD012038BD3038024069
:1015200034060020024901204870000300F064BC2A
:101530000C000020024901208870042000F05CBCEF
:101540000C000020102000F057BC202000F054BCFC
:1015500072B6FEE770B5104C00201421208084F88C
:10156000740004F124000546FEF7F1FE0BA0606351
:101570000AA0A06409A0E06509A02067A01C13F0E0
:1015800057F8A11C28462EF05BFC064829468068C7
:10159000BDE8704015F09AB90C0C00200A0000005C
:1015A00000000000D4040020054900200A5C0AB1B4
:1015B00000207047401C80B21028F7D301207047EC
:1015C000840C002010B500200F4A01461154401C25
:1015D000C0B21128FAD300201318401CC0B283F8FF
:1015E00064101028F8D3FF2002F8740F10215070F7
:1015F0000822054813F098FD0349BDE8104001F1A9
:1016000014002EF0F9BB0000840C002070B50220FD
:1016100004F00EFA0546012004F00AFA0446002000
:1016200004F006FA44EA002145EA0120010201D54E
:1016300040F07F4070BD70B5052004F0F9F9054613
:10164000042004F0F5F90446032004F0F1F944EA1B
:10165000002145EA0120010201D540F07F4070BD24
:1016600078B50024009490F83C20012A19D001227A
:1016700080F83C200A6807230568092A13D9EE6818
:101680000A3A02EB420293409E43EE600B788A686E
:101690000A3B03EB43039A400368DD682A43DA60A0
:1016A00010E0022078BD2E6902EB420293409E4377
:1016B0002E610B788A6803EB43039A4003681D6927
:1016C0002A431A614A681F23072A13D205686E6BE2
:1016D000521E02EB820293409E436E630A8893B2CD
:1016E0000A79521E02EB820293400268556B2B432B
:1016F000536327E005680D2A12D22E6BD21F02EB2E
:10170000820293409E432E630B790A88DB1F92B2BC
:1017100003EB83039A4003681D6B2A431A6311E0AD
:10172000EE6A0D3A02EB820293409E43EE620B7921
:101730000A880D3B92B203EB83039A400368DD6A8B
:101740002A43DA621B4B0568194A9D420AD10D688B
:10175000122D07D1556825F400055560556845F4EC
:101760008005556005689D421DD1134D0B68AB4245
:1017700001D0112B17D1536823F4800353605368B1
:1017800043F4000353600968A9420CD10B490C4A89
:101790000968B1FBF2F101EB8101490000E0491E4B
:1017A00000910029FBD180F83C40002078BD00006A
:1017B000002301400020014012000010C405002059
:1017C00040420F000068C06C704770B504004FF0D5
:1017D000000503D0206C002610B107E0012070BD89
:1017E000204600F01DF8666484F83C60206CC0065A
:1017F00010D4206C20F4885040F002002064204671
:10180000FFF7EAF86664206C20F0020040F0010067
:10181000206400E0012584F83C60284670BD00008B
:1018200010B586B0044614216846FEF790FD1149B4
:10183000206888421CD110480021026842F480725E
:101840000260006800F4807005900B48143802684C
:1018500042F001020260006800F0010005900220E1
:1018600000900320CDE901016946044800F0D0FA58
:1018700006B010BD00200140443802400000024084
:101880002DE9F041044600680D4681684FF00007DD
:1018900049050BD58068C00508D5206C40F02000B4
:1018A000206484F83C700120BDE8F08100F0B2FBB8
:1018B000064613E0681C11D025B100F0ABFB801B7D
:1018C000A8420BD920680068800707D4206C40F03C
:1018D0000400206484F83C700320E5E72068006879
:1018E0008007E7D521686FF012000860206C40F493
:1018F000007020642068816811F0405F13D1217E60
:1019000089B9C16A11F4700F02D0806840050AD409
:10191000206C20F480702064206CC00403D4206C00
:1019200040F0010020640020BEE7000018B500214F
:10193000009190F83C20012A07D0012280F83C2039
:1019400002689368DB0702D011E0022018BD93689B
:1019500043F001039360244A244B1268B2FBF3F274
:1019600002EB420200E0521E0092002AFBD1026804
:101970009368DB072ED0036C40F20164A34343F469
:101980008073036453685B0505D5036C23F400532F
:1019900043F480530364036CDB0404D5436C23F0ED
:1019A0000603436400E0416480F83C1010496FF086
:1019B0002203136049680068C90602D00D498842B5
:1019C00010D1816811F0405F0CD1816841F08041F5
:1019D000816007E0016C41F010010164416C41F04D
:1019E00001014164002018BDC405002040420F00E1
:1019F000002301400020014090F83C1001290CD048
:101A0000012180F83C1001688A6822F001028A6096
:101A100001688968C90702D007E002207047016C9D
:101A200021F4885141F001010164002180F83C104B
:101A3000084670472DE9F0410446876D00F0EAFA48
:101A4000064694F835000025022806D080206065FF
:101A500084F834500120BDE8F0812068016821F04D
:101A6000160101602068416921F080014161206C0C
:101A700008B9A06C20B12068016821F0080101605C
:101A80002068016821F0010101600CE000F0C2FA59
:101A9000801B052807D920206065032084F83500C5
:101AA00084F83450D7E720680068C007EED194F876
:101AB0005C103F208840B860012084F8350084F82D
:101AC00034500020C7E790F83510022903D0802158
:101AD000416501207047052180F8351000680168D4
:101AE00021F0010101600020704700002DE9F8435A
:101AF00004464FF00009CDF8009063484FF41651AA
:101B0000A56D0068B0FBF1F72E6894F85C10082012
:101B100000FA01F131420FD021680A6852070BD553
:101B20000A6822F004020A6094F85C108840A860F9
:101B3000606D40F00100606594F85C104FF00108A2
:101B400008FA01F0304208D021684969090604D535
:101B5000A860606D40F00200606594F85C1004209D
:101B60008840304208D021680968890704D5A860F8
:101B7000606D40F00400606594F85C1010208840AF
:101B8000304218D021680968090714D5A860206878
:101B90000168490304D50068000308D5A16C07E07B
:101BA0000168C90503D4016821F008010160216CB6
:101BB00009B12046884794F85C10202088403042C4
:101BC00031D021680968C9062DD5A86094F8350080
:101BD00005282068016806D0490347D5006800033E
:101BE0001DD4616C1CE021F0160101602068416980
:101BF00021F080014161206C08B9A06C20B12068FF
:101C0000016821F00801016094F85C103F208840D1
:101C1000A86084F8358084F83490216D1FE0E16B72
:101C200009B120468847606D00282BD0606DC00741
:101C300014D0052084F835002068016821F00101E6
:101C400001600098401C0090B84203D820680068EA
:101C5000C007F6D184F8358084F83490E16C00290F
:101C600010D001B02046BDE8F04308470168C9051F
:101C7000D5D4016821F01001016084F8358084F822
:101C80003490CCE7BDE8F883C40500202DE9F0418D
:101C9000044600F0BFF906465CB1022084F8350026
:101CA000002584F834502068016821F001010160AA
:101CB0000DE00120BDE8F08100F0ACF9801B0528A3
:101CC00005D920206065032084F83500F2E72068FC
:101CD0000068C007F0D12268116820480140D4E9AB
:101CE00001031843D4E903363343184363691843A7
:101CF000A3691843E3691843236A18430843616AD8
:101D0000042903D1D4E90B13194308431060206858
:101D10004069666A20F0070130460E430127042817
:101D20000CD1A06A0643E06A40B12046FFF79EFA54
:101D300020B14020606584F83570BAE720684661BC
:101D40002046FFF77FFA94F85C203F2191408160A4
:101D5000656584F835700020ACE700003F8010F026
:101D60002DE9F0410446866D90F8340000250128E5
:101D70000DD0012084F8340094F835700020012F34
:101D800007D084F8340002252846BDE8F0810220FF
:101D9000FBE7022784F8357060652046FFF790FA6C
:101DA00094F85C103F208840B0602068016841F0E2
:101DB00016010160206C20B12068016841F0080123
:101DC00001602068016841F001010160DCE700006A
:101DD00070B5044600F01EF90546601C02D00448A8
:101DE0000078044400F016F9401BA042FAD370BDFD
:101DF000B805002070470000044910B50A68024287
:101E000002D00860FFF7F6FF10BD0000143C01404F
:101E10002DE9F84FDFF8B8A10022012403254FF087
:101E20000F090AF1040BAAF1040E00BF0B6804FAB3
:101E300002F63340B34273D10F7907F00307012F45
:101E400001D0022F16D187684FEA420805FA08FC34
:101E500027EA0C07D1F80CC00CFA08FC4CEA070C76
:101E6000C0F808C04768B7430E79C6F3001696401D
:101E70003E4346600E79F643B6070DD0C76856005C
:101E800005FA06FC27EA0C07D1F808C00CFA06FC94
:101E90004CEA070CC0F80CC00E7906F00306022EBF
:101EA00010D1D60800EB8608D8F8206057074FEA13
:101EB000D76C09FA0CF7BE430F6907FA0CF73743E2
:101EC000C8F8207006684FEA420C05FA0CF7BE43CA
:101ED0000F7907F0030707FA0CF7374307604E68DE
:101EE00016F4403F6DD03B4E376847F4804737606B
:101EF000366822F0030706F480460096364E07EB5C
:101F0000060CDCF8086897073F0F09FA07F826EA7D
:101F10000806DFF8C880404503D14FF000081EE0F6
:101F20004FE0DFF8BC80404502D14FF0010816E0D9
:101F3000DFF8B080404502D14FF002080FE0DFF833
:101F4000A880404502D14FF0030808E0DFF89C80EC
:101F5000404502D14FF0040801E04FF0070808FAAD
:101F600007F848EA0608CCF80888DAF8006057460F
:101F7000D1F804C09E435FEACC2C00D51E433E60DE
:101F8000DBF800605F46D1F804C09E435FEA8C2C0A
:101F900000D51E433E60DEF800607746D1F804C0ED
:101FA0009E435FEA8C3C00D51E433E60084F083FCD
:101FB0003E68D1F804C09E435FEACC3C00D51E4386
:101FC0003E60521C102AFFF431AFBDE8F88F0000CC
:101FD000083C01404438024000300140000002400B
:101FE0000004024000080240000C024000100240C1
:101FF0000069084000D001207047426921EA0203CD
:102000000A4043EA0241816170470AB18161704729
:102010000904FBE70148806870470000B80500200C
:10202000024881680278114481607047B805002039
:102030000B4810B5016841F400710160016841F47A
:1020400080610160016841F480710160032000F04B
:1020500099F80F2000F006F800F04AF8002010BDB3
:10206000003C024030B505461C4887B0002401689A
:1020700041F001010160006806A900F00100009034
:1020800001A800F0F1F900F01FFA1549154AB0FB5C
:10209000F1F11548491E026040F2E732C0E903241D
:1020A000C0E90114846101F059F8040012D10E480E
:1020B00001F082F804000DD1192000F035F8102D40
:1020C00007D200222946192000F03CF80748056095
:1020D00000E0012407B0204630BD00004438024033
:1020E00040420F0000000140300B0020BC050020E2
:1020F0000C4882B0016841F480410160006800F43E
:10210000804000900748001F016841F08051016045
:102110000068002200F0805000900F21901E02B055
:1021200000F010B844380240002809DB00F01F021C
:10213000012191404009800000F1E020C0F8001129
:1021400070470000F0B40E4B1B680C46C3F302232B
:10215000C3F10705042D00D90425191D072901D253
:10216000002300E0DB1E012606FA05F1491E21408E
:1021700099409E40761E16403143F0BC04F03BBEB1
:102180000CED00E0064900F0070208684FF6FF0377
:10219000184040EA0220034A1043086070470000DC
:1021A0000CED00E00000FA050B4A136823F003036E
:1021B000034313600948026842F0040202600129E7
:1021C00007D040BF20BF20BF016821F0040101609B
:1021D000704730BFF8E700000070004010ED00E0ED
:1021E0002DE9F843044600684FF00109C1074FF09C
:1021F000000601D1400729D5DFF82081C8F86860C2
:10220000FFF708FF0746464D05E000BFFFF702FF56
:10221000C01B022859D828680001F7D4A068217B88
:10222000800140EA0170616808433D4984310860DB
:10223000C8F86890FFF7EEFE074604E0FFF7EAFEF5
:10224000C01B022841D828680001F7D520788007F4
:1022500052D533484030016841F080510160006838
:10226000304D00F080500090286840F48070286065
:10227000FFF7D0FE074604E0FFF7CCFEC01B0228A4
:1022800023D82868C005F7D5254D7035286810F487
:10229000407020D0218A01F4407181421BD028680F
:1022A000214920F44070C1F800900E602860286831
:1022B000C00710D0FFF7AEFE064641F2883707E0B0
:1022C000FFF7A8FE801BB84202D90320BDE8F883BF
:1022D00028688007F4D521691148C1F3012208302C
:1022E000032A12D0016821F4F81101602868218ABC
:1022F000C1F30B01084328602078000703D50B4980
:10230000207DC1F8E0010020E0E70268084B22F4DC
:10231000F81219400A430260E8E700000000474253
:102320000038024000700040400E47420010474213
:10233000FFFCFF0F2DE9F0470E46050065D0DFF8E2
:102340001481D8F80000F7B200F00700B04207D2BD
:1023500088F80070D8F8000000F00700B04254D1AF
:1023600028683D4C810712D5400703D5206840F40A
:10237000E05020602878000703D5206840F46040D2
:1023800020602068A96820F0F000084320602878C9
:10239000C0072DD0304968680839012812D00228BA
:1023A00013D0032811D00968890700292DDA216884
:1023B00021F0030101432160FFF72CFE814641F229
:1023C000883A0EE009688903EFE709688901ECE7BC
:1023D000FFF720FEA0EB0901514502D90320BDE81B
:1023E000F0872068696800F00C00B0EB810FEFD136
:1023F000D8F80010404601F00701B14207D9077034
:10240000006800F00700B04201D00120E7E728781B
:10241000400705D52068E96820F4E05008432060B3
:102420002878000706D52068296920F4604040EA32
:10243000C100206000F058F82168084AC1F3031178
:10244000515CC8400649086006480068FFF70AFE6C
:102450000020C4E7003C024008380240347B0408F6
:10246000C4050020BC0500200F2202600C4A13683E
:1024700003F003034360136803F0F0038360136801
:1024800003F4E053C36012684FF4E05303EAD2024E
:1024900002610448006800F007000860704700000F
:1024A00008380240003C02400448054900680968B9
:1024B000044AC1F38221515CC8407047C405002022
:1024C00008380240447B040804480549006809684C
:1024D000044AC1F34231515CC8407047C405002032
:1024E00008380240447B0408154810B5006810F015
:1024F0000C02144813D01449042A0FD0082A0ED114
:102500000F4C241F2268236802F03F025B0207D5AC
:102510002068C0F38810A0FB010106E0084610BD4A
:102520002168C1F38811A1FB00010023FDF7B2FE71
:102530002168C1F30141491C4900B0FBF1F010BD15
:10254000083802400024F40040787D012DE9F84F5E
:1025500004006ED02078DFF84C93C007A9F1040581
:102560004AD009F104000168C1F38101012908D0B2
:102570000068C0F3810002280AD1D9F800004002A7
:1025800006D52868800337D560680028E1D033E09D
:102590006068B0F5803F10D0B0F5A02F286810D04B
:1025A00020F480302860286820F48020286060684B
:1025B000A8B1FFF72FFD06460DE0286840F48030F3
:1025C000F4E740F480202860F7E700BFFFF722FD22
:1025D000801B642873D828688003F7D50CE0FFF7C8
:1025E00019FD064605E000BFFFF714FD801B6428B7
:1025F000F0D828688003F7D42078DFF8AC82800711
:102600004FF0000A3ED5A748001D016811F00C0FDD
:1026100008D00068C0F3810002280BD1D9F800006F
:10262000400207D42868800716D5E068012800D149
:1026300012E033E1E068B8B10120C8F80000FFF70C
:10264000E9FC064605E000BFFFF7E4FC801B02281A
:10265000C0D828688007F7D52868216920F0F800DD
:1026600040EAC10028600DE0C8F800A0FFF7D2FCE6
:10267000064604E0FFF7CEFC801B02281FD828681E
:102680008007F7D42078000722D5864F87486169F4
:10269000703771B101210160FFF7BCFC064604E010
:1026A000FFF7B8FC801B022809D838688007F7D5E7
:1026B0000EE0C0F800A0FFF7ADFC064605E082E0A2
:1026C000FFF7A8FC801B02287DD838688007F7D464
:1026D0002078400768D5DFF8CCB100270BF13C0B20
:1026E000DBF80000C0000BD4DBF8001041F0805193
:1026F000CBF80010DBF80000012700F080500090BC
:102700006B4E3068C00510D4306840F48070306083
:10271000FFF780FC009005E0FFF77CFC0099401A71
:10272000022850D83068C005F6D55E4EA0686C36D9
:1027300001280FD00528306810D020F0010030604B
:10274000306820F004003060A068B8B1FFF762FC88
:1027500000900FE0306840F00100F4E740F0040022
:102760003060F7E7FFF756FC0099411A41F28830D4
:10277000814266D830688007F4D50EE0FFF74AFC46
:10278000009007E0FFF746FC0099411A41F28830BB
:10279000814256D830688007F4D42FB1DBF800109E
:1027A00021F08051CBF80010A069C8B33D49091D44
:1027B0000968C1F3810102294AD00228504607D096
:1027C000C8F8600000E03CE0FFF724FC04463BE072
:1027D0004746C8F86000FFF71DFC064605E000BF4D
:1027E000FFF718FC801B02282BD828688001F7D43B
:1027F000D4E907010843A16A2E4A490802EB0141C6
:10280000626A41EA8211084394F82C1040EA01619F
:10281000C9F8001001203866FFF7FCFB044606E00B
:102820003EE000BFFFF7F6FB001B022809D828682E
:102830008001F7D534E000BFFFF7ECFB001B022856
:1028400002D90320BDE8F88F28688001F4D427E07E
:102850000128F7D0D9F80000E26900F48001914224
:102860001CD1226A00F03F01914217D147F6C07196
:10287000626A0140B1EB821F10D1A26A4FF0FF33B0
:1028800000F4403103EB5202B1EB024F06D194F851
:102890002C1000F07060B0EB016F01D00120D1E787
:1028A0000020CFE70438024000004742800E474234
:1028B000007000400000FFFF0068503050F8210019
:1028C00070470068503040F8212070472DE9F847E4
:1028D0008A4639494FF4FA4C91460F684FF47A72A0
:1028E000B7FBFCF151430091017F012962D0012522
:1028F0000577022141770268CA215162026853219B
:10290000516201688A684FF0000352054FF0FF04DE
:102910004FF0030608D5009AB2F10108CDF8008007
:1029200018D3CA685207F6D48A6822F480628A6093
:102930000168CA6802F0800262F49062CA60B7FB64
:10294000FCF14FF47A72514300910168009A571ECE
:10295000009705D24C62467703770320BDE8F887DD
:10296000CA685207F2D58A6822F007028A600168B5
:102970008A6842EA09028A600268C2F814A00F4914
:102980000A6842F480020A600C4908310A6842F47D
:1029900080020A6001688A6842F480428A600168A5
:1029A0008A6842F480628A6001684C6245770377E6
:1029B0000020D3E70220D1E7C4050020003C0140FD
:1029C0007047000010B504460068C068400509D58E
:1029D0002046FFF7F5FF2068C16801F0800161F42F
:1029E0009061C16003494FF4800008600120607766
:1029F00010BD0000143C014010B500680B46416852
:102A00000D480140080CD870C1F304245C7001F03B
:102A10003F049C70C1F34231197052B902F066FE56
:102A2000D870587802F062FE5870987802F05EFE16
:102A30009870002010BD00003FFFFF0010B50B464E
:102A40000168896A596001680969C1F30E019960DA
:102A5000006801680D480140C1F305401870C1F3DA
:102A600006245C7001F07F049C70890DD97052B906
:102A700002F03CFE1870587802F038FE58709878D2
:102A800002F034FE9870002010BD00007F7F7F00B0
:102A900010B5040002D0607F10B106E0012010BD27
:102AA00000202077204600F039F802206077216866
:102AB000CA204862216853204862204602F02CFE5A
:102AC00030BB20688168144A1140816021688868A1
:102AD00062681043D4E904231A43104388602168D4
:102AE000E068086120680169228941EA02410161C8
:102AF000204602F035FE58B921680A6C22F4802283
:102B00000A6421680A6CA3691A430A640121617787
:102B10002268FF21516210BDBFFF8FFF10B586B044
:102B2000044618216846FDF712FC0D4920688842CA
:102B300014D102200090C00104906846FFF750FBBA
:102B400008B1FEF705FD07490120086000220521B4
:102B50000320FFF7F7FA0320FFF7E6FA06B010BDEF
:102B6000002800403C0E474270B50446007F0B46EB
:102B7000012819D00126267702206077B2B1987813
:102B8000D97840EA014558781978000240EA413086
:102B900005432168CA2048622168532048622046C4
:102BA00002F0BAFDD0B122E0022070BD5878C10613
:102BB00003D500F0EF000A305870D87802F09FFD7E
:102BC0000204587802F09BFD42EA0022987802F055
:102BD00096FD0243187842EA4035DAE70748054097
:102BE00020684560204602F0BBFD00B96677226888
:102BF000FF2151620021217770BD00003FFFFF00DF
:102C00002DE9F0410446007F0D46012823D04FF006
:102C1000010884F81C800220607720680027806803
:102C20004FEA4060D2B1002800DBEF70A878297825
:102C300040EA01466878E978000240EA815006439C
:102C40002168CA204862216853204862204602F069
:102C500063FDB8B12CE00220BDE8F081002800DB64
:102C6000EF70287802F04BFD0204687802F047FD0F
:102C700042EA0022A87802F042FD0243E87842EAE4
:102C80008056DDE70D4806402068066020688168B0
:102C900021F480218160D5E90301084321688A6815
:102CA00010438860204602F05BFD08B984F81D805F
:102CB0002268FF2151622777CEE700007F7F7F00E7
:102CC00070B504460068C16821F0A001C160FFF73B
:102CD000A1F905464FF47A7607E000BFFFF79AF9AD
:102CE000401BB04201D9032070BD2068C068800637
:102CF000F4D5002070BD704770B5040009D0606A3B
:102D0000002540B125616561A56294F8510040B18C
:102D10000CE0012070BD6068B0F5827FF4D0E56101
:102D2000F2E784F85050204600F044F8022084F87E
:102D300051002068016821F040010160A0882189CC
:102D400000F4827001F404410843A18901F4006198
:102D50000843217C01F002010843217D01F00101BB
:102D60000843218B01F400710843217F01F03801F1
:102D7000084394F8201001F080010843218D01F4EC
:102D80000051084321680860A069042101EA10404D
:102D900094F8241001F0100108432168486020686D
:102DA000C16921F40061C1616565012084F85100A9
:102DB000002070BD70B586B0064614216846FDF748
:102DC000C6FA2049306888423AD11F480025016878
:102DD00041F480510160006800F4805005901A4869
:102DE0001438016841F0020101600068694600F092
:102DF00002000590282000900220CDE90105032063
:102E00000390052004901148FFF702F8114C104878
:102E100020604FF0806060604020C4E9020500013E
:102E20002061400060618000C4E9060525622046FB
:102E30006562FEF72BFF08B1FEF78AFBB464A66358
:102E400006B070BD0030014044380240000402402A
:102E500040640240680900202DE9F84F044690F8CC
:102E6000500000271D461646894601280DD04FF018
:102E7000010B84F850B0FFF7CDF8804694F851006C
:102E8000BA46012804D0022793E00220BDE8F88F5B
:102E9000B9F1000F73D0002E71D0032084F85100D7
:102EA000C4F854A0C4F83090A686E686C4F838A0CA
:102EB000A4F83CA0A4F83EA0C4F844A0C4F840A0E4
:102EC000A068B0F5004F09D12068016821F04001E9
:102ED00001602068016841F4804101602068016858
:102EE000490603D4016841F040010160E068B0F593
:102EF000006F606803D030B3012E24D041E008B1E8
:102F0000012E1CD1206B21680088C86006E0206873
:102F10008168890709D5216B0988C160206B801CF5
:102F20002063E08E401EE08609E0FFF773F8A0EB17
:102F30000800A84202D3681C01D031E07DB3E08EC6
:102F40000028E4D120E0206B21680078087306E0B7
:102F500020688168890709D5216B09780173206B86
:102F6000401C2063E08E401EE0860AE0FFF752F826
:102F7000A0EB0800A84203D3681C02D010E017E0C1
:102F80006DB1E08E0028E3D142462946204602F08A
:102F9000C7FC08B120206065A06818B106E0FFE713
:102FA000032706E02068C16880680090606D00B16A
:102FB000012784F851B084F850A0384666E7000035
:102FC0002DE9F041044690F850000026012809D070
:102FD000012784F8507094F851000025012804D08E
:102FE00002264EE00220BDE8F08189B182B10320C3
:102FF00084F8510065652163A286E286A563656455
:103000002564A587E587A068B0F5004F02D00BE0E6
:10301000012636E02068016821F040010160206847
:10302000016841F480410160A16C18480864A16CFA
:103030001748C863A16C1748C864A06C0565E38E87
:103040002268216B0C32A06CFEF78AFE38B1606DED
:1030500040F010006065012684F8517011E020688E
:103060000168490603D4016841F04001016020680D
:10307000416841F0200141602068416841F002014F
:10308000416084F850503046ADE70000B158000868
:10309000BB5800088F580008704770474FF0E02178
:1030A0000428086903D020F004000861704740F04C
:1030B0000400FAE710B5401EB0F1807F01D3012073
:1030C00010BD4FF0E02460610F21601703F093FE04
:1030D0000020A06107202061002010BD70477047CC
:1030E00070B590F83C20012A2CD0012480F83C4097
:1030F000022280F83D2003685A689D6822F070061D
:103100000A6832435A60104B02689A420ED0B2F1FC
:10311000804F0BD00D4B9A4208D00D4B9A4205D0F0
:103120000C4B9A4202D00C4B9A4204D1496825F0CC
:1031300080031943916080F83D40002180F83C10E5
:10314000084670BD022070BD000001400004004030
:1031500000080040000C00400040014010B5040091
:1031600003D094F83D0010B107E0012010BD00200D
:1031700084F83C00204600F01EF8022084F83D0050
:10318000211D206803F04CF8012084F8460084F8E3
:103190003E0084F83F0084F8400084F8410084F841
:1031A000420084F8430084F8440084F8450084F821
:1031B0003D00002010BD704790F83D10012901D05E
:1031C00001207047022180F83D100168CA6842F072
:1031D0000102CA6000680E4988420ED0B0F1804FEB
:1031E0000BD00C49884208D00B49884205D00B49C6
:1031F000884202D00A49884204D1816801F007015F
:10320000062903D0016841F00101016000207047E8
:10321000000001400004004000080040000C004095
:1032200000400140704770B50446006801694FF0E6
:103230000005C943890715D4C168C943890711D45A
:10324000E91E0161012020772068806980072046FF
:1032500002D0FFF7E7FF04E000F0C0F8204600F0DE
:1032600065F9257720680169C943490717D4C16802
:10327000C943490713D46FF004010161022020778C
:103280002068806910F4407F204602D0FFF7CAFF13
:1032900004E000F0A3F8204600F048F92577206804
:1032A0000169C943090716D4C168C943090712D483
:1032B0006FF008010161042020772068C069800751
:1032C000204602D0FFF7AEFF04E000F087F820466A
:1032D00000F02CF9257720680169C943C90617D485
:1032E000C168C943C90613D46FF0100101610820F9
:1032F00020772068C06910F4407F204602D0FFF795
:1033000091FF04E000F06AF8204600F00FF92577FD
:1033100020680169C943C90708D1C168C943C90701
:1033200004D1891E0161204600F05AF92068016924
:10333000C943090609D4C168C943090605D46FF019
:10334000800101612046FFF7C9FE20680169C94379
:10335000490609D4C168C943490605D46FF0400144
:103360000161204600F046F920680169C9438906D9
:103370000BD4C168C943890607D46FF020010161ED
:103380002046BDE87040FFF7AABE70BD10B586B0FC
:10339000044614216846FCF7DAFF0D49206888428C
:1033A00014D10C480021026842F002020260006859
:1033B00000F002000590012000900220CDE90101FB
:1033C000CDE9031069460448FEF722FD06B010BDA2
:1033D000000400403038024000040240704770B5DD
:1033E000044690F83C0000260D4601280FD001202D
:1033F00084F83C006AB1042A1DD0082A2FD00C2A78
:103400003FD00126002084F83C00304670BD0220E9
:1034100070BD206802F05EFF2068816941F00801FC
:1034200081612068816921F00401816120688169DE
:103430002A69114311E0206802F074FF2068816955
:1034400041F4006181612068816921F480618161BA
:10345000206881692A6941EA02218161D2E72068F6
:1034600002F08CFF2068C16941F00801C161206849
:10347000C16921F00401C1612068C1692A69114351
:1034800011E0206802F0A6FF2068C16941F40061E4
:10349000C1612068C16921F48061C1612068C1698E
:1034A0002A6941EA0221C161ACE710B5040003D0EA
:1034B00094F83D0010B107E0012010BD002084F811
:1034C0003C00204600F01EF8022084F83D00211D3B
:1034D000206802F0A5FE012084F8460084F83E0032
:1034E00084F83F0084F8400084F8410084F84200EA
:1034F00084F8430084F8440084F8450084F83D00D3
:10350000002010BD08B500680649884208D1064869
:10351000016841F002010160006800F002000090C3
:1035200008BD000000040040403802407047000021
:1035300010B50446022249B104290ED0082913D03F
:1035400094F84100012816D0012010BD94F83E00E7
:103550000128F9D184F83E200FE094F83F000128BB
:10356000F2D184F83F2008E094F840000128EBD124
:1035700084F8402001E084F841200122206802F014
:103580009BFE12492068884203D1426C42F40042FB
:103590004264206888420ED0B0F1804F0BD00C49B5
:1035A000884208D00B49884205D00B49884202D096
:1035B0000A49884204D1816801F00701062903D035
:1035C000016841F001010160002010BD00000140D0
:1035D0000004004000080040000C00400040014092
:1035E00000680349884201D1FEF71ABD7047000008
:1035F000000001407047704710B5044600684069FC
:1036000094F83D10C0F3C010212911D180B1206879
:10361000143050E8001F21F0800140E80012002A19
:10362000F5D1606B08B1FEF705FA204603F004F906
:103630002068406994F83E10C0F38010222911D10F
:1036400080B12068143050E8001F21F0400140E8AC
:103650000012002AF5D1A06B08B1FEF7EBF9204665
:1036600003F0C3F8002010BD70470000F8B50168F2
:1036700004460868CA684B6910F00F0F4FF0000548
:1036800059D003F0010602F49077374365D0C107A3
:1036900005D0D10503D5216C41F00101216441071A
:1036A00005D5D90703D0216C41F0020121648107BF
:1036B00005D5D90703D0216C41F00401216401072D
:1036C00007D502F02001314303D0216C41F00801FD
:1036D0002164216C00293AD0800604D5900602D5D9
:1036E000204603F0B7F820684069216CC0F38010D1
:1036F000090700D460B3204603F077F820684069DA
:10370000400621D52068143050E8001F21F0400108
:1037100040E80012002AF5D1A06BA8B16C49016500
:10372000A06BFEF7D0F9002811D0A06B016D01B09D
:10373000BDE8F040084783060FD593060DD5204617
:10374000BDE8F84003F086B82046FFF78DFFF8BDCE
:103750002046FFF789FF2564F8BD266B2023012E44
:1037600079D1C60677D5D60675D508684868009021
:103770004869400640D5A16B086840680004000C09
:10378000EAD0A28D8242E7D9E085C869B0F5807F92
:103790002DD020680C3050E8001F21F4807140E8E3
:1037A0000012002AF5D12068143050E8001F21F0E3
:1037B000010140E80012002AF5D12068143050E8D9
:1037C000001F21F0400140E80012002AF5D184F8E2
:1037D0003E30256320680C3050E8001F21F01001B6
:1037E00040E80012002AF5D1A06BFEF723F9A08D66
:1037F000E18D401A81B229E0A08DE18D401A81B29D
:10380000E08D0028A8D00029A6D020680C3050E810
:10381000002F22F4907240E80026002EF5D1206897
:10382000143050E8002F22F0010240E80026002E5C
:10383000F5D184F83E30256320680C3050E8002F25
:1038400022F0100240E80023002BF5D12046FFF7BC
:10385000D2FEF8BDFFE705062BD5150629D594F84D
:103860003D002128F5D1A068B0F5805F01D1206925
:10387000B0B1206A411C2162216800784860E08C68
:10388000401E0004000CE084E3D12068C16821F0F0
:103890008001C1602068C16841F04001C160D8E783
:1038A000206A0088C0F308004860206A801C2062FB
:1038B000E5E74006CDD55006CBD5CA68204622F0B4
:1038C0004002CA6084F83D3000F01BF9C1E70000F7
:1038D000F566000870B5040004D094F83D0000259A
:1038E00010B106E0012070BD84F83C50204600F085
:1038F00023F8242084F83D002068C16821F4005199
:10390000C160204603F006F82068016921F4904167
:1039100001612068416921F02A0141612068C16884
:1039200041F40051C1602564202084F83D0084F8F2
:103930003E00002070BD00002DE9F04186B0064633
:1039400014216846FCF703FD30493068884259D19C
:103950002F480024016841F010010160006800F068
:10396000100005902A481438016841F001010160F7
:103970000068694600F0010005904FF4C0600090B7
:103980000220CDE901040320039007200490214880
:10399000FEF73EFA214D20484FF000672860C5E948
:1039A00001744FF48068C5E903486C61AC61EC6157
:1039B0002C6228466C62FEF769F908B1FDF7C8FD74
:1039C000B563AE63154D144860353030E5E8020745
:1039D0004020A5E81101114845F814496030AC6158
:1039E000EC612C626C62FEF751F908B1FDF7B0FD95
:1039F0007563002205212520AE63FEF7A3FB252079
:103A0000FEF792FB06B0BDE8F08100000010014017
:103A1000443802400000024088640240540A0020FA
:103A200090F83E30202B0ED159B152B190F83C3075
:103A3000012B08D0012380F83C300023036302F0FF
:103A4000EFBF0120704702207047704770470000A9
:103A50002DE9F843044690F83D001F4616460D46F2
:103A600020284CD1C5B1BEB194F83C00012846D005
:103A7000012084F83C004FF00008C4F84080212069
:103A800084F83D00FEF7C6FAA6848146E684A06865
:103A9000B0F5805F03D004E00120BDE8F883206921
:103AA00028B12E465FF0000584F83C800EE0002629
:103AB000FAE78021204602F0FDFFA0B9AEB116F86A
:103AC000010B21684860E08C401EE084E08C4B468E
:103AD0004FF0000200970028EBD14FF04001204644
:103AE00002F0E8FF30B10320D7E735F8020BC0F34E
:103AF0000800E6E7202084F83D000020CDE7022002
:103B0000CBE770471CB500251F4E204FDFF88080A3
:103B10008DF8045096F8300006EBC00151E902011F
:103B20007840694008432AD11A480123002201A99C
:103B3000006821F031FEFDF7A5FC17480078F0B9C8
:103B40002CF080FCFDF766FC1449096800F02CF8A5
:103B5000C4B22DF02FFA98F80010A1420FD0322CE9
:103B60000DD9782C0BD2224688F800400CA168466B
:103B700003F01AF90B486946006819F00DF8322075
:103B800021F070FDC6E70000B00B00209C02002071
:103B9000980200206800002003000020140000208C
:103BA00025640000A002002070B504460D462B4895
:103BB00010F0F5FE10B1294808F0F6F8274820303B
:103BC00010F0EDFE18B12548203008F0EDF823483C
:103BD000403010F0E4FE18B12048403008F0E4F81E
:103BE00021461E480DF0A4FE1C48294620300DF049
:103BF0009FFE1A481A4CD0E9032191422CD38268C7
:103C0000914229D34268914226D94269914223D3F5
:103C10008269914220D3C06981421DD90F48A11CFD
:103C2000203002690888131AB3F5D57F14D3488071
:103C300092B20A80101A4EF6602191FBF0F107480B
:103C400040300DF075FE05484030C16921B10721B3
:103C5000001D00F0DFF82070207870BDFC0C002003
:103C600040060020FEE7000086B0534F534E544CF0
:103C7000DFF85081DFF85091DFF850A100254FF4B4
:103C8000FA7B00231A4603A9386821F027FD002893
:103C90007ED101F0FFFB2070401E632800D9257003
:103CA000307830B902A8029508F0FDF90298A8F81A
:103CB00000004748007838BB04A902A8FCF738FF89
:103CC0009DED040A434910EE100A88421CD210EE02
:103CD000100A4149884217DADDED020AF5EEC00A02
:103CE000F1EE10FA10DD10EE900A3C4988420BDA32
:103CF000BDEEC00A10EE100ABDEEE00A89F8000021
:103D000010EE100A8AF800003548364A90F8301054
:103D100000EBC10151E9020150406940084347D11D
:103D200031482178006811F09AFF22782FA1684667
:103D300003F03AF82F486946006818F02DFFB8F8EC
:103D400000202DA1684603F02FF82C486946006832
:103D500018F022FF03208DF80800294801230022D3
:103D600002A9006821F018FD264899F900100068A2
:103D700011F075FF24489AF90010006811F06FFFE8
:103D800099F900201CA1684603F00EF8694600E08E
:103D90000EE01E48006818F0FFFE9AF9002016A1F8
:103DA000684603F001F81A486946006818F0F4FE06
:103DB000584621F057FC64E76C0000200400002006
:103DC000DD010020E2010020A0010020A10100206F
:103DD00001000020000020C1000048420000C8424D
:103DE000B00B0020E4010020F401002025326425FE
:103DF00025000000FC0100202564000010020020C6
:103E0000700000201802002028020020200200205C
:103E10002C02002010B5002205E000BF50F822401F
:103E2000521C2344D2B28A42F8D3B3FBF1F010BD46
:103E300010B586B0044614216846FCF788FA20893C
:103E400000900120019002900220039069462068B2
:103E5000FDF7DEFF6089009069466068FDF7D8FFD6
:103E600006B010BD70B506460824002501F0DCFC44
:103E700013E06806050E0021304601F0C3FC022065
:103E800007F07BFF0121304601F0BCFC012007F068
:103E900074FF304601F0BFFC0543641EE4B2E8D273
:103EA0000021304601F0AEFC304601F0DBFC284634
:103EB00070BD10B50446002101F0CBFC012007F0D5
:103EC0005CFF0121204601F09DFC012007F055FF19
:103ED0000021204601F096FCBDE81040012007F0CB
:103EE0004CBF000070B50C460646082519E000BF1F
:103EF00001F088FC022007F040FF04F0800130460A
:103F000001F0A7FC012007F038FF6006040E012035
:103F100007F033FF0121304601F074FC012007F067
:103F20002CFF6D1EEDB24FF000013046E0D201F0E3
:103F300069FCBDE87040022007F01FBF10B50446C1
:103F4000012101F086FC012007F017FF0121204626
:103F500001F058FC012007F010FF0021204601F07D
:103F600051FCBDE81040022007F007BF10B5044621
:103F7000012101F06EFC022007F0FFFE0121204626
:103F800001F040FC012007F0F8FE0021204601F07E
:103F900060FC012007F0F1FE0021204601F032FC18
:103FA000BDE81040012007F0E8BE10B5044600212E
:103FB00001F028FC022007F0E0FE0021204601F07D
:103FC00048FC012007F0D9FE0121204601F01AFC2F
:103FD000012007F0D2FE0121204601F03AFCBDE8A5
:103FE0001040012007F0C9BE70B50546052401F058
:103FF0001BFC0121284601F005FC05E0641EA4B26B
:10400000012007F0BAFE84B1284601F004FC002824
:10401000F4D1284601F026FC0021284601F0F2FBED
:10402000022007F0AAFE002070BD284601F01AFC0D
:104030002846FFF7BAFF012070BD00002DE9F041CE
:104040001D4617460C468046069EFFF78FFF60060A
:10405000010E4046FFF746FF4046FFF7C5FF28B177
:104060004046FFF7A2FF0120BDE8F08139464046F7
:10407000FFF738FF4046FFF7B7FF4046FFF776FFF0
:10408000012000EB4400C1B24046FFF72BFF404641
:10409000FFF7AAFF00246F1E0AE000BFFFF7E2FE51
:1040A0003055BC4202DA4046FFF703FF641CE4B21D
:1040B000AC424046F2D3FFF741FF4046FFF775FFA1
:1040C0000020D1E770B516460C460546FFF74EFFB7
:1040D0006006010E2846FFF705FF2846FFF784FF1C
:1040E00031462846FFF7FEFE2846FFF77DFF2846AB
:1040F000FFF73CFF012000EB4400C1B22846FFF768
:10410000F1FE2846FFF770FF2846FFF7ABFE044696
:104110002846FFF713FF2846FFF747FF204670BDEC
:104120002DE9F0411D4617460C468046069EFFF7D6
:104130001DFF6006010E4046FFF7D4FE4046FFF724
:1041400053FF28B14046FFF730FF0120BDE8F08162
:1041500039464046FFF7C6FE4046FFF745FF0024BC
:1041600008E0315D4046FFF7BDFE4046FFF73CFFEB
:10417000641CE4B2AC42F4D34046FFF716FF0120C2
:1041800007F0FBFD0020E1E72DE9F0411D46164652
:104190000C460746FFF7EAFE6006010E3846FFF7B9
:1041A000A1FE3846FFF720FF28B13846FFF7FDFE95
:1041B0000120BDE8F08131463846FFF793FE3846CE
:1041C000FFF712FF29463846FFF78CFE3846FFF707
:1041D0000BFF3846FFF7E9FE012007F0CEFD002077
:1041E000E7E700001CB50024114D124E124FDFF816
:1041F0004C808DF800408DF8044001230022694670
:10420000286821F06BFA10B9052000F0BDFA0123EF
:10421000002201A9306821F061FA20B93C8098F8A9
:10422000000000F0B1FA0A2021F01CFAE5E70000D6
:10423000600000206800002018000020DE0100203F
:1042400038B5154C154900252088401C80B22080C7
:10425000097801EB8101B0EB410F08D110488DF8CE
:104260000050012300226946006821F095FA0D48AC
:104270002188007800EB8000B1EB400F0AD10120CB
:104280008DF8000003460848258000226946006832
:1042900021F082FA38BD000018000020F803002049
:1042A00060000020F90300206400002000224FF489
:1042B00080710148FDF7A9BE0000024001221102F1
:1042C0000148FDF7A2BE00000000024070B586B0B4
:1042D00014216846FCF73BF80E480025016841F0C0
:1042E0000101016000680C4E00F001004FF4807481
:1042F00005902A4621463046FDF787FE0121CDE98B
:104300000041CDE9021569463046FDF781FD06B052
:1043100070BD000030380240000002402DE9F0413D
:1043200000241B4D1B4E012708B12F7001E0287897
:10433000E0B120213046FDF75BFE20B11021304670
:10434000FDF756FE90B1032021F08CF92021304674
:10435000FDF74EFE40B110213046FDF749FE98B101
:104360000224002028700FE00124FAE7032021F046
:1043700079F920213046FDF73BFE28B11021304667
:10438000FDF736FE00B92F702046BDE8F081000031
:1043900030060020000002400EB50024194D1A4ED0
:1043A0008DF800408DF808408DF804400020FFF79C
:1043B000B5FF01280ED002281AD11448144A90F8EB
:1043C000301000EBC10151E9020150406140084347
:1043D00012D002208DF800000123002269462868CF
:1043E00021F0DAF90123002201A9306821F0D4F983
:1043F000012021F037F9D9E706480123002202A95C
:104400000068F3E75C00002068000020B00B00208B
:10441000E40100206400002030B587B01421684614
:10442000FBF795FF18480024016841F00101016085
:104430000068164D00F001000590202000904FF418
:10444000041001900120029069462846FDF7E0FC27
:10445000102000904FF48810CDE9010469462846E9
:10446000FDF7D6FC002211461720FDF76BFE172042
:10447000FDF75AFE002211460A20FDF763FE0A20CE
:10448000FDF752FE07B030BD303802400000024058
:104490002DE9F04104461D4616460F462A2000F03D
:1044A00037FA204600F024FA304600F021FA2B209B
:1044B00000F02EFA384600F01BFA284600F018FAF1
:1044C000BDE8F0412C2000F023BA00000249002092
:1044D0000968C86370470000C809002070B55D1AFC
:1044E000141A641C6D1C143314316C439BB289B2D2
:1044F000049EFFF7CDFF0D4D4FF40060E860286883
:10450000016841F400610160A2B231462846FEF71D
:1045100057FD0748006841680029FCD10020E86089
:104520002868016821F40061016070BD1009002055
:104530006809002010B514460B460246FFF7A8FF95
:104540002046BDE8104000F0D3B92DE9F047804681
:104550001F4603F1130083B21646501E82B20C466A
:1045600001F1140081B24046DDF82090FFF790FF82
:104570000AE0454604E0484600F0BAF96D1CADB2C9
:10458000B542F8D3641CA4B2BC42F2D3BDE8F087B4
:1045900030B587B014216846FBF7D9FE0D48016895
:1045A00041F00201016000684FF4607400F0020005
:1045B00005900120CDE900400320074D0390694696
:1045C0002846FDF725FC012221462846FDF71DFD62
:1045D00007B030BD303802400004024010B5FFF78C
:1045E000D7FF684C00224FF480712046FDF70DFD87
:1045F000002280212046FDF708FD642007F0B0FB73
:10460000012280212046FDF700FD642007F0A8FB71
:10461000112000F07DF9782007F0A2FB362000F091
:1046200077F9002000F08AF93A2000F071F90520AE
:1046300000F084F9B22000F06BF90C2000F07EF954
:104640000C2000F07BF9002000F078F9332000F016
:1046500075F9332000F072F9B72000F059F93520D0
:1046600000F06CF9BB2000F053F9192000F066F956
:10467000C02000F04DF92C2000F060F9C22000F0BD
:1046800047F9012000F05AF9C32000F041F9122047
:1046900000F054F9C42000F03BF9202000F04EF95E
:1046A000C62000F035F90F2000F048F9D02000F0C6
:1046B0002FF9A42000F042F9A12000F03FF9E020FA
:1046C00000F026F9D02000F039F9042000F036F986
:1046D0000D2000F033F9112000F030F9132000F024
:1046E0002DF92B2000F02AF93F2000F027F9542063
:1046F00000F024F94C2000F021F9182000F01EF9F8
:104700000D2000F01BF90B2000F018F91F2000F01D
:1047100015F9232000F012F9E12000F0F9F8D0207B
:1047200000F00CF9042000F009F90C2000F006F963
:10473000112000F003F9132000F000F92C2000F004
:10474000FDF83F2000F0FAF8442000F0F7F851207F
:1047500000F0F4F82F2000F0F1F81F2000F0EEF840
:104760001F2000F0EBF8202000F0E8F8232000F0F4
:10477000E5F8212000F0CCF8BDE81040292000F039
:10478000C7B8000000040240411F5F2909D84FF458
:10479000967110FB01F06421B0FBF1F0014909684A
:1047A000C8637047C80900202DE9FF4F81B0044657
:1047B000DDF83C9000904FEA59074FF00008780769
:1047C00000D0012000EBD70000FB09FB203AD0B25B
:1047D0000390029802994844401E83B2E019401E9B
:1047E00082B22046FFF754FE002553E0B9F10C0FCA
:1047F0002AD0B9F1100F2ED0B9F1180F2ED0B9F17F
:10480000200F49D12749039801EB8010002610F8AA
:1048100005A0109800284FF0010000FA06F000EA09
:104820000A0022D020B12046049A0299FFF782FEA6
:10483000641C0098A4B2201AB84225D10298009CAA
:10484000401C80B2029023E00398174900EB40001F
:1048500001EB8000DAE71549039803E00398144957
:1048600000EB400001EB0010D0E708B1049800E035
:104870000E9800F03DF808F10100C0B2B0FBF7F16E
:10488000804607FB118050B1761CF6B2082EC0D3CB
:104890006D1CADB25D45A9D305B0BDE8F08F4FF0FA
:1048A0000008F5E7809704084C7B0408C07F0408E3
:1048B000B08504082DE9FE4F9946DDE90D671446E1
:1048C0008A460546DDF830800CE0CDF800804B4686
:1048D00051462846CDE90167FFF766FF05EB560014
:1048E00085B2641C2278002AEFD1BDE8FE8F00005B
:1048F00008B5010A8DF800108DF80100012302228D
:1049000069460248FEF7A8FA08BD00001009002019
:1049100070B5094D06464FF4007400222146284622
:10492000FDF773FB304600F009F821462846BDE844
:1049300070400122FDF769BB0004024001B501236C
:104940001A4669460148FEF787FA08BD100900209B
:1049500038B527480024016841F002010160006871
:1049600000F0020000902348FFF762FA1021232094
:1049700000F0BEF80120FDF72BFA2F21202000F0D7
:10498000B7F80120FDF724FA202000F0A5F82F2821
:1049900007D00A20FDF71CFA641CE4B2032CE5D30F
:1049A00024E00120FDF714FA00241021002000F07B
:1049B0009FF80120FDF70CFA8021012000F098F803
:1049C0000120FDF705FA0021022000F091F80120F6
:1049D000FDF7FEF9022000F07FF8002807D00A203A
:1049E000FDF7F6F9641CE4B2032CDED3012038BDD8
:1049F00030380240F405002010B50321022000F0F9
:104A000077F80F21BDE81040202000F071B810B5F4
:104A10000021022000F06CF82F21BDE8104020207A
:104A200000F066B87CB514460D4606466A46062177
:104A3000282000F035F89DF801009DF8003043EA89
:104A4000002333809DF8030001029DF80200084313
:104A500028809DF8050001029DF80400084320808D
:104A60007CBD7CB514460D4606466A4606210320E9
:104A700000F016F89DF800009DF8013043EA00238D
:104A800033809DF8020001029DF803000843208056
:104A90009DF8040001029DF80500084328807CBDB4
:104AA0002DE9F04190460E460546192801D91927EF
:104AB00000E01E27002409E02819C2B23946054843
:104AC000FFF700FB08F80400641CE4B2B442F3D31F
:104AD000BDE8F081F4050020192801D9192100E072
:104AE0001E2102460148FFF7EDBA0000F405002040
:104AF0000B46192801D9192100E01E210246014860
:104B0000FFF742BBF405002038B50E4C0EA16846F5
:104B1000627802F049F96946206A18F03DF8A278F7
:104B200009A1684602F040F96946A06A18F034F815
:104B3000E27805A1684602F037F96946206B18F063
:104B40002BF838BD9C0400202530326400000000A2
:104B500008B500200A4C8DF800004FF47A7500204B
:104B600012F020FDA84205D200231A466946E06CE7
:104B700020F012FE1EF0E8FC012020F073FDEEE7AD
:104B80001C00002008B51B4E1B4D00244FF49677E7
:104B9000687858B300F01CF910B10120287025E0A6
:104BA0002878012821D12C7096F83000134B06EBA1
:104BB000C001224651E90201434081EA020C53EA56
:104BC0000C030BD00E4B81EA020C434053EA0C035A
:104BD00004D00C4B51405840084306D10A480123E9
:104BE00000226946006820F0D7FD2C70384620F07E
:104BF00039FDCDE7B00B00200F000020E4010020BC
:104C0000D00200202C04002064000020064882B05E
:104C1000016841F002010160006800F002000090AC
:104C2000024802B0FFF704B9303802400006002005
:104C30007CB514460D4606466B4606223B2168208D
:104C400000F048F800280BD1BDF8001049BA3180B7
:104C5000BDF8021049BA2980BDF8041049BA218074
:104C60007CBD3EB50C46054601AA694602A8FFF781
:104C7000DFFFBDF8000010FB00F1BDF8040010FBE1
:104C8000001000EE100AB8EEC00A02F06DFFBDF988
:104C90000800F0EE400A00EE100AB8EEC01A81EEED
:104CA000200A02F00FFAB1EE400A84ED000ABDF9C5
:104CB000000000EE100ABDF90400F8EEC00A00EE94
:104CC000100AB8EEC01A80EE810A02F0FBF985EDF9
:104CD000000A3EBD2DE9F04106461D4614460F462A
:104CE0002048FFF743F97006010E1E48FFF7FAF857
:104CF0001C48FFF779F928B11A48FFF756F9012047
:104D0000BDE8F08139461748FFF7ECF81548FFF782
:104D10006BF91448FFF72AF9012000EB4600C1B2F5
:104D20001048FFF7DFF80F48FFF75EF90BE00D487A
:104D3000012C0FD0FFF796F828700A48FFF7B9F852
:104D4000641EE4B26D1C002CF1D10648FFF72DF96A
:104D50000020D5E7FFF786F828700248FFF7EEF845
:104D6000EEE70000000600202DE9F04104461E4653
:104D700015460F461548FFF7F9F86006010E13486F
:104D8000FFF7B0F81148FFF72FF980B939460F48FF
:104D9000FFF7A8F80D48FFF727F900240FE0315D71
:104DA0000A48FFF79FF80948FFF71EF928B107489E
:104DB000FFF7FBF80120BDE8F081641CE4B2AC42CF
:104DC000EDD30248FFF7F1F80020F4E700060020D9
:104DD0001CB501A96846FFF744FF084900988842BE
:104DE00009DC074A904206D20198884203DC9042CF
:104DF00001D201201CBD00201CBD00006666E63EFD
:104E00006666E6BE7FB500241548009401940294BE
:104E10001249039401604FF48031C0E90114046128
:104E2000047680F820400F49C0E90A140125C561C5
:104E3000C46080F830404561FCF7C7FC08B1FCF75E
:104E400087FB0095CDE9015469460548FCF708FC4D
:104E5000002801D0FCF77CFB7FBD00000020014052
:104E6000A80800200100000F114808B5016841F4AE
:104E7000800101600068002200F48000009005219C
:104E80003A20FDF75FF93A20FDF74EF9002205219F
:104E90004420FDF757F94420FDF746F9002205218B
:104EA0004620FDF74FF9BDE808404620FDF73CB924
:104EB0003038024010B501F05BFE044A002104487E
:104EC00020F09EFC0349086010BD0000DC110308BF
:104ED0005F5F0008080000200D4808B5016841F038
:104EE00004010160016801F004010091016841F0D2
:104EF00001010160016801F001010091016841F0C8
:104F000002010160006800F00200009008BD00008E
:104F10003038024030B587B014216846FBF717FAE5
:104F20002948002427490594C0E900147F218160A5
:104F3000FF21C0E9031444618461FDF7A9FD08B1B4
:104F4000FCF706FB00212048FDF7B6FC45F25005B2
:104F5000A84234D011208DF8000059208DF80100AE
:104F600055208DF8020003940122694616480494E6
:104F7000FDF746FE08B1FCF7EBFA07208DF81400A8
:104F800005208DF8150021208DF8160023208DF8BE
:104F90001700012205A90C48FDF7E6FD08B1FCF752
:104FA000D7FA00224FF4FA610748FDF78FFC08B1E9
:104FB000FCF7CEFA2A4600210348FDF782FC07B031
:104FC00030BD000000280040F0080020104810B557
:104FD0000E4901604FF4827141600021022281601C
:104FE000C0E90312012242615202C0E906210162B6
:104FF000416281620A21C162FDF77EFE002803D072
:10500000BDE81040FCF7A4BA10BD0000003001401C
:105010001009002010B58AB0002407941C216846AE
:105020000894FBF794F91648144901606321C0E91C
:1050300001144FF49671C0E903148461FEF735FA48
:1050400008B1FCF785FA079407A90D480894FEF704
:1050500047F808B1FCF77CFA6020CDE9000402941F
:105060000822694606480494FEF7B9F908B1FCF72E
:105070006FFA0348FEF78AF90AB010BD0004004039
:10508000C80900200C4810B50A4901604FF4E1310D
:105090004160002181600C22C160C0E9041281617D
:1050A000C161FEF717FC002803D0BDE81040FCF7F3
:1050B0004FBA10BD00100140100A0020FEE70000AA
:1050C00086B0434E00254FF47A77307800287AD0A6
:1050D000404835708DF804500123002201A9006872
:1050E00020F05AFB3C493DA001F04EFE3EA13A485B
:1050F000FBF73FF978B13DA13748FBF73AF960B1CA
:105100003DA13548FBF735F958B13348FBF72AF98B
:10511000142842D053E03AA000E03BA001F034FE56
:105120004DE03D4C0022211D3C48FDF787FC00224C
:1051300021463A48FDF760FC394800782076394826
:105140000078607638480078A07638480078E076B5
:1051500037480088A083A278617836A001F014FE59
:10516000A3796279217937A001F00EFE94F9181025
:105170003AA001F009FE94F919103CA001F004FED8
:10518000A17E3FA001F000FEE17E42A001F0FCFD07
:10519000A18B43A001F0F8FD11E00295039502A94F
:1051A0000D48049500F076FF4148007838B141A1E0
:1051B00002A8FBF7DEF810B9074801F071F91921D0
:1051C0000548FBF7C4F8384620F04CFA7DE70000AC
:1051D0000C00002068000020140B0020526563536F
:1051E00074723A25730D0A004F5600004F562B5625
:1051F000455253494F4E00004F562B53454E4400E5
:105200004F4B0D0A0000000056455253494F4E3D8A
:1052100056322E330D0A0000780B0020F0080020D3
:10522000A1010020A0010020980200208404002099
:10523000E2010020646174613A2532642D25303228
:10524000640D0A0074696D653A253032643A253080
:1052500032643A253032640D0A00000068756D69C9
:10526000646974793A256425250D0A0074656D70AA
:10527000657261747572653A25640D0A000000005C
:10528000486561727420526174653A256425250D64
:105290000A00000053504F323A256425250D0A00BC
:1052A0005374657020746F6461793A25640D0A0047
:1052B0002C0100204F562B5354000000FEE700B590
:1052C000034602E0184600F007F8184600F021F8FF
:1052D0000028F7D000BD0000017D49B100EB81023C
:1052E000491E9FED040A017582ED000A00207047F7
:1052F000FF20704700000000017D042907D000EB6B
:105300008102491C017582ED000A00207047FF20D0
:105310007047007D08B100207047012070472DE9DB
:10532000FF4F81B006460F460398FFF7C8FF049869
:1053300000F0D9FE0020824660F307040090307828
:105340006AF307054FF0010BA0463038A9466BF30E
:1053500007080A2803D3012005B0BDE8F08F002517
:10536000F2EE041A91E0725D2E2A08D1032060F358
:10537000070418F0FF0F01D00220EDE7A046A2F1CC
:105380003000092847D80399097D052903D8049AD4
:105390005279052A01D90320DEE700EE100A4846BB
:1053A0006AF30700B8EEC00A81466AF3070418F0F2
:1053B000FF00F0EE400A02D0032827D022E0009838
:1053C00018B1401CC0B200900DE00398F0EE400A06
:1053D00000EB810010ED011A41EE210A0DE080EE94
:1053E000A10AF0EE400A401EC0B2F8D2039800EBCA
:1053F000810010ED010A70EE800A0398FFF76CFF40
:10540000B0EE600A0398FFF777FF3CE0C0EE210A98
:1054100001200090EAE72B2A05D02D2A03D02A2A62
:1054200001D02F2A30D10398007D052803D8049895
:105430004079052801D904208EE7484662F3070029
:1054400081460020009008F0FF006BF3070401285C
:1054500004D0049800F067FE10B110E005207BE74F
:1054600004984179401E085C114600F062FE30B19C
:10547000DDE90301FBF7B6FD09F0FF0100E011468D
:10548000049800F046FEA0466D1CBD42FFF66BAFCF
:10549000002061E770B5FBF7E3FC10EE104AFBF764
:1054A000B9FE58B12046FBF71DF99FED2A1B53ECBE
:1054B000112BFBF723F8FBF728F904462748844211
:1054C00001DD642544E0264826492044884201D86D
:1054D0005A253DE0244821182448814201D850250E
:1054E00036E02349621823498A4201D246252FE03B
:1054F000214A2244824201D23C2529E01F481B4A0E
:105500002044521E904201D8322521E01C481D4AF9
:105510002044904201D828251AE01B481B4A204409
:10552000904201D81E2513E01948164A2044521C07
:10553000904201D814250BE016482044884201D23D
:105540000A2505E0144815492044884200D2052563
:10555000284670BDFCA9F1D24D62C03F6666864008
:105560007A147EBFE07A0400AE4781BF3333030074
:10557000B81E85BF0AD70300EB5188BF1E858BBFBD
:10558000A3708DBF84EB010051B88EBFAD47010001
:10559000D7A390BFE17A94BF3333A3BF52B80E00B4
:1055A000002208210148FCF730BD00000000024045
:1055B000012208210148FCF728BD0000000002403C
:1055C00010B500F005F8BDE81040FFF7F1BF00008E
:1055D00030B587B014216846FAF7B9FE16480024A2
:1055E000016841F0010101600068144D00F0010004
:1055F0000590224608212846FCF707FD0820009068
:105600000120CDE90104694628460394FCF700FC1B
:10561000042000904FF44410CDE901046946284667
:10562000FCF7F6FB002211460820FCF78BFD082052
:10563000FCF77AFD07B030BD303802400000024070
:1056400010B52DED028BFBF7F6FF00EE100ADFED33
:10565000240AB8EEC00A20EE208AFBF7D7FF00EE3E
:10566000100A9FED201A2048B8EEC00AB0F90810C1
:10567000C0EE010A00EE101AB0F90C1001EE101A7B
:10568000B8EEC00AB0F90410B8EEC11A00EE810AF3
:1056900090ED051A28EE202AB8EEC11A00EE801A05
:1056A00090ED040AB8EEC00A00EE810A01EE101A6D
:1056B000B0F90610B0F90A00B8EEC11A01EE900A6E
:1056C00008EE010A01EE101AF8EEE11ABDEC028BA9
:1056D000B8EEC11A00EEA11A02EE010A10BD0000D8
:1056E000000000360000C0490C060020010901EB53
:1056F000810100F00F0000EB4100C0B270470021B3
:1057000003E0491C0A38C9B2C0B20A28F9D2090715
:1057100040EA1160704700002DE9F041044600683E
:105720000025C168490618D4C16841F08001C160F4
:10573000FCF770FC06464FF47A78042707E000BFB8
:10574000FCF768FC801B404501D96777012520687C
:10575000C068400601D4002DF2D02846BDE8F08193
:1057600070B5044600680025C16821F08001C16061
:1057700020688068800606D42046FDF7A1FA10B1A3
:10578000042060770125284670BD000008B500237D
:1057900000938DF802208DF801108DF8030014237A
:1057A0002AF032FF8DF80000002269460348FDF719
:1057B000DBF9002801D0FBF7CBFE08BDF008002084
:1057C00070B586B00D460646144614216846FAF7B1
:1057D000BEFD8DF800608DF801508DF8024000226A
:1057E00069460448FDF70CFA002801D0FBF7B0FE2B
:1057F00006B070BDF00800200148FDF7E3B80000D6
:10580000F00800204289406811B18169114300E02D
:1058100011048161704710B501890068FCF7E8FB4D
:10582000012800D0002010BD10B586B00446142118
:105830006846FAF78CFD2089009000200190012035
:1058400002900220039069462068FCF7E1FA06B056
:1058500010BD0289006811B18169114300E0110493
:105860008161704710B586B0044614216846FAF786
:105870006EFD2089009011200190002002900220EE
:10588000039069462068FCF7C3FA06B010BD10B556
:10589000806B01684A6822F003024A60416D41F062
:1058A00010014165012180F85110FDF724FA10BD67
:1058B00010B5806BFDF7F1FB10BD38B50546846B64
:1058C000FCF7A8FB024628680068C00523D42068BE
:1058D000416821F0200141602068416821F0020107
:1058E00041606421204600F01BF818B1606D40F063
:1058F00020006065A068002118B92068C26880682F
:105900000090E186012084F85100606D18B12046B6
:10591000FDF7F1F938BD2046FDF7BEFB38BD0000AC
:1059200038B504461248134B0068B0FBF3F04FF44F
:105930007A73584300906068B0F5827F0DD10B46B2
:10594000009200228021204600F016F870B1606DB0
:1059500040F020006065032038BD009830B1401E43
:10596000009020688068C0430006F6D5002038BD4E
:10597000C405002000366E012DE9F8431E4691460D
:1059800088460446089DFCF745FB401B351AFCF78A
:1059900041FB074625480068C0F3CB30684338E038
:1059A000701C37D0FCF736FBC01BA84203D215B1E0
:1059B000009860B32CE02068416821F0E00141606C
:1059C0006068B0F5827F0BD1A068B0F5004F02D0BF
:1059D000B0F5806F04D12068016821F040010160BA
:1059E000A06AB0F5005F09D12068016821F4005178
:1059F00001602068016841F400510160012084F8D1
:105A00005100002084F850000320BDE8F8830025F1
:105A1000401E00902068816838EA010004D000210F
:105A20004945BDD10020F0E70121F9E7C405002078
:105A3000024676210148FEF745BB000024060020FF
:105A40000B46024676210148FEF79EBB2406002045
:105A500038B52248016841F002010160006800F099
:105A6000020000901E48FEF7E3F901210620FFF72F
:105A7000E7FF80210720FFF7E3FF07210820FFF75A
:105A8000DFFF00210920FFF7DBFF0DF0AFF8144C1A
:105A9000183C20800DF0E2F860800DF0D3F8A08073
:105AA0000DF008F9E0800DF011F920810DF01AF9E0
:105AB00060810DF023F9A0810DF0AAF820610DF0AE
:105AC000DFF860610620FFF7B3FF012804D1092049
:105AD000FFF7AEFF002800D0012038BD303802406B
