:020000040800F2
:10000000F88601207102000809530008F53C000839
:1000100009510008F50F00087D6B00080000000082
:10002000000000000000000000000000B101000816
:100030000D140008000000000D02000865610008B2
:100040008B0200088B0200088B020008455800084C
:100050008B0200088B0200088B0200088B0200084C
:10006000311500088B020008411500088B020008BA
:100070008B0200088B0200088B0200088B0200082C
:100080008B0200088B0200088B02000800000000B1
:1000900000000000000000000000000047150008FC
:1000A0008B020008256200088B0200088B02000802
:1000B0008B0200088B0200088B0200088B020008EC
:1000C0008B0200088B0200088B0200088B020008DC
:1000D0008B0200083D6B00088B0200080000000046
:1000E000211500088B0200088B02000800000000A8
:1000F0000000000000000000000000008B0200086B
:10010000000000008B0200088B0200088B02000830
:1001100000000000000000000000000000000000DF
:100120008B0200088B020008451300088B020008B0
:100130008B0200080000000000000000000000002A
:100140000000000000000000000000008B0200081A
:10015000511300088B0200085D1300088B02000891
:100160008B0200088B020008000000000000000065
:10017000000000000000000000000000000000007F
:10018000000000008B0200080000000000000000DA
:100190008B0200088B020008DFF810D000F0D2FBC1
:1001A00000480047ED370208AFF30080F8860120D1
:1001B0002C4B19680868B0E8F04F80F30988BFF34A
:1001C0006F8F4FF0000080F311887047000000002F
:1001D00008480068006880F308884FF0000080F34A
:1001E000148862B661B6BFF34F8FBFF36F8F00DF25
:1001F00000BF00BF08ED00E0DFF80C00016841F42B
:1002000070010160704700BF88ED00E0EFF30980E6
:10021000BFF36F8F134B1A681EF0100F08BF20ED4D
:10022000108A20E9F04F106009B44FF0500080F3BD
:100230001188BFF34F8FBFF36F8F2FF04FF84FF040
:10024000000080F3118809BC19680868B0E8F04F15
:100250001EF0100F08BFB0EC108A80F30988BFF3BE
:100260006F8F70476C060020EFF305807047000029
:100270000648804706480047FEE7FEE7FEE7FEE740
:10028000FEE7FEE7FEE7FEE7FEE7FEE71562000891
:10029000990100082DE9F05F0546002092469B4633
:1002A00088460646814640241BE02846414647468C
:1002B000224600F05EFA53465A46C01A914110D3C6
:1002C00011461846224600F045FA2D1A67EB010840
:1002D0004F4622460120002100F03CFA17EB0009AE
:1002E0004E41201EA4F10104DFDC484631462A4677
:1002F0004346BDE8F09F00000649074A086850439E
:1003000043F2390210440860400870470149086010
:1003100070470000940800206D4EC64140EA01037A
:100320009B0703D009E008C9121F08C0042AFAD2AB
:1003300003E011F8013B00F8013B521EF9D270476F
:10034000D2B201E000F8012B491EFBD27047002217
:10035000F6E710B513460A4604461946FFF7F0FFC4
:10036000204610BD421C10F8011B0029FBD1801A49
:10037000704710B5002200E0521C835C8C5CA342E5
:1003800001D1002BF8D1D8B2E1B2401A10BD03461A
:1003900011F8012B00F8012B002AF9D118467047FB
:1003A0002DE9FE4F804681EA0300C00F0C46009005
:1003B00021F0004123F00045B8EB0200A94105D22D
:1003C0004046214690461C460B46024623F000401C
:1003D000104347D0270DC7F30A00C3F30A51029018
:1003E000401A019040286BDAC3F3130040F4801BDD
:1003F0000098924620B10023D2EB030A63EB0B0B6B
:1004000001985946C0F14002504600F0A3F9064653
:100410000D4650465946019A00F0BBF910EB080012
:100420006141002487EA115284EAE7731A4340D0FD
:10043000009A62B3019A012A4FEA075215DC001BA9
:1004400061EB02014FF0004202EA0752CDE900429F
:10045000001C41F5801132462B4600F0F2F903B042
:10046000BDE8F08F40462146F9E7001B61EB020131
:10047000001C41F5801300185B412018A2F50017FD
:1004800047EB030140EAD570B6196D4111E06D08E4
:100490004FEA360645EAC0754FEA0752001B61EB8A
:1004A0000201001C41F5801149084FEA3000001993
:1004B000514132462B4603B0BDE8F04F00F0B2B9CF
:1004C0000098012240000023D0EB020263EBE073AE
:1004D000009821464FEAE074B8EB000061EB04019C
:1004E000E9E783F000435BE781F0004158E72DE93D
:1004F000FE4F81EA030404F0004421F0004100941F
:100500004FF0000B23F0004350EA01045ED052EAA2
:1005100003045BD0C3F30A54C1F30A552C44A4F27C
:10052000F3340194A0FB0254C1F3130141F4801190
:10053000C3F3130343F4801301FB024400FB034E97
:10054000840A970A44EA815447EA8357A4FB076860
:1005500002958D0A05FB07854FEA932C04FB0C548A
:100560002705029D4FEA065847EA1637B5EB0805FE
:100570006EEB070C870E920E47EA811742EA831250
:10058000A7FB0201B6EB0B0164EB00042B0D43EA61
:100590000C335E1844EB1C50DA465146E7FB02016F
:1005A000C5F313044FEA0B3343EA14534FEA043202
:1005B000019C43EA0603A4F10C040294009CCDE9DB
:1005C00000B400F03EF903B0BDE8F08F0020014612
:1005D000F9E72DE9F04D81EA030404F0004B21F026
:1005E000004514464FF0000A23F0004150EA05028E
:1005F00020D054EA01021DD0C5F30A570246C5F3C4
:100600001303C1F31300C1F30A5640F4801543F4F9
:100610008013A7EB0608101BD64608F2FD3873EBD3
:10062000050002D308F1010801E092185B41B8F11E
:10063000000F03DA00200146BDE8F08D00204FF4E2
:100640008011064684460EE0171B73EB050705D3A1
:10065000121B63EB050306434CEA010C49084FEA01
:10066000300092185B4150EA0107EDD152EA0300D5
:1006700012D082EA040083EA0501084305D0101B6A
:10068000AB4106D20122002306E000224FF00043D6
:1006900002E06FF0010253101AEB06004CEB085118
:1006A00010EB0A0041EB0B01BDE8F04D00F0BAB8C9
:1006B0000EB540F2334102910021CDE900110A4606
:1006C0000B4600F0BEF803B000BD00F0004230F071
:1006D00000400AD0C10D01F56071C0F3160042EA76
:1006E0000151C2084007114370470020014670477E
:1006F00001F0004330B421F0004150EA010206D07D
:100700000A0DA2F56072C1F31301002A02DC30BCAD
:1007100000207047440F44EAC104C100E01830BC17
:1007200000EBC25000F047B830B50B460146002040
:100730002022012409E021FA02F59D4205D303FAA3
:1007400002F5491B04FA02F52844151EA2F1010224
:10075000F1DC30BD202A04DB203A00FA02F100204F
:1007600070479140C2F1200320FA03F319439040EF
:100770007047202A04DB203A21FA02F0002170475A
:1007800021FA02F3D040C2F12002914008431946F9
:100790007047202A06DBCB17203A41FA02F043EAE1
:1007A000E07306E041FA02F3D040C2F1200291402A
:1007B0000843194670470029A8BF7047401C4900EC
:1007C00008BF20F00100704710B4B0FA80FC00FAB6
:1007D0000CF050EA010404BF10BC704749B1CCF1E1
:1007E000200421FA04F411FA0CF118BF012121436D
:1007F0000843A3EB0C01CB1D4FEA00614FEA102028
:1008000042BF002010BC704700EBC35010440029C9
:10081000A4BF10BC7047401C490008BF20F0010075
:1008200010BC704710B5141E73F1000408DA401CA8
:1008300041F1000192185B411A4301D120F00100FF
:1008400010BD2DE9F04D92469B4611B1B1FA81F2EF
:1008500002E0B0FA80F220329046FFF77BFF0446B8
:100860000F4640EA0A0041EA0B0153465A46084344
:1008700013D0114653EA010019D0C8F14002504686
:10088000FFF777FF05460E46504659464246FFF7AA
:1008900061FF084305D0012004E020463946BDE849
:1008A000F08D0020054346EAE0762C4337430A9852
:1008B0006305E40AA0EB08000022FD0A44EA47545D
:1008C0000A3002D500200146E9E701051019694107
:1008D000DDE9084500196941BDE8F04DA2E7C1F323
:1008E0000A52C1F3130140F2FF3341F480119A42DE
:1008F00002DA00200146704740F233439A42A2F2E6
:10090000334202DC5242FFF734BFFFF723BF00003F
:1009100030B5041E71F1000404DB4FF00044404286
:1009200064EB0101141E73F1000405DB1C464FF05B
:100930000043524263EB0403994208BF904230BD2A
:1009400000207047064C074D06E0E06840F00103C8
:1009500094E8070098471034AC42F6D3FFF720FC28
:1009600098F30508B8F3050870B58C1810F8015B0A
:1009700015F0070301D110F8013B2A1106D110F838
:10098000012B03E010F8016B01F8016B5B1EF9D13C
:100990002B0705D40023521E0DD401F8013BFAE7C2
:1009A00010F8013BCB1A921C03E013F8015B01F82D
:1009B000015B521EF9D5A142D8D3002070BD0000C2
:1009C000464910B54A6822F440324A604A68436892
:1009D0001A434A6001684A6822F480724A600168DA
:1009E0004A68036942EA03224A6001684A6822F0C1
:1009F00040724A6001684A6883681A434A60016825
:100A00008A6822F400628A6001688A68C3681A43AF
:100A10008A60816A6FF07062D14201688A6822F050
:100A200070628A6001688A680CD0836A1A438A609F
:100A300001688A6822F040528A6001688A68C36A45
:100A40001A4301E022F040528A6001688A6822F06D
:100A500002028A6001688A68037E42EA43028A6071
:100A600090F82010002901684A680FD042F4006213
:100A70004A6001684A6822F460424A6001684A6834
:100A8000174C436A04EB43331A4301E022F400623B
:100A90004A600168CA6A22F47002CA620168CA6ABE
:100AA000838B104C04EB03531A43CA6201688A68B3
:100AB00022F400728A6001688A6890F8303042EA55
:100AC00043228A6001688A6822F480628A60016831
:100AD0008A68406942EA8020886010BD0023014096
:100AE00000E0FFFF0000F0FF094808B5016841F091
:100AF00002010160006800F002000090054803F068
:100B000009F928200BF026F900F0AAF8002008BD0A
:100B100030380240D40500202DE9F05F82468B4634
:100B2000052400254C4803F093F970214A4803F04E
:100B30004BF9494803F0CAF9AC21474803F044F99E
:100B4000454803F0C3F93321434803F03DF94248D7
:100B500003F0BCF90021404803F036F93E4803F0A9
:100B6000B5F93D4803F093F950200BF0F3F806E097
:100B700005200BF0EFF8641EE4B200F071F800F00D
:100B80006FF8C00702D0002CF2D163E0002C61D0D6
:100B9000314803F05DF971212F4803F015F92E4813
:100BA00003F094F92C4803F0CFF82B4803F0F3F846
:100BB000294803F0C9F88146274803F0ECF8264895
:100BC00003F0C2F88046244803F0E5F8224803F019
:100BD000BBF80446204803F0DEF81F4803F0B4F8E1
:100BE00007461D4803F0D7F81B4803F0ADF806464A
:100BF000194803F015F9184803F049F945EA0905C1
:100C000048EA052144EA012000094FF47A7148437B
:100C1000000D00EE100AF2EE040A47EA0421B8EED5
:100C2000400A46EA0121C1F313004FF4FA6180EE55
:100C3000201A4843094901EB105000EE100A002029
:100C4000B8EE400A8AED001A80EE201A8BED001AE9
:100C5000BDE8F09F0120FBE7D40500200CFEFFFF5C
:100C600010B50B4803F0F4F87121094803F0ACF813
:100C7000074803F02BF9064803F066F804460448D9
:100C800003F0CEF8024803F002F9204610BD000040
:100C9000D405002010B504F0F9FC9FED091AF0EE20
:100CA000400A80EE810ADFED070A06F05DFBF7EEF1
:100CB000000A30EEC00ADFED040A20EE200A10BD63
:100CC00080E6C54701DE423E002A2D472DE9F0416E
:100CD0001D462DED068B14460E4607469DED0D8AEA
:100CE000DDED0C8A11FB06F012FB040000EE100A89
:100CF000B8EEC00A06F032FFF0EE400A00EE107ABD
:100D0000B8EEC00A06F082F8F0EE409A17FB07F042
:100D100014FB040000EE100AB8EEC00A06F01EFF35
:100D2000F0EE400A00EE106AB8EEC00A06F06EF867
:100D3000B0EE409A06F070FAF8EEE80A60EE208A0B
:100D4000B0EE490A06F042FEF0EE400A00EE105AFC
:100D5000B8EEC00A20EE80AAB0EE690A06F036FEB0
:100D60004AEE008AB0EE690A06F056FAF8EEC80AB2
:100D700020EE20AAB0EE490A06F028FE4AEE408A8C
:100D8000B0EE690A06F048FAF0EE400A00EE105A9A
:100D9000B8EEC00A20EE809AB0EE690A06F016FEA0
:100DA000F8EEC80A00EE809AB0EE680AF0EE490A42
:100DB00006F02CF810EE100AFFF787FC9FED091BD8
:100DC00053EC112BFFF793FB9FED081B53EC112BFA
:100DD000FFF7FFFBFFF78CFCBDEC068B00EE100A63
:100DE000BDE8F08100000000008066404AD8124D46
:100DF000FB21094070B500252C46154800F0DEFDAA
:100E00000521134800F084FD114800F023FD05443E
:100E10000F4800F039FE01200AF09CFF641CE4B288
:100E2000082CEAD3E8084000FFF742FC9FED091BBD
:100E300053EC112BFFF75BFB9FED081B53EC112BC1
:100E4000FFF755FBFFF754FC00EE100A70BD0000E1
:100E5000A00800206666666666660A40000000001C
:100E60000000303F86B04D4F4D4C4E4EDFF838817C
:100E7000DFF8389100254FF4FA7A00231A4603A9C7
:100E8000386823F00FFC00287ED104F029FB207085
:100E9000401E632800D925704548007828B902A86B
:100EA00002950AF0B6FF029830804248007838BBBD
:100EB00004A902A8FFF730FE9DED040A3E4910EE9A
:100EC000100A88421CD210EE100A3C49884217DAF8
:100ED000DDED020AF5EEC00AF1EE10FA10DD10EEBB
:100EE000900A374988420BDABDEEC00A10EE100AAC
:100EF000BDEEE00A88F8000010EE100A89F8000044
:100F00003048314A90F8301000EBC10151E902013C
:100F10005040694008433CD12C482178006814F0C7
:100F2000A6FB22782AA1684605F038FF2A486946C0
:100F300000681BF039FB328828A1684605F02EFFB7
:100F40002748694600681BF02FFB264898F90010D7
:100F5000006814F08CFB244899F90010006814F024
:100F600086FB98F900201DA1684605F017FF1F4871
:100F7000694600681BF018FB99F9002017A1684624
:100F800005F00CFF694600E003E0194800681BF01B
:100F90000BFB504623F04AFB6FE70000680000207F
:100FA000D5010020DA0100209801002099010020DD
:100FB0000400002001000020000020C10000484281
:100FC0000000C842A80B0020DC010020EC0100203A
:100FD0002532642525000000F4010020256400006E
:100FE0000802002010020020200200201802002029
:100FF00024020020FEE7000030B587B014216846C7
:10100000FFF7A5F91348016841F00201016001688A
:1010100001F002010591016841F0010101600068E1
:101020004FF4004400F0010005900120CDE900409C
:1010300002900320084D03906946284600F030FFD7
:1010400001222146284601F028F8044802F062FEF9
:1010500007B030BD3038024000000240C805002013
:10106000022000F023B800001CB501A80090042362
:10107000032215210C4802F053FF9DF804109DF83F
:10108000050001F00F0140EA01210748083801601E
:101090009DF807109DF806200F3102F00F0241EA7B
:1010A000022141601CBD0000C80500200246152138
:1010B000014802F079BF0000C80500200B46024637
:1010C0001521014802F09EBFC805002070B50A4DE9
:1010D0004FF4004400222146284600F0DEFF0A209B
:1010E00000F0BEFE01222146284600F0D6FFBDE8F2
:1010F0007040642000F0B4BE000002400321E520EF
:10110000FFF7DCBFFFF7E2BF10B50C460346497995
:10111000601E085C2B2806D02D280ED02A2816D059
:101120002F281ED026E0187D03EB800010ED020A68
:1011300050ED010A70EE200A1CE0187D03EB8000E0
:1011400010ED020A50ED010A70EE600A12E0187DFF
:1011500003EB800010ED020A50ED010A60EE200A58
:1011600008E0187D03EB800010ED020A10ED011A73
:10117000C0EE010A184604F0D5F8184604F0D2F87B
:10118000B0EE600A184604F0DDF82046BDE81040D5
:1011900004F0BDBF08B5264F264E274D00244FF062
:1011A00001084FF4FA793878E8B3244804803C7099
:1011B00000F0C2F8A8B196F8300006EBC00151E982
:1011C00002026840624010430BD026F08BFE0023E1
:1011D000CDF800801A460621286820F08DF92A46AD
:1011E0001DE000F0A9F8F0B996F8300006EBC00158
:1011F00051E9020268406240104314D128F0E2FC39
:10120000DFF83CA00023CDF800801A460621DAF86A
:10121000000020F071F907482DF04DFE52460023E2
:1012200004482DF058FE484623F000FABBE70000C2
:101230000E000020A80B00207800002018000020DD
:10124000DC01002088B02E4E2E4FDFF8BC80DFF886
:10125000BC902F4C00254FF4FA6A00BF96F830007E
:1012600006EBC00151E9020178406940084342D1D0
:10127000002202A9274801F029FC002207A92548DD
:1012800001F002FC9DF8092098F800108A420AD06B
:1012900088F8002020A1684605F080FD20486946B6
:1012A00000681BF081F99DF8082099F800108A4227
:1012B0000AD089F8002018A1684605F06FFD19488A
:1012C000694600681BF070F904F00AF920700146C5
:1012D000401E63280ED81448006814F0C8F922781C
:1012E00012A1684605F05AFD1248694600681BF0D5
:1012F0005BF900E02570504623F098F9AEE7000056
:10130000A80B002078000020D1010020D00100208F
:10131000D5010020E80800202530326400000000DC
:101320008C000020880000207C00002025326425ED
:1013300025000000840000200421014800F0A0BE28
:1013400000000240014800F019BC000060090020C4
:10135000014800F013BC00004C0A0020014800F0D6
:101360000DBC0000AC0A002001681823CAB2103A74
:10137000B2FBF3F2054B6FF30901032A9B5CC365D3
:1013800000D9091D81650846704700006C69040892
:1013900010B5014600208B698A6A4FF0C07453B1C2
:1013A000B3F5005F15D072B1012A0CD0022A0AD021
:1013B000032A09D104E01AB1012A06D0022A03D176
:1013C000C96AC90100D5012010BDC96AA142FAD07D
:1013D00010BD002AF7D0012AF2D0022AF3D0032A46
:1013E000F3D010BD30B50468256825F4802525604C
:1013F000046863608368402B036803D099600068C9
:10140000C26030BD9A600068C16030BD704710B5E1
:10141000292000F00DF84FF6FF7101EA0024282082
:1014200000F006F8204310BD002000F001B80000D5
:1014300002462421014802F0B7BD0000200600202A
:101440000B4602462421014802F0DCBD20060020A4
:1014500010B5052404E0642000F002FD641EE4B22F
:10146000FFF7E2FF362802D0002CF4D106E02CB1C1
:1014700000210120FFF7E4FF002010BD012010BD76
:1014800010B5052404E0642000F0EAFC641EE4B218
:10149000FFF7CAFF362802D0002CF4D106E02CB1A9
:1014A00008210120FFF7CCFF002010BD012010BD56
:1014B00038B519480524016841F00201016000684F
:1014C00000F002000090154802F024FC04E06420C3
:1014D00000F0C6FC641EE4B2FFF7A6FF362802D077
:1014E000002CF4D116E0ACB100210120FFF7A8FFD9
:1014F00000210820FFF7A4FF7F210A20FFF7A0FFAB
:1015000047210D20FFF79CFF00210E20FFF798FFD9
:10151000002038BD012038BD3038024020060020B0
:10152000024901204870000300F0AEBC0C0000200E
:10153000024901208870042000F0A6BC0C000020A5
:10154000102000F0A1BC202000F09EBC72B6FEE787
:1015500070B5104C00201421208084F8740004F130
:1015600024000546FEF7F3FE0BA060630AA0A0640A
:1015700009A0E06509A02067A01C12F099FDA11C3C
:1015800028462DF0A1FB064829468068BDE870403A
:1015900014F0A4BE040C00200A00000000000000AB
:1015A000CC040020054905E00A5C0AB10020704720
:1015B000401C80B21028F7D3012070477C0C00201B
:1015C000F0B50021304885B00A464254491CC9B2E2
:1015D0001129FAD300214318491CC9B283F86420A9
:1015E0001029F8D3FF2100F8741F274E41701024F2
:1015F000082700226946254801F068FA9DF8020094
:10160000FEF784FE5FF0000090FBF7F107FB11018D
:10161000491C3154401CA042F6DB0025FEF76CFE4D
:1016200095FBF7F107FB1151791A90FBF1F201FBE1
:1016300012002844A04200DD601E715D325C7255CC
:101640006D1C3154A542E9DB0F4A002014320E4CC8
:101650000F4E01460525431CB3FBF5F705FB173775
:101660001FB90CA742F82070D8B2635C491CC9B2FC
:1016700056F8233042F82030401CC0B21029EAD37B
:1016800005A0D06405B0F0BD7C0C0020E808002067
:10169000140500200A0000000000000070B50220C0
:1016A00004F0ECF90546012004F0E8F904460020B6
:1016B00004F0E4F944EA002145EA0120010201D5E1
:1016C00040F07F4070BD70B5052004F0D7F90546A5
:1016D000042004F0D3F90446032004F0CFF944EACF
:1016E000002145EA0120010201D540F07F4070BD94
:1016F00078B50024009490F83C20012A19D00122EA
:1017000080F83C200A6807230568092A13D9EE6887
:101710000A3A02EB420293409E43EE600B788A68DD
:101720000A3B03EB43039A400368DD682A43DA600F
:1017300010E0022078BD2E6902EB420293409E43E6
:101740002E610B788A6803EB43039A4003681D6996
:101750002A431A614A681F23072A13D205686E6B51
:10176000521E02EB820293409E436E630A8893B23C
:101770000A79521E02EB820293400268556B2B439A
:10178000536327E005680D2A12D22E6BD21F02EB9D
:10179000820293409E432E630B790A88DB1F92B22C
:1017A00003EB83039A4003681D6B2A431A6311E01D
:1017B000EE6A0D3A02EB820293409E43EE620B7991
:1017C0000A880D3B92B203EB83039A400368DD6AFB
:1017D0002A43DA621B4B0568194A9D420AD10D68FB
:1017E000122D07D1556825F400055560556845F45C
:1017F0008005556005689D421DD1134D0B68AB42B5
:1018000001D0112B17D1536823F480035360536820
:1018100043F4000353600968A9420CD10B490C4AF8
:101820000968B1FBF2F101EB8101490000E0491EBA
:1018300000910029FBD180F83C40002078BD0000D9
:10184000002301400020014012000010BC050020D0
:1018500040420F000068C06C704770B504004FF044
:10186000000503D0206C002610B107E0012070BDF8
:10187000204600F01DF8666484F83C60206CC006C9
:1018800010D4206C20F4885040F0020020642046E0
:10189000FFF796F86664206C20F0020040F001002B
:1018A000206400E0012584F83C60284670BD0000FB
:1018B00010B586B0044614216846FEF748FD11496C
:1018C000206888421CD110480021026842F48072CE
:1018D0000260006800F4807005900B4814380268BC
:1018E00042F001020260006800F001000590022051
:1018F00000900320CDE901016946044800F0D0FAC8
:1019000006B010BD002001404438024000000240F3
:101910002DE9F041044600680D4681684FF000074C
:1019200049050BD58068C00508D5206C40F0200023
:10193000206484F83C700120BDE8F08100F0B2FB27
:10194000064613E0681C11D025B100F0ABFB801BEC
:10195000A8420BD920680068800707D4206C40F0AB
:101960000400206484F83C700320E5E720680068E8
:101970008007E7D521686FF012000860206C40F402
:10198000007020642068816811F0405F13D1217ECF
:1019900089B9C16A11F4700F02D0806840050AD479
:1019A000206C20F480702064206CC00403D4206C70
:1019B00040F0010020640020BEE7000018B50021BF
:1019C000009190F83C20012A07D0012280F83C20A9
:1019D00002689368DB0702D011E0022018BD93680B
:1019E00043F001039360244A244B1268B2FBF3F2E4
:1019F00002EB420200E0521E0092002AFBD1026874
:101A00009368DB072ED0036C40F20164A34343F4D8
:101A10008073036453685B0505D5036C23F400539E
:101A200043F480530364036CDB0404D5436C23F05C
:101A30000603436400E0416480F83C1010496FF0F5
:101A40002203136049680068C90602D00D49884224
:101A500010D1816811F0405F0CD1816841F0804164
:101A6000816007E0016C41F010010164416C41F0BC
:101A700001014164002018BDBC05002040420F0058
:101A8000002301400020014090F83C1001290CD0B7
:101A9000012180F83C1001688A6822F001028A6006
:101AA00001688968C90702D007E002207047016C0D
:101AB00021F4885141F001010164002180F83C10BB
:101AC000084670472DE9F0410446876D00F0EAFAB8
:101AD000064694F835000025022806D0802060656F
:101AE00084F834500120BDE8F0812068016821F0BD
:101AF000160101602068416921F080014161206C7C
:101B000008B9A06C20B12068016821F008010160CB
:101B10002068016821F0010101600CE000F0C2FAC8
:101B2000801B052807D920206065032084F8350034
:101B300084F83450D7E720680068C007EED194F8E5
:101B40005C103F208840B860012084F8350084F89C
:101B500034500020C7E790F83510022903D08021C7
:101B6000416501207047052180F835100068016843
:101B700021F0010101600020704700002DE9F843C9
:101B800004464FF00009CDF8009063484FF4165119
:101B9000A56D0068B0FBF1F72E6894F85C10082082
:101BA00000FA01F131420FD021680A6852070BD5C3
:101BB0000A6822F004020A6094F85C108840A86069
:101BC000606D40F00100606594F85C104FF0010812
:101BD00008FA01F0304208D021684969090604D5A5
:101BE000A860606D40F00200606594F85C1004200D
:101BF0008840304208D021680968890704D5A86068
:101C0000606D40F00400606594F85C10102088401E
:101C1000304218D021680968090714D5A8602068E7
:101C20000168490304D50068000308D5A16C07E0EA
:101C30000168C90503D4016821F008010160216C25
:101C400009B12046884794F85C1020208840304233
:101C500031D021680968C9062DD5A86094F83500EF
:101C600005282068016806D0490347D500680003AD
:101C70001DD4616C1CE021F01601016020684169EF
:101C800021F080014161206C08B9A06C20B120686E
:101C9000016821F00801016094F85C103F20884041
:101CA000A86084F8358084F83490216D1FE0E16BE2
:101CB00009B120468847606D00282BD0606DC007B1
:101CC00014D0052084F835002068016821F0010156
:101CD00001600098401C0090B84203D8206800685A
:101CE000C007F6D184F8358084F83490E16C00297F
:101CF00010D001B02046BDE8F04308470168C9058F
:101D0000D5D4016821F01001016084F8358084F891
:101D10003490CCE7BDE8F883BC0500202DE9F04104
:101D2000044600F0BFF906465CB1022084F8350095
:101D3000002584F834502068016821F00101016019
:101D40000DE00120BDE8F08100F0ACF9801B052812
:101D500005D920206065032084F83500F2E720686B
:101D60000068C007F0D12268116820480140D4E91A
:101D700001031843D4E90336334318436369184316
:101D8000A3691843E3691843236A18430843616A47
:101D9000042903D1D4E90B131943084310602068C8
:101DA0004069666A20F0070130460E430127042887
:101DB0000CD1A06A0643E06A40B12046FFF7E8FA7A
:101DC00020B14020606584F83570BAE7206846612C
:101DD0002046FFF7C9FA94F85C203F2191408160CA
:101DE000656584F835700020ACE700003F8010F096
:101DF0002DE9F0410446866D90F834000025012855
:101E00000DD0012084F8340094F835700020012FA3
:101E100007D084F8340002252846BDE8F08102206E
:101E2000FBE7022784F8357060652046FFF7DAFA91
:101E300094F85C103F208840B0602068016841F051
:101E400016010160206C20B12068016841F0080192
:101E500001602068016841F001010160DCE70000D9
:101E600070B5044600F01EF90546601C02D0044817
:101E70000078044400F016F9401BA042FAD370BD6C
:101E8000B005002070470000044910B50A680242FE
:101E900002D00860FFF7F6FF10BD0000143C0140BF
:101EA0002DE9F84FDFF8B8A10022012403254FF0F7
:101EB0000F090AF1040BAAF1040E00BF0B6804FA23
:101EC00002F63340B34273D10F7907F00307012FB5
:101ED00001D0022F16D187684FEA420805FA08FCA4
:101EE00027EA0C07D1F80CC00CFA08FC4CEA070CE6
:101EF000C0F808C04768B7430E79C6F3001696408D
:101F00003E4346600E79F643B6070DD0C7685600CB
:101F100005FA06FC27EA0C07D1F808C00CFA06FC03
:101F20004CEA070CC0F80CC00E7906F00306022E2E
:101F300010D1D60800EB8608D8F8206057074FEA82
:101F4000D76C09FA0CF7BE430F6907FA0CF7374351
:101F5000C8F8207006684FEA420C05FA0CF7BE4339
:101F60000F7907F0030707FA0CF7374307604E684D
:101F700016F4403F6DD03B4E376847F480473760DA
:101F8000366822F0030706F480460096364E07EBCB
:101F9000060CDCF8086897073F0F09FA07F826EAED
:101FA0000806DFF8C880404503D14FF000081EE066
:101FB0004FE0DFF8BC80404502D14FF0010816E049
:101FC000DFF8B080404502D14FF002080FE0DFF8A3
:101FD000A880404502D14FF0030808E0DFF89C805C
:101FE000404502D14FF0040801E04FF0070808FA1D
:101FF00007F848EA0608CCF80888DAF8006057467F
:10200000D1F804C09E435FEACC2C00D51E433E604D
:10201000DBF800605F46D1F804C09E435FEA8C2C79
:1020200000D51E433E60DEF800607746D1F804C05C
:102030009E435FEA8C3C00D51E433E60084F083F3C
:102040003E68D1F804C09E435FEACC3C00D51E43F5
:102050003E60521C102AFFF431AFBDE8F88F00003B
:10206000083C01404438024000300140000002407A
:102070000004024000080240000C02400010024030
:102080000069084000D001207047426921EA02033C
:102090000A4043EA0241816170470AB18161704799
:1020A0000904FBE70148806870470000B005002084
:1020B000024881680278114481607047B0050020B1
:1020C0000B4810B5016841F400710160016841F4EA
:1020D00080610160016841F480710160032000F0BB
:1020E00099F80F2000F006F800F04AF8002010BD23
:1020F000003C024030B505461C4887B0002401680A
:1021000041F001010160006806A900F001000090A3
:1021100001A800F0F1F900F01FFA1549154AB0FBCB
:10212000F1F11548491E026040F2E732C0E903248C
:10213000C0E90114846101F059F8040012D10E487D
:1021400001F082F804000DD1192000F035F8102DAF
:1021500007D200222946192000F03CF80748056004
:1021600000E0012407B0204630BD000044380240A2
:1021700040420F0000000140280B0020B405002061
:102180000C4882B0016841F480410160006800F4AD
:10219000804000900748001F016841F080510160B5
:1021A0000068002200F0805000900F21901E02B0C5
:1021B00000F010B844380240002809DB00F01F028C
:1021C000012191404009800000F1E020C0F8001199
:1021D00070470000F0B40E4B1B680C46C3F302239B
:1021E000C3F10705042D00D90425191D072901D2C3
:1021F000002300E0DB1E012606FA05F1491E2140FE
:1022000099409E40761E16403143F0BC04F0EDBD6F
:102210000CED00E0064900F0070208684FF6FF03E6
:10222000184040EA0220034A10430860704700004B
:102230000CED00E00000FA050B4A136823F00303DD
:10224000034313600948026842F004020260012956
:1022500007D040BF20BF20BF016821F0040101600A
:10226000704730BFF8E700000070004010ED00E05C
:102270002DE9F843044600684FF00109C1074FF00B
:10228000000601D1400729D5DFF82081C8F8686031
:10229000FFF708FF0746464D05E000BFFFF702FFC6
:1022A000C01B022859D828680001F7D4A068217BF8
:1022B000800140EA0170616808433D49843108604B
:1022C000C8F86890FFF7EEFE074604E0FFF7EAFE65
:1022D000C01B022841D828680001F7D52078800764
:1022E00052D533484030016841F0805101600068A8
:1022F000304D00F080500090286840F480702860D5
:10230000FFF7D0FE074604E0FFF7CCFEC01B022813
:1023100023D82868C005F7D5254D7035286810F4F6
:10232000407020D0218A01F4407181421BD028687E
:10233000214920F44070C1F800900E6028602868A0
:10234000C00710D0FFF7AEFE064641F2883707E01F
:10235000FFF7A8FE801BB84202D90320BDE8F8832E
:1023600028688007F4D521691148C1F3012208309B
:10237000032A12D0016821F4F81101602868218A2B
:10238000C1F30B01084328602078000703D50B49EF
:10239000207DC1F8E0010020E0E70268084B22F44C
:1023A000F81219400A430260E8E7000000004742C3
:1023B0000038024000700040400E47420010474283
:1023C000FFFCFF0F2DE9F0470E46050065D0DFF852
:1023D0001481D8F80000F7B200F00700B04207D22D
:1023E00088F80070D8F8000000F00700B04254D11F
:1023F00028683D4C810712D5400703D5206840F47A
:10240000E05020602878000703D5206840F4604041
:1024100020602068A96820F0F00008432060287838
:10242000C0072DD0304968680839012812D0022829
:1024300013D0032811D00968890700292DDA2168F3
:1024400021F0030101432160FFF72CFE814641F298
:10245000883A0EE009688903EFE709688901ECE72B
:10246000FFF720FEA0EB0901514502D90320BDE88A
:10247000F0872068696800F00C00B0EB810FEFD1A5
:10248000D8F80010404601F00701B14207D90770A3
:10249000006800F00700B04201D00120E7E728788B
:1024A000400705D52068E96820F4E0500843206023
:1024B0002878000706D52068296920F4604040EAA2
:1024C000C100206000F058F82168084AC1F30311E8
:1024D000515CC8400649086006480068FFF70AFEDC
:1024E0000020C4E7003C0240083802407469040838
:1024F000BC050020B40500200F2202600C4A1368BE
:1025000003F003034360136803F0F0038360136870
:1025100003F4E053C36012684FF4E05303EAD202BD
:1025200002610448006800F007000860704700007E
:1025300008380240003C0240044805490068096828
:10254000044AC1F38221515CC8407047BC05002099
:10255000083802408469040804480549006809688D
:10256000044AC1F34231515CC8407047BC050020A9
:102570000838024084690408154810B5006810F056
:102580000C02144813D01449042A0FD0082A0ED183
:102590000F4C241F2268236802F03F025B0207D51C
:1025A0002068C0F38810A0FB010106E0084610BDBA
:1025B0002168C1F38811A1FB00010023FDF76AFE29
:1025C0002168C1F30141491C4900B0FBF1F010BD85
:1025D000083802400024F40040787D012DE9F84FCE
:1025E00004006ED02078DFF84C93C007A9F10405F1
:1025F0004AD009F104000168C1F38101012908D022
:102600000068C0F3810002280AD1D9F80000400216
:1026100006D52868800337D560680028E1D033E00C
:102620006068B0F5803F10D0B0F5A02F286810D0BA
:1026300020F480302860286820F4802028606068BA
:10264000A8B1FFF72FFD06460DE0286840F4803062
:10265000F4E740F480202860F7E700BFFFF722FD91
:10266000801B642873D828688003F7D50CE0FFF737
:1026700019FD064605E000BFFFF714FD801B642826
:10268000F0D828688003F7D42078DFF8AC82800780
:102690004FF0000A3ED5A748001D016811F00C0F4D
:1026A00008D00068C0F3810002280BD1D9F80000DF
:1026B000400207D42868800716D5E068012800D1B9
:1026C00012E033E1E068B8B10120C8F80000FFF77C
:1026D000E9FC064605E000BFFFF7E4FC801B02288A
:1026E000C0D828688007F7D52868216920F0F8004D
:1026F00040EAC10028600DE0C8F800A0FFF7D2FC56
:10270000064604E0FFF7CEFC801B02281FD828688D
:102710008007F7D42078000722D5864F8748616963
:10272000703771B101210160FFF7BCFC064604E07F
:10273000FFF7B8FC801B022809D838688007F7D556
:102740000EE0C0F800A0FFF7ADFC064605E082E011
:10275000FFF7A8FC801B02287DD838688007F7D4D3
:102760002078400768D5DFF8CCB100270BF13C0B8F
:10277000DBF80000C0000BD4DBF8001041F0805102
:10278000CBF80010DBF80000012700F0805000902B
:102790006B4E3068C00510D4306840F480703060F3
:1027A000FFF780FC009005E0FFF77CFC0099401AE1
:1027B000022850D83068C005F6D55E4EA0686C3649
:1027C00001280FD00528306810D020F001003060BB
:1027D000306820F004003060A068B8B1FFF762FCF8
:1027E00000900FE0306840F00100F4E740F0040092
:1027F0003060F7E7FFF756FC0099411A41F2883044
:10280000814266D830688007F4D50EE0FFF74AFCB5
:10281000009007E0FFF746FC0099411A41F288302A
:10282000814256D830688007F4D42FB1DBF800100D
:1028300021F08051CBF80010A069C8B33D49091DB3
:102840000968C1F3810102294AD00228504607D005
:10285000C8F8600000E03CE0FFF724FC04463BE0E1
:102860004746C8F86000FFF71DFC064605E000BFBC
:10287000FFF718FC801B02282BD828688001F7D4AA
:10288000D4E907010843A16A2E4A490802EB014135
:10289000626A41EA8211084394F82C1040EA01610F
:1028A000C9F8001001203866FFF7FCFB044606E07B
:1028B0003EE000BFFFF7F6FB001B022809D828689E
:1028C0008001F7D534E000BFFFF7ECFB001B0228C6
:1028D00002D90320BDE8F88F28688001F4D427E0EE
:1028E0000128F7D0D9F80000E26900F48001914294
:1028F0001CD1226A00F03F01914217D147F6C07106
:10290000626A0140B1EB821F10D1A26A4FF0FF331F
:1029100000F4403103EB5202B1EB024F06D194F8C0
:102920002C1000F07060B0EB016F01D00120D1E7F6
:102930000020CFE70438024000004742800E4742A3
:10294000007000400000FFFF0068503050F8210088
:1029500070470068503040F8212070472DE9F84753
:102960008A4639494FF4FA4C91460F684FF47A720F
:10297000B7FBFCF151430091017F012962D0012591
:102980000577022141770268CA215162026853210A
:10299000516201688A684FF0000352054FF0FF044E
:1029A0004FF0030608D5009AB2F10108CDF8008077
:1029B00018D3CA685207F6D48A6822F480628A6003
:1029C0000168CA6802F0800262F49062CA60B7FBD4
:1029D000FCF14FF47A72514300910168009A571E3E
:1029E000009705D24C62467703770320BDE8F8874D
:1029F000CA685207F2D58A6822F007028A60016825
:102A00008A6842EA09028A600268C2F814A00F4983
:102A10000A6842F480020A600C4908310A6842F4EC
:102A200080020A6001688A6842F480428A60016814
:102A30008A6842F480628A6001684C624577037755
:102A40000020D3E70220D1E7BC050020003C014074
:102A50007047000010B504460068C068400509D5FD
:102A60002046FFF7F5FF2068C16801F0800161F49E
:102A70009061C16003494FF48000086001206077D5
:102A800010BD0000143C014010B500680B464168C1
:102A90000D480140080CD870C1F304245C7001F0AB
:102AA0003F049C70C1F34231197052B902F044FEE8
:102AB000D870587802F040FE5870987802F03CFECA
:102AC0009870002010BD00003FFFFF0010B50B46BE
:102AD0000168896A596001680969C1F30E0199604A
:102AE000006801680D480140C1F305401870C1F34A
:102AF00006245C7001F07F049C70890DD97052B976
:102B000002F01AFE1870587802F016FE5870987885
:102B100002F012FE9870002010BD00007F7F7F0041
:102B200010B5040002D0607F10B106E0012010BD96
:102B300000202077204600F039F8022060772168D5
:102B4000CA204862216853204862204602F00AFEEB
:102B500030BB20688168144A114081602168886810
:102B600062681043D4E904231A4310438860216843
:102B7000E068086120680169228941EA0241016137
:102B8000204602F013FE58B921680A6C22F4802214
:102B90000A6421680A6CA3691A430A6401216177F7
:102BA0002268FF21516210BDBFFF8FFF10B586B0B4
:102BB000044618216846FDF7CAFB0D492068884283
:102BC00014D102200090C00104906846FFF750FB2A
:102BD00008B1FEF7BBFC074901200860002205216F
:102BE0000320FFF7F7FA0320FFF7E6FA06B010BD5F
:102BF000002800403C0E474270B50446007F0B465B
:102C0000012819D00126267702206077B2B1987882
:102C1000D97840EA014558781978000240EA4130F5
:102C200005432168CA204862216853204862204633
:102C300002F098FDD0B122E0022070BD5878C106A4
:102C400003D500F0EF000A305870D87802F07DFD0F
:102C50000204587802F079FD42EA0022987802F0E6
:102C600074FD0243187842EA4035DAE70748054028
:102C700020684560204602F099FD00B96677226819
:102C8000FF2151620021217770BD00003FFFFF004E
:102C90002DE9F0410446007F0D46012823D04FF076
:102CA000010884F81C800220607720680027806873
:102CB0004FEA4060D2B1002800DBEF70A878297895
:102CC00040EA01466878E978000240EA815006430C
:102CD0002168CA204862216853204862204602F0D9
:102CE00041FDB8B12CE00220BDE8F081002800DBF6
:102CF000EF70287802F029FD0204687802F025FDC3
:102D000042EA0022A87802F020FD0243E87842EA75
:102D10008056DDE70D48064020680660206881681F
:102D200021F480218160D5E90301084321688A6884
:102D300010438860204602F039FD08B984F81D80F0
:102D40002268FF2151622777CEE700007F7F7F0056
:102D500070B504460068C16821F0A001C160FFF7AA
:102D6000A1F905464FF47A7607E000BFFFF79AF91C
:102D7000401BB04201D9032070BD2068C0688006A6
:102D8000F4D5002070BD704770B5040009D0606AAA
:102D9000002540B125616561A56294F8510040B1FC
:102DA0000CE0012070BD6068B0F5827FF4D0E56171
:102DB000F2E784F85050204600F044F8022084F8EE
:102DC00051002068016821F040010160A08821893C
:102DD00000F4827001F404410843A18901F4006108
:102DE0000843217C01F002010843217D01F001012B
:102DF0000843218B01F400710843217F01F0380161
:102E0000084394F8201001F080010843218D01F45B
:102E10000051084321680860A069042101EA1040BC
:102E200094F8241001F010010843216848602068DC
:102E3000C16921F40061C1616565012084F8510018
:102E4000002070BD70B586B0064614216846FDF7B7
:102E50007EFA2049306888423AD11F48002501682F
:102E600041F480510160006800F4805005901A48D8
:102E70001438016841F0020101600068694600F001
:102E800002000590282000900220CDE901050320D2
:102E90000390052004901148FFF702F8114C1048E8
:102EA00020604FF0806060604020C4E902050001AE
:102EB0002061400060618000C4E90605256220466B
:102EC0006562FEF72BFF08B1FEF740FBB464A66312
:102ED00006B070BD0030014044380240000402409A
:102EE00040640240600900202DE9F84F044690F844
:102EF000500000271D461646894601280DD04FF088
:102F0000010B84F850B0FFF7CDF8804694F85100DB
:102F1000BA46012804D0022793E00220BDE8F88FCA
:102F2000B9F1000F73D0002E71D0032084F8510046
:102F3000C4F854A0C4F83090A686E686C4F838A039
:102F4000A4F83CA0A4F83EA0C4F844A0C4F840A053
:102F5000A068B0F5004F09D12068016821F0400158
:102F600001602068016841F48041016020680168C7
:102F7000490603D4016841F040010160E068B0F502
:102F8000006F606803D030B3012E24D041E008B157
:102F9000012E1CD1206B21680088C86006E02068E3
:102FA0008168890709D5216B0988C160206B801C65
:102FB0002063E08E401EE08609E0FFF773F8A0EB87
:102FC0000800A84202D3681C01D031E07DB3E08E36
:102FD0000028E4D120E0206B21680078087306E027
:102FE00020688168890709D5216B09780173206BF6
:102FF000401C2063E08E401EE0860AE0FFF752F896
:10300000A0EB0800A84203D3681C02D010E017E030
:103010006DB1E08E0028E3D142462946204602F0F9
:10302000A5FC08B120206065A06818B106E0FFE7A4
:10303000032706E02068C16880680090606D00B1D9
:10304000012784F851B084F850A0384666E70000A4
:103050002DE9F041044690F850000026012809D0DF
:10306000012784F8507094F851000025012804D0FD
:1030700002264EE00220BDE8F08189B182B1032032
:1030800084F8510065652163A286E286A5636564C4
:103090002564A587E587A068B0F5004F02D00BE056
:1030A000012636E02068016821F0400101602068B7
:1030B000016841F480410160A16C18480864A16C6A
:1030C0001748C863A16C1748C864A06C0565E38EF7
:1030D0002268216B0C32A06CFEF78AFE38B1606D5D
:1030E00040F010006065012684F8517011E02068FE
:1030F0000168490603D4016841F04001016020687D
:10310000416841F0200141602068416841F00201BE
:10311000416084F850503046ADE70000FD5800088B
:1031200007590008DB580008704770474FF0E0214E
:103130000428086903D020F004000861704740F0BB
:103140000400FAE710B5401EB0F1807F01D30120E2
:1031500010BD4FF0E02460610F21601703F045FEC1
:103160000020A06107202061002010BD704770473B
:1031700070B590F83C20012A2CD0012480F83C4006
:10318000022280F83D2003685A689D6822F070068C
:103190000A6832435A60104B02689A420ED0B2F16C
:1031A000804F0BD00D4B9A4208D00D4B9A4205D060
:1031B0000C4B9A4202D00C4B9A4204D1496825F03C
:1031C00080031943916080F83D40002180F83C1055
:1031D000084670BD022070BD0000014000040040A0
:1031E00000080040000C00400040014010B5040001
:1031F00003D094F83D0010B107E0012010BD00207D
:1032000084F83C00204600F01EF8022084F83D00BF
:10321000211D206803F00CF8012084F8460084F892
:103220003E0084F83F0084F8400084F8410084F8B0
:10323000420084F8430084F8440084F8450084F890
:103240003D00002010BD704790F83D10012901D0CD
:1032500001207047022180F83D100168CA6842F0E1
:103260000102CA6000680E4988420ED0B0F1804F5A
:103270000BD00C49884208D00B49884205D00B4935
:10328000884202D00A49884204D1816801F00701CE
:10329000062903D0016841F0010101600020704758
:1032A000000001400004004000080040000C004005
:1032B00000400140704770B50446006801694FF056
:1032C0000005C943890715D4C168C943890711D4CA
:1032D000E91E01610120207720688069800720466F
:1032E00002D0FFF7E7FF04E000F0C0F8204600F04E
:1032F00065F9257720680169C943490717D4C16872
:10330000C943490713D46FF00401016102202077FB
:103310002068806910F4407F204602D0FFF7CAFF82
:1033200004E000F0A3F8204600F048F92577206873
:103330000169C943090716D4C168C943090712D4F2
:103340006FF008010161042020772068C0698007C0
:10335000204602D0FFF7AEFF04E000F087F82046D9
:1033600000F02CF9257720680169C943C90617D4F4
:10337000C168C943C90613D46FF010010161082068
:1033800020772068C06910F4407F204602D0FFF704
:1033900091FF04E000F06AF8204600F00FF925776D
:1033A00020680169C943C90708D1C168C943C90771
:1033B00004D1891E0161204600F05AF92068016994
:1033C000C943090609D4C168C943090605D46FF089
:1033D000800101612046FFF7C9FE20680169C943E9
:1033E000490609D4C168C943490605D46FF04001B4
:1033F0000161204600F046F920680169C943890649
:103400000BD4C168C943890607D46FF0200101615C
:103410002046BDE87040FFF7AABE70BD10B586B06B
:10342000044614216846FCF792FF0D492068884243
:1034300014D10C480021026842F0020202600068C8
:1034400000F002000590012000900220CDE901016A
:10345000CDE9031069460448FEF722FD06B010BD11
:10346000000400403038024000040240704770B54C
:10347000044690F83C0000260D4601280FD001209C
:1034800084F83C006AB1042A1DD0082A2FD00C2AE7
:103490003FD00126002084F83C00304670BD022059
:1034A00070BD206802F01EFF2068816941F00801AC
:1034B00081612068816921F004018161206881694E
:1034C0002A69114311E0206802F034FF2068816905
:1034D00041F4006181612068816921F4806181612A
:1034E000206881692A6941EA02218161D2E7206866
:1034F00002F04CFF2068C16941F00801C1612068F9
:10350000C16921F00401C1612068C1692A691143C0
:1035100011E0206802F066FF2068C16941F4006193
:10352000C1612068C16921F48061C1612068C169FD
:103530002A6941EA0221C161ACE710B5040003D059
:1035400094F83D0010B107E0012010BD002084F880
:103550003C00204600F01EF8022084F83D00211DAA
:10356000206802F065FE012084F8460084F83E00E1
:1035700084F83F0084F8400084F8410084F8420059
:1035800084F8430084F8440084F8450084F83D0042
:10359000002010BD08B500680649884208D10648D9
:1035A000016841F002010160006800F00200009033
:1035B00008BD000000040040403802407047000091
:1035C00010B50446022249B104290ED0082913D0AF
:1035D00094F84100012816D0012010BD94F83E0057
:1035E0000128F9D184F83E200FE094F83F0001282B
:1035F000F2D184F83F2008E094F840000128EBD194
:1036000084F8402001E084F841200122206802F083
:103610005BFE12492068884203D1426C42F40042AA
:103620004264206888420ED0B0F1804F0BD00C4924
:10363000884208D00B49884205D00B49884202D005
:103640000A49884204D1816801F00701062903D0A4
:10365000016841F001010160002010BD000001403F
:103660000004004000080040000C00400040014001
:1036700000680349884201D1FEF71ABD7047000077
:10368000000001407047704710B50446006840696B
:1036900094F83D10C0F3C010212911D180B12068E9
:1036A000143050E8001F21F0800140E80012002A89
:1036B000F5D1606B08B1FEF705FA204603F0C4F8B7
:1036C0002068406994F83E10C0F38010222911D17F
:1036D00080B12068143050E8001F21F0400140E81C
:1036E0000012002AF5D1A06B08B1FEF7EBF92046D5
:1036F00003F083F8002010BD70470000F8B50168A2
:1037000004460868CA684B6910F00F0F4FF00005B7
:1037100059D003F0010602F49077374365D0C10712
:1037200005D0D10503D5216C41F001012164410789
:1037300005D5D90703D0216C41F00201216481072E
:1037400005D5D90703D0216C41F00401216401079C
:1037500007D502F02001314303D0216C41F008016C
:103760002164216C00293AD0800604D5900602D548
:10377000204603F077F820684069216CC0F3801080
:10378000090700D460B3204603F037F82068406989
:10379000400621D52068143050E8001F21F0400178
:1037A00040E80012002AF5D1A06BA8B16C49016570
:1037B000A06BFEF7D0F9002811D0A06B016D01B00D
:1037C000BDE8F040084783060FD593060DD5204687
:1037D000BDE8F84003F046B82046FFF78DFFF8BD7E
:1037E0002046FFF789FF2564F8BD266B2023012EB4
:1037F00079D1C60677D5D60675D508684868009091
:103800004869400640D5A16B086840680004000C78
:10381000EAD0A28D8242E7D9E085C869B0F5807F01
:103820002DD020680C3050E8001F21F4807140E852
:103830000012002AF5D12068143050E8001F21F052
:10384000010140E80012002AF5D12068143050E848
:10385000001F21F0400140E80012002AF5D184F851
:103860003E30256320680C3050E8001F21F0100125
:1038700040E80012002AF5D1A06BFEF723F9A08DD5
:10388000E18D401A81B229E0A08DE18D401A81B20C
:10389000E08D0028A8D00029A6D020680C3050E880
:1038A000002F22F4907240E80026002EF5D1206807
:1038B000143050E8002F22F0010240E80026002ECC
:1038C000F5D184F83E30256320680C3050E8002F95
:1038D00022F0100240E80023002BF5D12046FFF72C
:1038E000D2FEF8BDFFE705062BD5150629D594F8BD
:1038F0003D002128F5D1A068B0F5805F01D1206995
:10390000B0B1206A411C2162216800784860E08CD7
:10391000401E0004000CE084E3D12068C16821F05F
:103920008001C1602068C16841F04001C160D8E7F2
:10393000206A0088C0F308004860206A801C20626A
:10394000E5E74006CDD55006CBD5CA68204622F023
:103950004002CA6084F83D3000F01BF9C1E7000066
:103960000567000870B5040004D094F83D000025F8
:1039700010B106E0012070BD84F83C50204600F0F4
:1039800023F8242084F83D002068C16821F4005108
:10399000C160204602F0C6FF2068016921F4904111
:1039A00001612068416921F02A0141612068C168F4
:1039B00041F40051C1602564202084F83D0084F862
:1039C0003E00002070BD00002DE9F04186B00646A3
:1039D00014216846FCF7BBFC30493068884259D155
:1039E0002F480024016841F010010160006800F0D8
:1039F000100005902A481438016841F00101016067
:103A00000068694600F0010005904FF4C060009026
:103A10000220CDE9010403200390072004902148EF
:103A2000FEF73EFA214D20484FF000672860C5E9B7
:103A300001744FF48068C5E903486C61AC61EC61C6
:103A40002C6228466C62FEF769F908B1FDF77EFD2D
:103A5000B563AE63154D144860353030E5E80207B4
:103A60004020A5E81101114845F814496030AC61C7
:103A7000EC612C626C62FEF751F908B1FDF766FD4E
:103A80007563002205212520AE63FEF7A3FB2520E8
:103A9000FEF792FB06B0BDE8F08100000010014087
:103AA0004438024000000240886402404C0A002072
:103AB00090F83E30202B0ED159B152B190F83C30E5
:103AC000012B08D0012380F83C300023036302F06F
:103AD000AFBF012070470220704770477047000059
:103AE0002DE9F843044690F83D001F4616460D4662
:103AF00020284CD1C5B1BEB194F83C00012846D075
:103B0000012084F83C004FF00008C4F840802120D8
:103B100084F83D00FEF7C6FAA6848146E684A068D4
:103B2000B0F5805F03D004E00120BDE8F883206990
:103B300028B12E465FF0000584F83C800EE0002698
:103B4000FAE78021204602F0BDFFA0B9AEB116F819
:103B5000010B21684860E08C401EE084E08C4B46FD
:103B60004FF0000200970028EBD14FF040012046B3
:103B700002F0A8FF30B10320D7E735F8020BC0F3FD
:103B80000800E6E7202084F83D000020CDE7022071
:103B9000CBE770471CB500251F4E204FDFF8808013
:103BA0008DF8045096F8300006EBC00151E902018F
:103BB0007840694008432AD11A480123002201A90C
:103BC000006820F0CDFDFDF75BFC17480078F0B9E8
:103BD0002BF07CFBFDF71BFC1449096800F02CF866
:103BE000C4B22CF02BF998F80010A1420FD0322C5F
:103BF0000DD9782C0BD2224688F800400CA16846DB
:103C000003F0CCF80B486946006818F0CDFC322070
:103C100020F00CFDC6E70000A80B00209402002055
:103C20009002002064000020030000201400002007
:103C3000256400009802002070B504460D462B480C
:103C400010F0EDFB10B1294808F0A8F82748203003
:103C500010F0E5FB18B12548203008F09FF8234804
:103C6000403010F0DCFB18B12048403008F096F8E6
:103C700021461E480DF09CFB1C48294620300DF0C3
:103C800097FB1A481A4CD0E9032191422CD3826841
:103C9000914229D34268914226D94269914223D365
:103CA0008269914220D3C06981421DD90F48A11C6D
:103CB000203002690888131AB3F5D57F14D34880E1
:103CC00092B20A80101A4EF6602191FBF0F107487B
:103CD00040300DF06DFB05484030C16921B107212E
:103CE000001D00F009F82070207870BDF40C002051
:103CF0002C060020FEE7000010B5002205E000BF02
:103D000050F82240521C2344D2B28A42F8D3B3FB6B
:103D1000F1F010BD10B586B0044614216846FCF7DA
:103D200016FB208900900120019002900220039050
:103D300069462068FEF7B4F86089009069466068BB
:103D4000FEF7AEF806B010BD70B506460824002593
:103D500001F090FD13E06806050E0021304601F0E9
:103D600077FD022008F003F80121304601F070FDD4
:103D7000012007F0FCFF304601F073FD0543641E8F
:103D8000E4B2E8D20021304601F062FD304601F095
:103D90008FFD284670BD10B50446002101F07FFD5F
:103DA000012007F0E4FF0121204601F051FD012030
:103DB00007F0DDFF0021204601F04AFDBDE810407C
:103DC000012007F0D4BF000070B50C460646082558
:103DD00019E000BF01F03CFD022007F0C8FF04F02D
:103DE0008001304601F05BFD012007F0C0FF600656
:103DF000040E012007F0BBFF0121304601F028FD31
:103E0000012007F0B4FF6D1EEDB24FF00001304607
:103E1000E0D201F01DFDBDE87040022007F0A7BF11
:103E200010B50446012101F03AFD012007F09FFF83
:103E30000121204601F00CFD012007F098FF002130
:103E4000204601F005FDBDE81040022007F08FBFBD
:103E500010B50446012101F022FD022007F087FF82
:103E60000121204601F0F4FC012007F080FF002131
:103E7000204601F014FD012007F079FF00212046C3
:103E800001F0E6FCBDE81040012007F070BF10B55E
:103E90000446002101F0DCFC022007F068FF00214D
:103EA000204601F0FCFC012007F061FF01212046C3
:103EB00001F0CEFC012007F05AFF0121204601F05D
:103EC000EEFCBDE81040012007F051BF70B505467B
:103ED000052401F0CFFC0121284601F0B9FC05E0E2
:103EE000641EA4B2012007F042FF84B1284601F00D
:103EF000B8FC0028F4D1284601F0DAFC002128465D
:103F000001F0A6FC022007F032FF002070BD284619
:103F100001F0CEFC2846FFF7BAFF012070BD00007B
:103F20002DE9F0411D4617460C468046069EFFF7D8
:103F30008FFF6006010E4046FFF746FF4046FFF741
:103F4000C5FF28B14046FFF7A2FF0120BDE8F08180
:103F500039464046FFF738FF4046FFF7B7FF404677
:103F6000FFF776FF012000EB4400C1B24046FFF7A7
:103F70002BFF4046FFF7AAFF00246F1E0AE000BF98
:103F8000FFF7E2FE3055BC4202DA4046FFF703FF7E
:103F9000641CE4B2AC424046F2D3FFF741FF404616
:103FA000FFF775FF0020D1E770B516460C460546B1
:103FB000FFF74EFF6006010E2846FFF705FF284673
:103FC000FFF784FF31462846FFF7FEFE2846FFF73D
:103FD0007DFF2846FFF73CFF012000EB4400C1B203
:103FE0002846FFF7F1FE2846FFF770FF2846FFF747
:103FF000ABFE04462846FFF713FF2846FFF747FFAE
:10400000204670BD2DE9F0411D4616460C46074678
:10401000FFF71EFF6006010E3846FFF7D5FE384653
:10402000FFF754FF28B13846FFF731FF0120BDE804
:10403000F08131463846FFF7C7FE3846FFF746FFA6
:1040400029463846FFF7C0FE3846FFF73FFF38469F
:10405000FFF71DFF012007F08AFE0020E7E70000C0
:104060001CB50024114D124E124FDFF84C808DF814
:1040700000408DF80440012300226946286820F0A2
:1040800011FB10B9052000F0BDFA0123002201A99F
:10409000306820F007FB20B93C8098F8000000F061
:1040A000B1FA0A2020F0C2FAE5E700005C00002027
:1040B0006400002018000020D601002038B5154CFF
:1040C000154900252088401C80B22080097801EB2A
:1040D0008101B0EB410F08D110488DF80050012349
:1040E00000226946006820F03BFB0D4821880078DB
:1040F00000EB8000B1EB400F0AD101208DF80000E9
:1041000003460848258000226946006820F028FB05
:1041100038BD000018000020F00300205C000020E3
:10412000F10300206000002000224FF4807101485C
:10413000FDF7B3BF00000240012211020148FDF764
:10414000ACBF00000000024070B586B01421684684
:10415000FCF7FDF80E480025016841F001010160FF
:1041600000680C4E00F001004FF4807405902A4660
:1041700021463046FDF791FF0121CDE90041CDE90F
:10418000021569463046FDF78BFE06B070BD000093
:1041900030380240000002402DE9F04100241B4D60
:1041A0001B4E012708B12F7001E02878E0B12021D3
:1041B0003046FDF765FF20B110213046FDF760FF66
:1041C00090B1032020F032FA20213046FDF758FF4D
:1041D00040B110213046FDF753FF98B10224002072
:1041E00028700FE00124FAE7032020F01FFA2021B5
:1041F0003046FDF745FF28B110213046FDF740FF5E
:1042000000B92F702046BDE8F08100001C06002098
:10421000000002400EB50024194D1A4E8DF80040E2
:104220008DF808408DF804400020FFF7B5FF012805
:104230000ED002281AD11448144A90F8301000EB1E
:10424000C10151E9020150406140084312D00220EF
:104250008DF80000012300226946286820F080FACA
:104260000123002201A9306820F07AFA012020F011
:10427000DDF9D9E706480123002202A90068F3E727
:104280005800002064000020A80B0020DC01002062
:104290006000002030B587B014216846FCF757F85D
:1042A00018480024016841F0010101600068164DC2
:1042B00000F001000590202000904FF404100190C0
:1042C0000120029069462846FDF7EAFD1020009083
:1042D0004FF48810CDE9010469462846FDF7E0FD5A
:1042E000002211461720FDF775FF1720FDF764FF28
:1042F000002211460A20FDF76DFF0A20FDF75CFF42
:1043000007B030BD30380240000002402DE9F041D6
:1043100004461D4616460F462A2000F037FA20466E
:1043200000F024FA304600F021FA2B2000F02EFA9B
:10433000384600F01BFA284600F018FABDE8F041B4
:104340002C2000F023BA0000024900200968C8634D
:1043500070470000C009002070B55D1A141A641C73
:104360006D1C143314316C439BB289B2049EFFF769
:10437000CDFF0D4D4FF40060E8602868016841F4FE
:1043800000610160A2B231462846FEF761FE07488F
:10439000006841680029FCD10020E86028680168B5
:1043A00021F40061016070BD08090020600900204F
:1043B00010B514460B460246FFF7A8FF2046BDE89D
:1043C000104000F0D3B92DE9F04780461F4603F1B5
:1043D000130083B21646501E82B20C4601F114003F
:1043E00081B24046DDF82090FFF790FF0AE0454695
:1043F00004E0484600F0BAF96D1CADB2B542F8D3FE
:10440000641CA4B2BC42F2D3BDE8F08730B587B0DB
:1044100014216846FBF79BFF0D48016841F002013B
:10442000016000684FF4607400F002000590012004
:10443000CDE900400320074D039069462846FDF76B
:104440002FFD012221462846FDF727FE07B030BD8B
:10445000303802400004024010B5FFF7D7FF684C27
:1044600000224FF480712046FDF717FE00228021C4
:104470002046FDF712FE642007F06CFC012280212B
:104480002046FDF70AFE642007F064FC112000F0CE
:104490007DF9782007F05EFC362000F077F90020E7
:1044A00000F08AF93A2000F071F9052000F084F953
:1044B000B22000F06BF90C2000F07EF90C2000F027
:1044C0007BF9002000F078F9332000F075F93320F3
:1044D00000F072F9B72000F059F9352000F06CF9BE
:1044E000BB2000F053F9192000F066F9C02000F05D
:1044F0004DF92C2000F060F9C22000F047F90120AE
:1045000000F05AF9C32000F041F9122000F054F9EC
:10451000C42000F03BF9202000F04EF9C62000F046
:1045200035F90F2000F048F9D02000F02FF9A42031
:1045300000F042F9A12000F03FF9E02000F026F958
:10454000D02000F039F9042000F036F90D2000F0F9
:1045500033F9112000F030F9132000F02DF92B2051
:1045600000F02AF93F2000F027F9542000F024F948
:104570004C2000F021F9182000F01EF90D2000F069
:104580001BF90B2000F018F91F2000F015F923206B
:1045900000F012F9E12000F0F9F8D02000F00CF959
:1045A000042000F009F90C2000F006F9112000F0B9
:1045B00003F9132000F000F92C2000F0FDF83F2053
:1045C00000F0FAF8442000F0F7F8512000F0F4F879
:1045D0002F2000F0F1F81F2000F0EEF81F2000F06F
:1045E000EBF8202000F0E8F8232000F0E5F8212087
:1045F00000F0CCF8BDE81040292000F0C7B800005A
:1046000000040240411F5F2909D84FF4967110FB46
:1046100001F06421B0FBF1F001490968C8637047FB
:10462000C00900202DE9FF4F81B00446DDF83C9021
:1046300000904FEA59074FF00008780700D001209A
:1046400000EBD70000FB09FB203AD0B203900298A0
:1046500002994844401E83B2E019401E82B22046AF
:10466000FFF754FE002553E0B9F10C0F2AD0B9F141
:10467000100F2ED0B9F1180F2ED0B9F1200F49D15B
:104680002749039801EB8010002610F805A0109828
:1046900000284FF0010000FA06F000EA0A0022D0DC
:1046A00020B12046049A0299FFF782FE641C00980C
:1046B000A4B2201AB84225D10298009C401C80B2B6
:1046C000029023E00398174900EB400001EB8000C3
:1046D000DAE71549039803E00398144900EB40001A
:1046E00001EB0010D0E708B1049800E00E9800F04C
:1046F0003DF808F10100C0B2B0FBF7F1804607FBBE
:10470000118050B1761CF6B2082EC0D36D1CADB22C
:104710005D45A9D305B0BDE8F08F4FF00008F5E77F
:10472000C08504088C690408006E0408F07304084E
:104730002DE9FE4F9946DDE90D6714468A46054688
:10474000DDF830800CE0CDF800804B46514628461D
:10475000CDE90167FFF766FF05EB560085B2641CE3
:104760002278002AEFD1BDE8FE8F000008B5010ACB
:104770008DF800108DF801000123022269460248DD
:10478000FEF7B2FB08BD00000809002070B5094D16
:1047900006464FF40074002221462846FDF77DFCB2
:1047A000304600F009F821462846BDE87040012255
:1047B000FDF773BC0004024001B501231A466946A7
:1047C0000148FEF791FB08BD0809002038B52748CD
:1047D0000024016841F002010160006800F002005D
:1047E00000902348FFF796FA1021232000F0BEF82E
:1047F0000120FDF735FB2F21202000F0B7F8012024
:10480000FDF72EFB202000F0A5F82F2807D00A2066
:10481000FDF726FB641CE4B2032CE5D324E0012061
:10482000FDF71EFB00241021002000F09FF801205E
:10483000FDF716FB8021012000F098F80120FDF71C
:104840000FFB0021022000F091F80120FDF708FB8A
:10485000022000F07FF8002807D00A20FDF700FBB7
:10486000641CE4B2032CDED3012038BD3038024092
:10487000E005002010B50321022000F077F80F2199
:10488000BDE81040202000F071B810B500210220D2
:1048900000F06CF82F21BDE81040202000F066B831
:1048A0007CB514460D4606466A460621282000F0CF
:1048B00035F89DF801009DF8003043EA002333806D
:1048C0009DF8030001029DF80200084328809DF82E
:1048D000050001029DF80400084320807CBD7CB5E2
:1048E00014460D4606466A460621032000F016F8D7
:1048F0009DF800009DF8013043EA002333809DF8C5
:10490000020001029DF80300084320809DF8040086
:1049100001029DF80500084328807CBD2DE9F04187
:1049200090460E460546192801D9192700E01E2792
:10493000002409E02819C2B239460548FFF734FBC4
:1049400008F80400641CE4B2B442F3D3BDE8F0817B
:10495000E0050020192801D9192100E01E21024696
:104960000148FFF721BB0000E00500200B46192895
:1049700001D9192100E01E2102460148FFF742BB80
:10498000E005002038B50E4C0EA16846627802F0B2
:1049900005FA6946206A17F007FEA27809A1684661
:1049A00002F0FCF96946A06A17F0FEFDE27805A165
:1049B000684602F0F3F96946206B17F0F5FD38BD43
:1049C00094040020253032640000000008B5002067
:1049D0000A4C8DF800004FF47A75002012F0EAFAC4
:1049E000A84205D200231A466946A06C1FF0B8FE03
:1049F0001EF0B2FA01201FF019FEEEE71C000020A5
:104A000008B501260D4F0E4C00254FF496786078BE
:104A100078B100F003FA08B126700AE02078012886
:104A200006D1257001230022694638681FF098FEE0
:104A3000257040461FF0FAFDE9E700006000002005
:104A40000F0000207CB514460D4606466B46062234
:104A50003B21682000F000F900280BD1BDF80010C0
:104A600049BA3180BDF8021049BA2980BDF8041056
:104A700049BA21807CBD3EB50C46054601AA69466F
:104A800002A8FFF7DFFFBDF8000010FB00F1BDF842
:104A9000040010FB001000EE100AB8EEC00A03F08C
:104AA0005DF8BDF90800F0EE400A00EE100AB8EE1D
:104AB000C01A81EE200A02F0FFFAB1EE400A84ED3E
:104AC000000ABDF9000000EE100ABDF90400F8EE7E
:104AD000C00A00EE100AB8EEC01A80EE810A02F099
:104AE000EBFA85ED000A3EBD00B587B0142168469B
:104AF000FBF72DFC0F48016841F0020101600068DE
:104B0000694600F0020005904FF4805000904FF489
:104B100004100190012002900748FDF7C1F900221E
:104B200011462820FDF756FB2820FDF745FB07B06E
:104B300000BD00003038024000040240244808B59F
:104B4000016841F002010160006800F0020000907D
:104B50002048FFF7DFF880216B2000F001F9642086
:104B600007F0F8F800216B2000F0FAF8032000F0BD
:104B7000C2F8022000F0BAF8322000F0D9F8002183
:104B8000382000F0EDF800216A2000F0E9F800215B
:104B9000232000F0E5F88021372000F0E1F87520AF
:104BA00000F02EF8682801D0012008BD28216B20D4
:104BB00000F0D6F847216C2000F0D2F8322000F047
:104BC000B7F800F009F8FFF78FFF002008BD0000DC
:104BD00030380240EC05002010B501211F2000F004
:104BE000BFF80121202000F0BBF89021372000F011
:104BF000B7F84021BDE81040382000F0B1B80000FF
:104C000010B504461348FFF723F9D0211148FFF7E8
:104C1000DBF81048FFF75AF921460E48FFF7D4F8A1
:104C20000C48FFF753F90B48FFF712F9D121094857
:104C3000FFF7CAF80748FFF749F90648FFF784F875
:104C400004460448FFF7ECF80248FFF720F9204635
:104C500010BD0000EC0500202DE9F04106461D4680
:104C600014460F462048FFF7F3F87006010E1E4861
:104C7000FFF7AAF81C48FFF729F928B11A48FFF7EF
:104C800006F90120BDE8F08139461748FFF79CF886
:104C90001548FFF71BF91448FFF7DAF8012000EB7D
:104CA0004600C1B21048FFF78FF80F48FFF70EF922
:104CB0000BE00D48012C0FD0FFF746F828700A488A
:104CC000FFF769F8641EE4B26D1C002CF1D10648B0
:104CD000FFF7DDF80020D5E7FFF736F82870024827
:104CE000FFF79EF8EEE70000EC050020C006010E7D
:104CF0001C2000F035B8C006010E1B2000F030B8B3
:104D0000BC2801D3012110E0622801D302210CE06C
:104D10002A2801D3032108E0142801D3042104E048
:104D20000A2801D3052100E006211A2000F018B856
:104D300010B504464FF47A70844201D9044602E06B
:104D4000042C00D20424B0FBF4F0401EC1B21920A0
:104D500000F006F86008BDE81040FFF7D1BF000082
:104D600070B504460D461248FFF772F8D02110487E
:104D7000FFF72AF80E48FFF7A9F870B921460C484A
:104D8000FFF722F80A48FFF7A1F829460848FFF77D
:104D90001BF80748FFF79AF820B10548FFF777F8A6
:104DA000012070BD0248FFF772F8002070BD0000BE
:104DB000EC0500202DE9F04104461E4615460F463D
:104DC0001548FFF745F86006010E1348FEF7FCFF93
:104DD0001148FFF77BF880B939460F48FEF7F4FF1A
:104DE0000D48FFF773F800240FE0315D0A48FEF725
:104DF000EBFF0948FFF76AF828B10748FFF747F8C3
:104E00000120BDE8F081641CE4B2AC42EDD302485D
:104E1000FFF73DF80020F4E7EC0500201CB501A9E0
:104E20006846FFF728FE08490098884209DC074ACF
:104E3000904206D20198884203DC904201D20120C0
:104E40001CBD00201CBD00003333B33E3333B3BE62
:104E50007FB50024154800940194029412490394EC
:104E600001604FF48031C0E901140461047680F8D8
:104E700020400F49C0E90A140125C561C46080F8CB
:104E800030404561FCF7E9FC08B1FCF75FFB009599
:104E9000CDE9015469460548FCF72AFC002801D0F9
:104EA000FCF754FB7FBD000000200140A00800205B
:104EB0000100000F114808B5016841F4800101604C
:104EC0000068002200F48000009005213A20FDF7E0
:104ED00081F93A20FDF770F9002205214420FDF701
:104EE00079F94420FDF768F9002205214620FDF7F5
:104EF00071F9BDE808404620FDF75EB93038024040
:104F000010B501F03DFE044A002104481FF05CFC8E
:104F10000349086010BD0000640003085F5F0008DB
:104F2000080000200D4808B5016841F00401016047
:104F3000016801F004010091016841F00101016084
:104F4000016801F001010091016841F00201016076
:104F5000006800F00200009008BD000030380240F8
:104F600030B587B014216846FBF7F1F929480024D1
:104F700027490594C0E900147F218160FF21C0E921
:104F8000031444618461FDF7CBFD08B1FCF7DEFA40
:104F900000212048FDF7D8FC45F25005A84234D046
:104FA00011208DF8000059208DF8010055208DF852
:104FB000020003940122694616480494FDF768FE36
:104FC00008B1FCF7C3FA07208DF8140005208DF80E
:104FD000150021208DF8160023208DF817000122DE
:104FE00005A90C48FDF708FE08B1FCF7AFFA00224E
:104FF0004FF4FA610748FDF7B1FC08B1FCF7A6FAD7
:105000002A4600210348FDF7A4FC07B030BD00008C
:1050100000280040E8080020104810B50E49016043
:105020004FF482714160002102228160C0E90312C5
:10503000012242615202C0E906210162416281629D
:105040000A21C162FDF7A0FE002803D0BDE8104090
:10505000FCF77CBA10BD00000030014008090020B8
:1050600010B58AB0002407941C2168460894FBF709
:105070006EF91648144901606321C0E901144FF428
:105080009671C0E903148461FEF757FA08B1FCF782
:105090005DFA079407A90D480894FEF769F808B16E
:1050A000FCF754FA6020CDE9000402940822694616
:1050B00006480494FEF7DBF908B1FCF747FA034809
:1050C000FEF7ACF90AB010BD00040040C009002092
:1050D0000C4810B50A4901604FF4E13141600021EC
:1050E00081600C22C160C0E904128161C161FEF7D8
:1050F00039FC002803D0BDE81040FCF727BA10BDEA
:1051000000100140080A0020FEE7000086B0434E70
:1051100000254FF47A77307800287AD040483570EF
:105120008DF804500123002201A900681FF018FB2C
:105130003C493DA001F022FE3EA13A48FBF719F997
:1051400078B13DA13748FBF714F960B13DA135486E
:10515000FBF70FF958B13348FBF704F9142842D094
:1051600053E03AA000E03BA001F008FE4DE03D4CCA
:105170000022211D3C48FDF7A9FC002221463A48A7
:10518000FDF782FC3948007820763948007860764F
:1051900038480078A07638480078E07637480088AC
:1051A000A083A278617836A001F0E8FDA379627946
:1051B000217937A001F0E2FD94F918103AA001F02E
:1051C000DDFD94F919103CA001F0D8FDA17E3FA0AF
:1051D00001F0D4FDE17E42A001F0D0FDA18B43A0FF
:1051E00001F0CCFD11E00295039502A90D4804954C
:1051F00000F058FF4148007838B141A102A8FBF700
:10520000B8F810B9074801F053F919210548FBF720
:105210009EF838461FF00AFA7DE700000C000020D7
:10522000640000200C0B00205265635374723A2511
:10523000730D0A004F5600004F562B5645525349E6
:105240004F4E00004F562B53454E44004F4B0D0A16
:105250000000000056455253494F4E3D56322E3302
:105260000D0A0000700B0020E808002099010020C2
:1052700098010020900200207C040020DA01002028
:10528000646174613A2532642D253032640D0A0060
:1052900074696D653A253032643A253032643A25B6
:1052A0003032640D0A00000068756D6964697479B4
:1052B0003A256425250D0A0074656D706572617468
:1052C0007572653A25640D0A000000004865617238
:1052D0007420526174653A256425250D0A0000008A
:1052E00053504F323A256425250D0A0053746570DA
:1052F00020746F6461793A25640D0A00240100204E
:105300004F562B5354000000FEE700B5034602E061
:10531000184600F007F8184600F021F80028F7D0EA
:1053200000BD0000017D49B100EB8102491E9FEDE7
:10533000040A017582ED000A00207047FF207047C3
:1053400000000000017D042907D000EB8102491C08
:10535000017582ED000A00207047FF207047007D34
:1053600008B100207047012070472DE9FF4F81B040
:1053700006460F460398FFF7C8FF049800F0BBFEEF
:105380000020824660F30704009030786AF3070536
:105390004FF0010BA0463038A9466BF307080A28E6
:1053A00003D3012005B0BDE8F08F0025F2EE041A0A
:1053B00091E0725D2E2A08D1032060F3070418F0F3
:1053C000FF0F01D00220EDE7A046A2F1300009282E
:1053D00047D80399097D052903D8049A5279052AEB
:1053E00001D90320DEE700EE100A48466AF3070001
:1053F000B8EEC00A81466AF3070418F0FF00F0EE29
:10540000400A02D0032827D022E0009818B1401C9F
:10541000C0B200900DE00398F0EE400A00EB81006E
:1054200010ED011A41EE210A0DE080EEA10AF0EE26
:10543000400A401EC0B2F8D2039800EB810010ED84
:10544000010A70EE800A0398FFF76CFFB0EE600A65
:105450000398FFF777FF3CE0C0EE210A012000909F
:10546000EAE72B2A05D02D2A03D02A2A01D02F2A99
:1054700030D10398007D052803D804984079052889
:1054800001D904208EE7484662F3070081460020D8
:10549000009008F0FF006BF30704012804D0049883
:1054A00000F049FE10B110E005207BE70498417937
:1054B000401E085C114600F044FE30B1DDE90301F6
:1054C000FBF722FE09F0FF0100E01146049800F00E
:1054D00028FEA0466D1CBD42FFF66BAF002061E7C1
:1054E00070B5FBF787FC10EE104AFBF725FF58B1AB
:1054F0002046FBF7EAF89FED2A1B53EC112BFAF735
:10550000F0FFFBF7F5F804462748844201DD6425E7
:1055100044E0264826492044884201D85A253DE0E7
:10552000244821182448814201D8502536E02349D7
:10553000621823498A4201D246252FE0214A22449B
:10554000824201D23C2529E01F481B4A2044521EBA
:10555000904201D8322521E01C481D4A2044904247
:1055600001D828251AE01B481B4A2044904201D844
:105570001E2513E01948164A2044521C904201D8B7
:1055800014250BE016482044884201D20A2505E084
:10559000144815492044884200D20525284670BD8C
:1055A000FCA9F1D24D62C03F666686407A147EBF88
:1055B000E07A0400AE4781BF33330300B81E85BFD5
:1055C0000AD70300EB5188BF1E858BBFA3708DBF28
:1055D00084EB010051B88EBFAD470100D7A390BF47
:1055E000E17A94BF3333A3BF52B80E0000220821E2
:1055F0000148FCF752BD00000000024001220821D2
:105600000148FCF74ABD00000000024010B500F060
:1056100005F8BDE81040FFF7F1BF000030B587B0D6
:1056200014216846FAF793FE16480024016841F0F9
:10563000010101600068144D00F001000590224650
:1056400008212846FCF729FD082000900120CDE91B
:105650000104694628460394FCF722FC04200090CC
:105660004FF44410CDE9010469462846FCF718FCC4
:10567000002211460820FCF7ADFD0820FCF79CFD38
:1056800007B030BD303802400000024010B52DEDAB
:10569000028BFCF718F800EE100ADFED240AB8EED2
:1056A000C00A20EE208AFBF7F9FF00EE100A9FEDFA
:1056B000201A2048B8EEC00AB0F90810C0EE010A5E
:1056C00000EE101AB0F90C1001EE101AB8EEC00A74
:1056D000B0F90410B8EEC11A00EE810A90ED051A77
:1056E00028EE202AB8EEC11A00EE801A90ED040AC6
:1056F000B8EEC00A00EE810A01EE101AB0F90610E9
:10570000B0F90A00B8EEC11A01EE900A08EE010ADB
:1057100001EE101AF8EEE11ABDEC028BB8EEC11AD8
:1057200000EEA11A02EE010A10BD000000000036D2
:105730000000C049F8050020010901EB810100F0DB
:105740000F0000EB4100C0B27047002103E0491C8C
:105750000A38C9B2C0B20A28F9D2090740EA116072
:10576000704700002DE9F041044600680025C1683B
:10577000490618D4C16841F08001C160FCF792FC71
:1057800006464FF47A78042707E000BFFCF78AFC4E
:10579000801B404501D9677701252068C068400615
:1057A00001D4002DF2D02846BDE8F08170B5044642
:1057B00000680025C16821F08001C1602068806810
:1057C000800606D42046FDF7C3FA10B104206077A6
:1057D0000125284670BD000008B5002300938DF810
:1057E00002208DF801108DF80300142329F050FEDB
:1057F0008DF80000002269460348FDF7FDF90028F6
:1058000001D0FBF7A3FE08BDE808002070B586B004
:105810000D460646144614216846FAF798FD8DF8A1
:1058200000608DF801508DF802400022694604485E
:10583000FDF72EFA002801D0FBF788FE06B070BDF8
:10584000E80800200148FDF705B90000E80800203D
:105850004289406811B18169114300E011048161FE
:10586000704710B501890068FCF70AFC012800D0D8
:10587000002010BD10B586B0044614216846FAF722
:1058800066FD2089009000200190012002900220F6
:10589000039069462068FCF703FB06B010BD02893F
:1058A000006811B18169114300E011048161704702
:1058B00010B586B0044614216846FAF748FD2089E1
:1058C0000090112001900020029002200390694670
:1058D0002068FCF7E5FA06B010BD10B5806B0168D2
:1058E0004A6822F003024A60416D41F010014165AF
:1058F000012180F85110FDF746FA10BD10B5806BFC
:10590000FDF713FC10BD38B50546846BFCF7CAFBE8
:10591000024628680068C00523D42068416821F049
:10592000200141602068416821F00201416064214A
:10593000204600F01BF818B1606D40F02000606553
:10594000A068002118B92068C26880680090E186CC
:10595000012084F85100606D18B12046FDF713FA5C
:1059600038BD2046FDF7E0FB38BD000038B50446E1
:105970001248134B0068B0FBF3F04FF47A735843AE
:1059800000906068B0F5827F0DD10B460092002236
:105990008021204600F016F870B1606D40F02000C4
:1059A0006065032038BD009830B1401E009020682B
:1059B0008068C0430006F6D5002038BDBC05002035
:1059C00000366E012DE9F8431E469146884604468E
:1059D000089DFCF767FB401B351AFCF763FB074685
:1059E00025480068C0F3CB30684338E0701C37D0DE
:1059F000FCF758FBC01BA84203D215B1009860B356
:105A00002CE02068416821F0E00141606068B0F559
:105A1000827F0BD1A068B0F5004F02D0B0F5806F47
:105A200004D12068016821F040010160A06AB0F54E
:105A3000005F09D12068016821F4005101602068ED
:105A4000016841F400510160012084F851000020F8
:105A500084F850000320BDE8F8830025401E009024
:105A60002068816838EA010004D000214945BDD191
:105A70000020F0E70121F9E7BC050020024676216D
:105A80000148FEF791BA0000100600200B460246BE
:105A900076210148FEF7B6BA1006002038B5224834
:105AA000016841F002010160006800F0020000900E
:105AB0001E48FEF72FF901210620FFF7E7FF80219E
:105AC0000720FFF7E3FF07210820FFF7DFFF002192
:105AD0000920FFF7DBFF0CF0C9FD144C183C2080B7
