:020000040800F2
:10000000700A0020B1010008D7240008931A0008E4
:10001000D524000851040008512E000800000000FB
:10002000000000000000000000000000352700086C
:100030005304000800000000D92400082F2A0008FB
:10004000CB010008CB010008CB010008CB01000860
:10005000CB010008CB010008CB010008CB01000850
:10006000CB010008CB010008CB010008CB01000840
:10007000CB010008CB010008CB010008CB01000830
:10008000CB010008CB010008CB01000800000000F4
:10009000000000000000000000000000CB0100088C
:1000A000CB010008CB010008CB010008CB01000800
:1000B000CB010008CB010008CB010008CB010008F0
:1000C000CB010008CB010008CB010008CB010008E0
:1000D000CB010008CB010008CB01000800000000A4
:1000E000CB010008CB010008CB0100080000000094
:1000F000000000000000000000000000CB0100082C
:1001000000000000CB010008CB010008CB01000873
:1001100000000000000000000000000000000000DF
:10012000CB010008CB010008CB010008CB0100087F
:10013000CB010008000000000000000000000000EB
:10014000000000000000000000000000CB010008DB
:10015000CB010008CB010008CB010008CB0100084F
:10016000CB010008CB0100080000000000000000E7
:10017000000000000000000000000000000000007F
:1001800000000000CB01000800000000000000009B
:10019000CB010008CB010008DFF810D000F0B2F866
:1001A00000480047CD300008AFF30080700A0020FF
:1001B0000648804706480047FEE7FEE7FEE7FEE701
:1001C000FEE7FEE7FEE7FEE7FEE7FEE7C52A0008DA
:1001D000990100082DE9F05F0546002092469B46F4
:1001E00088460646814640241BE02846414647464D
:1001F000224600F076F853465A46C01A914110D371
:1002000011461846224600F05DF82D1A67EB0108EA
:100210004F4622460120002100F054F817EB000958
:100220004E41201EA4F10104DFDC484631462A4637
:100230004346BDE8F09F40EA01039B0703D009E075
:1002400008C9121F08C0042AFAD203E011F8013BC2
:1002500000F8013B521EF9D27047D2B201E000F81B
:10026000012B491EFBD270470022F6E710B513465A
:100270000A4604461946FFF7F0FF204610BD421E0D
:1002800012F8013F002BFBD111F8013B02F8013BB2
:10029000002BF9D1704710B5002200E0521C835C9E
:1002A0008C5CA34201D1002BF8D1D8B2E1B2401A44
:1002B00010BD034611F8012B00F8012B002AF9D1DB
:1002C00018467047202A04DB203A00FA02F1002089
:1002D00070479140C2F1200320FA03F31943904084
:1002E0007047202A04DB203A21FA02F000217047EF
:1002F00021FA02F3D040C2F120029140084319468E
:1003000070470000064C074D06E0E06840F001032E
:1003100094E8070098471034AC42F6D3FFF740FF4B
:10032000C86D0008E86D0008464910B54A6822F417
:1003300040324A604A6843681A434A6001684A6822
:1003400022F480724A6001684A68036942EA032223
:100350004A6001684A6822F040724A6001684A684F
:1003600083681A434A6001688A6822F400628A60DE
:1003700001688A68C3681A438A60816A6FF0706294
:10038000D14201688A6822F070628A6001688A68D6
:100390000CD0836A1A438A6001688A6822F040524E
:1003A0008A6001688A68C36A1A4301E022F04052F9
:1003B0008A6001688A6822F002028A6001688A689D
:1003C000037E42EA43028A6090F820100029016807
:1003D0004A680FD042F400624A6001684A6822F419
:1003E00060424A6001684A68174C436A04EB433331
:1003F0001A4301E022F400624A600168CA6A22F4EA
:100400007002CA620168CA6A838B104C04EB035302
:100410001A43CA6201688A6822F400728A6001681D
:100420008A6890F8303042EA43228A6001688A681C
:1004300022F480628A6001688A68406942EA80200A
:10044000886010BD0023014000E0FFFF0000F0FFC6
:10045000FEE7704772B6FEE7002229B101291AD0E3
:1004600002291BD04FF440720E490B6823F44073ED
:100470000B600B6813430B600A6822F0F8020A60F5
:100480000A68022303EBC00002430A60086840F4D4
:100490008030086070474FF48072E5E74FF40072D7
:1004A000E2E70000103C02401348016889050FD5BF
:1004B000016821F400710160016841F4006101608C
:1004C000016821F400610160016841F4007101607C
:1004D000016849050FD5016821F480610160016858
:1004E00041F480510160016821F48051016001688C
:1004F00041F4806101607047003C024038B5022041
:10050000009001240A4800F031F9C0088440C4F585
:100510008050009000F0DEFA0121009800F092F87F
:1005200000F0CCFA08B1022038BD012038BD00002F
:1005300000C0000810B586B00B4800F017F904465B
:10054000002000900294094800F010F9001B401CA4
:1005500003900220049005A9684600F063FA002881
:1005600000D0012006B010BD00C00008FFFF070842
:1005700000B587B000210290012003900220009175
:10058000049005A9684600F04DFA002800D001202B
:1005900007B000BD10B5084800F0E8F80749098821
:1005A000C008C14040F6FF72C240914201D1012013
:1005B00010BD002010BD000000C00008163C024025
:1005C00010B500F087FA0249F320086010BD000062
:1005D0000C3C02402DE9F0411646884605460024B1
:1005E0000D4F11E058F82410286800F03BF82868F7
:1005F000016858F82400814202D00220BDE8F08151
:100600002868001D2860641CB44202D22868B842E1
:10061000E8D90020F2E70000FBFF070808490A6854
:1006200022F440720A600A6842F004020A600A6812
:100630004FF4803343EA002002430A607047000011
:10064000103C024010B504464CF2503000F05AF80D
:10065000002803D102490A8822430A8010BD000005
:10066000163C0240074A136823F440731360136872
:1006700043F400731360136843F0010313600160D7
:1006800070470000103C02401C490868C2061C4824
:1006900005D5C26942F01002C26110220A600A68E0
:1006A000920605D5C26942F00802C26120220A60A2
:1006B0000A68520605D5C26942F00402C2614022AE
:1006C0000A600A68120605D5C26942F00202C261D8
:1006D00080220A600A68D20506D5C26942F001028A
:1006E000C2614FF480720A600A68920705D5C26938
:1006F00042F02002C2610220086070470C3C0240B8
:100700004C01002070B5114904460020C86100F07A
:10071000F1FA06460E4D09E0601C07D024B100F046
:10072000E9FA801BA04201D9032070BD2868C003EC
:10073000F2D42868C00701D001202860286810F48E
:10074000F970F2D0FFF7A0FF012070BD4C0100202E
:100750000C3C024008B500208DF80000684602F00D
:10076000E1F80028FAD09DF8000008BD01460020FD
:10077000A1F100634FF48042934204D3144808442B
:10078000904201D20120704712480844904201D2A1
:100790000220704710480844904201D2032070475D
:1007A0000E480844B0F5803F01D2042070470C4841
:1007B0000A184FF40030824201D205207047094ADE
:1007C0001144814201D20620704707207047000083
:1007D00000C0FFF70080FFF70040FFF70000FFF7C1
:1007E0000000FEF70000FCF778B50024009490F8B4
:1007F0003C20012A19D0012280F83C200A680723F6
:100800000568092A13D9EE680A3A02EB42029340BE
:100810009E43EE600B788A680A3B03EB43039A40E1
:100820000368DD682A43DA6010E0022078BD2E6993
:1008300002EB420293409E432E610B788A6803EBE1
:1008400043039A4003681D692A431A614A681F23BB
:10085000072A13D205686E6B521E02EB8202934088
:100860009E436E630A8893B20A79521E02EB82029B
:1008700093400268556B2B43536327E005680D2AAC
:1008800012D22E6BD21F02EB820293409E432E6344
:100890000B790A88DB1F92B203EB83039A4003684B
:1008A0001D6B2A431A6311E0EE6A0D3A02EB8202D5
:1008B00093409E43EE620B790A880D3B92B203EBA4
:1008C00083039A400368DD6A2A43DA621B4B05689A
:1008D000194A9D420AD10D68122D07D1556825F499
:1008E00000055560556845F48005556005689D42D2
:1008F0001DD1134D0B68AB4201D0112B17D153689A
:1009000023F480035360536843F400035360096881
:10091000A9420CD10B490C4A0968B1FBF2F101EB79
:100920008101490000E0491E00910029FBD180F8B7
:100930003C40002078BD0000002301400020014021
:10094000120000100C00002040420F0070B504009F
:100950004FF0000503D0206C002610B107E0012005
:1009600070BD204600F01CF8666484F83C60206C82
:10097000C00610D4206C20F4885040F0020020649F
:100980002046FFF7D1FC6664206C20F0020040F0A6
:100990000100206400E0012584F83C60284670BD19
:1009A00010B586B0044614216846FFF75DFC114976
:1009B000206888421CD110480021026842F48072ED
:1009C0000260006800F4807005900B4814380268DB
:1009D00042F001020260006800F001000590022070
:1009E00000900320CDE901016946044800F088F831
:1009F00006B010BD00200140443802400000024013
:100A000070B5044600F076F90546601C02D0044833
:100A10000078044400F06EF9401BA042FAD370BD88
:100A2000000000202DE9F047044622480F46017ED1
:100A300001290AD00121804601764CF250394846FE
:100A4000FFF760FE020003D02FE00220BDE8F08730
:100A50004FF0FF3038602068174D012801D0A6689C
:100A60001CE0207C6168FFF7D9FD4846FFF74AFE8D
:100A70000246286820F00400286014E0217C3046FB
:100A8000FFF7EAFC4846FFF73DFE0200286820F029
:100A9000FA00286001D03E6005E0761CD4E902101F
:100AA0000844B042EAD8FFF7FFFC002188F818108C
:100AB0001046CBE74C010020103C0240044801786E
:100AC00041F0020101704CF25030FFF71BBE0000F4
:100AD000143C0240074900200A68002A09DA054A46
:100AE000054B0C3A1360054B13600968002900DAC6
:100AF00001207047103C024023016745AB89EFCDD0
:100B00002DE9F84FDFF8B8A10022012403254FF0AA
:100B10000F090AF1040BAAF1040E00BF0B6804FAD6
:100B200002F63340B34273D10F7907F00307012F68
:100B300001D0022F16D187684FEA420805FA08FC57
:100B400027EA0C07D1F80CC00CFA08FC4CEA070C99
:100B5000C0F808C04768B7430E79C6F30016964040
:100B60003E4346600E79F643B6070DD0C76856007F
:100B700005FA06FC27EA0C07D1F808C00CFA06FCB7
:100B80004CEA070CC0F80CC00E7906F00306022EE2
:100B900010D1D60800EB8608D8F8206057074FEA36
:100BA000D76C09FA0CF7BE430F6907FA0CF7374305
:100BB000C8F8207006684FEA420C05FA0CF7BE43ED
:100BC0000F7907F0030707FA0CF7374307604E6801
:100BD00016F4403F6DD03B4E376847F4804737608E
:100BE000366822F0030706F480460096364E07EB7F
:100BF000060CDCF8086897073F0F09FA07F826EAA1
:100C00000806DFF8C880404503D14FF000081EE019
:100C10004FE0DFF8BC80404502D14FF0010816E0FC
:100C2000DFF8B080404502D14FF002080FE0DFF856
:100C3000A880404502D14FF0030808E0DFF89C800F
:100C4000404502D14FF0040801E04FF0070808FAD0
:100C500007F848EA0608CCF80888DAF80060574632
:100C6000D1F804C09E435FEACC2C00D51E433E6001
:100C7000DBF800605F46D1F804C09E435FEA8C2C2D
:100C800000D51E433E60DEF800607746D1F804C010
:100C90009E435FEA8C3C00D51E433E60084F083FF0
:100CA0003E68D1F804C09E435FEACC3C00D51E43A9
:100CB0003E60521C102AFFF431AFBDE8F88F0000EF
:100CC000083C01404438024000300140000002402E
:100CD0000004024000080240000C024000100240E4
:100CE0000069084000D0012070470AB18161704757
:100CF0000904FBE7014880687047000000000020FD
:100D00000248816802781144816070470000002029
:100D10000B4810B5016841F400710160016841F4AD
:100D200080610160016841F480710160032000F07E
:100D30006FF80F2000F006F800F024F8002010BD36
:100D4000003C024070B50D4D04464FF47A7128788E
:100D5000B1FBF0F00A490968B1FBF0F000F05DFC6E
:100D600048B9102C07D200222146501E00F030F85E
:100D700000206C6070BD012070BD000000000020EC
:100D80000C0000200A4808B5016841F48041016068
:100D9000006800F4804000900548001F016841F0A1
:100DA00080510160006800F08050009008BD000094
:100DB00044380240002809DB00F01F020121914065
:100DC0004009800000F1E020C0F8001170470000E9
:100DD000F0B40E4B1B680C46C3F30223C3F10705A6
:100DE000042D00D90425191D072901D2002300E094
:100DF000DB1E012606FA05F1491E214099409E405E
:100E0000761E16403143F0BC02F0EAB80CED00E06B
:100E1000064900F0070208684FF6FF03184040EA51
:100E20000220034A10430860704700000CED00E008
:100E30000000FA052DE9F0470E46050065D0DFF801
:100E40001481D8F80000F7B200F00700B04207D2D2
:100E500088F80070D8F8000000F00700B04254D1C4
:100E600028683D4C810712D5400703D5206840F41F
:100E7000E05020602878000703D5206840F46040E7
:100E800020602068A96820F0F000084320602878DE
:100E9000C0072DD0304968680839012812D00228CF
:100EA00013D0032811D00968890700292DDA216899
:100EB00021F0030101432160FFF71CFF814641F24D
:100EC000883A0EE009688903EFE709688901ECE7D1
:100ED000FFF710FFA0EB0901514502D90320BDE83F
:100EE000F0872068696800F00C00B0EB810FEFD14B
:100EF000D8F80010404601F00701B14207D9077049
:100F0000006800F00700B04201D00120E7E7287830
:100F1000400705D52068E96820F4E05008432060C8
:100F20002878000706D52068296920F4604040EA47
:100F3000C100206000F038F82168084AC1F30311AD
:100F4000515CC8400649086006480068FFF7FAFE91
:100F50000020C4E7003C0240083802409C6B0008B7
:100F60000C000020040000200448054900680968BE
:100F7000044AC1F38221515CC84070470C00002034
:100F800008380240AC6B000804480549006809684D
:100F9000044AC1F34231515CC84070470C00002044
:100FA00008380240AC6B0008154810B5006810F016
:100FB0000C02144813D01449042A0FD0082A0ED169
:100FC0000F4C241F2268236802F03F025B0207D502
:100FD0002068C0F38810A0FB010106E0084610BDA0
:100FE0002168C1F38811A1FB00010023FFF7F2F88B
:100FF0002168C1F30141491C4900B0FBF1F010BD6B
:10100000083802400024F40040787D012DE9F84FB3
:1010100004006ED02078DFF84C93C007A9F10405D6
:101020004AD009F104000168C1F38101012908D007
:101030000068C0F3810002280AD1D9F800004002FC
:1010400006D52868800337D560680028E1D033E0F2
:101050006068B0F5803F10D0B0F5A02F286810D0A0
:1010600020F480302860286820F4802028606068A0
:10107000A8B1FFF73FFE06460DE0286840F4803037
:10108000F4E740F480202860F7E700BFFFF732FE66
:10109000801B642873D828688003F7D50CE0FFF71D
:1010A00029FE064605E000BFFFF724FE801B6428EA
:1010B000F0D828688003F7D42078DFF8AC82800766
:1010C0004FF0000A3ED5A748001D016811F00C0F33
:1010D00008D00068C0F3810002280BD1D9F80000C5
:1010E000400207D42868800716D5E068012800D19F
:1010F00012E033E1E068B8B10120C8F80000FFF762
:10110000F9FD064605E000BFFFF7F4FD801B02284D
:10111000C0D828688007F7D52868216920F0F80032
:1011200040EAC10028600DE0C8F800A0FFF7E2FD2A
:10113000064604E0FFF7DEFD801B02281FD8286862
:101140008007F7D42078000722D5864F8748616949
:10115000703771B101210160FFF7CCFD064604E054
:10116000FFF7C8FD801B022809D838688007F7D52B
:101170000EE0C0F800A0FFF7BDFD064605E082E0E6
:10118000FFF7B8FD801B02287DD838688007F7D4A8
:101190002078400768D5DFF8CCB100270BF13C0B75
:1011A000DBF80000C0000BD4DBF8001041F08051E8
:1011B000CBF80010DBF80000012700F08050009011
:1011C0006B4E3068C00510D4306840F480703060D9
:1011D000FFF790FD009005E0FFF78CFD0099401AA5
:1011E000022850D83068C005F6D55E4EA0686C362F
:1011F00001280FD00528306810D020F001003060A1
:10120000306820F004003060A068B8B1FFF772FDCC
:1012100000900FE0306840F00100F4E740F0040077
:101220003060F7E7FFF766FD0099411A41F2883018
:10123000814266D830688007F4D50EE0FFF75AFD8A
:10124000009007E0FFF756FD0099411A41F28830FF
:10125000814256D830688007F4D42FB1DBF80010F3
:1012600021F08051CBF80010A069C8B33D49091D99
:101270000968C1F3810102294AD00228504607D0EB
:10128000C8F8600000E03CE0FFF734FD04463BE0B6
:101290004746C8F86000FFF72DFD064605E000BF91
:1012A000FFF728FD801B02282BD828688001F7D47F
:1012B000D4E907010843A16A2E4A490802EB01411B
:1012C000626A41EA8211084394F82C1040EA0161F5
:1012D000C9F8001001203866FFF70CFD044606E04F
:1012E0003EE000BFFFF706FD001B022809D8286872
:1012F0008001F7D534E000BFFFF7FCFC001B02289B
:1013000002D90320BDE8F88F28688001F4D427E0D3
:101310000128F7D0D9F80000E26900F48001914279
:101320001CD1226A00F03F01914217D147F6C071EB
:10133000626A0140B1EB821F10D1A26A4FF0FF3305
:1013400000F4403103EB5202B1EB024F06D194F8A6
:101350002C1000F07060B0EB016F01D00120D1E7DC
:101360000020CFE70438024000004742800E474289
:10137000007000400000FFFF70B5040009D0606AF3
:10138000002540B125616561A56294F8510040B126
:101390000CE0012070BD6068B0F5827FF4D0E5619B
:1013A000F2E784F85050204600F044F8022084F818
:1013B00051002068016821F040010160A088218966
:1013C00000F4827001F404410843A18901F4006132
:1013D0000843217C01F002010843217D01F0010155
:1013E0000843218B01F400710843217F01F038018B
:1013F000084394F8201001F080010843218D01F486
:101400000051084321680860A069042101EA1040E6
:1014100094F8241001F01001084321684860206806
:10142000C16921F40061C1616565012084F8510042
:10143000002070BD10B586B0044614216846FEF742
:1014400013FF13492068884220D112480021026806
:1014500042F480520260006800F4805005900D480C
:101460001438026842F002020260006800F00200D4
:101470000590282000900220CDE90101032003906F
:101480000520049069460448FFF73AFB06B010BDFA
:101490000030014044380240000402402DE9F84F7A
:1014A000044690F8500000271D461646894601283C
:1014B0000DD04FF0010B84F850B0FFF71BFC8046B5
:1014C00094F85100BA46012804D0022793E0022084
:1014D000BDE8F88FB9F1000F73D0002E71D0032052
:1014E00084F85100C4F854A0C4F83090A686E6866B
:1014F000C4F838A0A4F83CA0A4F83EA0C4F844A0C6
:10150000C4F840A0A068B0F5004F09D12068016878
:1015100021F0400101602068016841F480410160D0
:1015200020680168490603D4016841F04001016068
:10153000E068B0F5006F606803D030B3012E24D0AE
:1015400041E008B1012E1CD1206B21680088C860E1
:1015500006E020688168890709D5216B0988C16088
:10156000206B801C2063E08E401EE08609E0FFF7C0
:10157000C1FBA0EB0800A84202D3681C01D031E0F7
:101580007DB3E08E0028E4D120E0206B2168007854
:10159000087306E020688168890709D5216B0978FE
:1015A0000173206B401C2063E08E401EE0860AE041
:1015B000FFF7A0FBA0EB0800A84203D3681C02D0F1
:1015C00010E017E06DB1E08E0028E3D142462946D5
:1015D000204601F027F808B120206065A06818B106
:1015E00006E0FFE7032706E02068C16880680090F6
:1015F000606D00B1012784F851B084F850A03846DE
:1016000066E74FF0E0210428086903D020F00400C9
:101610000861704740F00400FAE710B5401EB0F1D1
:10162000807F01D3012010BD4FF0E02460610F21C5
:10163000601701F0D5FC0020A06107202061002088
:1016400010BD000070B590F83C20012A2CD0012478
:1016500080F83C40022280F83D2003685A689D686B
:1016600022F070060A6832435A60104B02689A42B0
:101670000ED0B2F1804F0BD00D4B9A4208D00D4BDB
:101680009A4205D00C4B9A4202D00C4B9A4204D19C
:10169000496825F080031943916080F83D4000219E
:1016A00080F83C10084670BD022070BD000001406B
:1016B0000004004000080040000C004000400140D1
:1016C00010B586B0044614216846FEF7CDFD0D49DD
:1016D0002068884214D10C480021026842F00202BE
:1016E0000260006800F002000590012000900220D6
:1016F000CDE90101CDE9031069460448FFF700FA7E
:1017000006B010BD00040040303802400004024022
:1017100070B5044690F83C0000260D4601280FD015
:10172000012084F83C006AB1042A1DD0082A2FD079
:101730000C2A3FD00126002084F83C00304670BDC2
:10174000022070BD206801F01FFA2068816941F015
:10175000080181612068816921F0040181612068AC
:1017600081692A69114311E0206801F035FA206887
:10177000816941F4006181612068816921F480619F
:101780008161206881692A6941EA02218161D2E789
:10179000206801F04DFA2068C16941F00801C1617B
:1017A0002068C16921F00401C1612068C1692A690A
:1017B000114311E0206801F067FA2068C16941F423
:1017C0000061C1612068C16921F48061C161206844
:1017D000C1692A6941EA0221C161ACE710B5040080
:1017E00003D094F83D0010B107E0012010BD0020A7
:1017F00084F83C00204600F01FF8022084F83D00E9
:10180000211D206801F066F9012084F8460084F863
:101810003E0084F83F0084F8400084F8410084F8DA
:10182000420084F8430084F8440084F8450084F8BA
:101830003D00002010BD000008B500680649884240
:1018400008D10648016841F002010160006800F01B
:101850000200009008BD0000000400404038024033
:1018600010B50446022249B104290ED0082913D02C
:1018700094F84100012816D0012010BD94F83E00D4
:101880000128F9D184F83E200FE094F83F000128A8
:10189000F2D184F83F2008E094F840000128EBD111
:1018A00084F8402001E084F841200122206801F002
:1018B0005DF912492068884203D1426C42F400422B
:1018C0004264206888420ED0B0F1804F0BD00C49A2
:1018D000884208D00B49884205D00B49884202D083
:1018E0000A49884204D1816801F00701062903D022
:1018F000016841F001010160002010BD00000140BD
:101900000004004000080040000C0040004001407E
:1019100070B5040004D094F83D00002510B106E035
:10192000012070BD84F83C50204600F023F82420AC
:1019300084F83D002068C16821F40051C160204650
:1019400001F0C4F92068016921F490410161206827
:10195000416921F02A0141612068C16841F40051C8
:10196000C1602564202084F83D0084F83E000020FA
:1019700070BD000010B586B0044614216846FEF71D
:1019800073FC14492068884221D113480021026861
:1019900042F010020260006800F0100005900E484E
:1019A0001438026842F001020260006800F0010091
:1019B00005904FF4C06000900220CDE901010320A2
:1019C00003900720049069460448FFF799F806B091
:1019D00010BD0000001001404438024000000240E9
:1019E0002DE9F843044690F83D001F4616460D4683
:1019F00020284CD1C5B1BEB194F83C00012846D096
:101A0000012084F83C004FF00008C4F840802120F9
:101A100084F83D00FFF76EF9A6848146E684A0684D
:101A2000B0F5805F03D004E00120BDE8F8832069B1
:101A300028B12E465FF0000584F83C800EE00026B9
:101A4000FAE78021204601F0C7F9A0B9AEB116F837
:101A5000010B21684860E08C401EE084E08C4B461E
:101A60004FF0000200970028EBD14FF040012046D4
:101A700001F0B2F930B10320D7E735F8020BC0F31B
:101A80000800E6E7202084F83D000020CDE7022092
:101A9000CBE7FEE7F0B500220D4B154614460A27AA
:101AA000B1FBF3F630368654B1FBF3F603FB1611A7
:101AB000B3FBF7F3521C861816F8016C302E00D1D8
:101AC00025B16D1C641C0A2CEAD3F0BD0022F9E795
:101AD00000CA9A3B012211020148FFF706B9000033
:101AE0000000024070B586B014216846FEF7BCFBCA
:101AF0000E480025016841F00101016000680C4EAC
:101B000000F001004FF4807405902A4621463046CB
:101B1000FFF7EBF80121CDE90041CDE90215694657
:101B20003046FEF7EDFF06B070BD000030380240D1
:101B30000000024030B587B014216846FEF794FBE0
:101B400010480024016841F00101016000680E4D59
:101B500000F001000590202000904FF40410019047
:101B60000120029069462846FEF7CAFF1020009027
:101B70004FF48810CDE9010469462846FEF7C0FFFE
:101B800007B030BD30380240000002402DE9F0417E
:101B900004461D4616460F462A2000F003FA20464A
:101BA00000F0F0F9304600F0EDF92B2000F0FAF9E2
:101BB000384600F0E7F9284600F0E4F9BDE8F041C6
:101BC0002C2000F0EFB910B514460B460246FFF783
:101BD000DDFF2046BDE8104000F0D4B92DE9F04704
:101BE00080461F4603F1130083B21646501E82B290
:101BF0000C4601F1140081B24046DDF82090FFF759
:101C0000C5FF0AE0454604E0484600F0BBF96D1CFC
:101C1000ADB2B542F8D3641CA4B2BC42F2D3BDE865
:101C2000F087000030B587B014216846FEF71CFB32
:101C30000D48016841F00201016000684FF46074D2
:101C400000F0020005900120CDE900400320074D7F
:101C5000039069462846FEF753FF01222146284695
:101C6000FFF743F807B030BD3038024000040240AF
:101C700010B5FFF7D7FF684C00224FF48071204663
:101C8000FFF733F8002280212046FFF72EF864206A
:101C900001F0ECF9012280212046FFF726F86420AC
:101CA00001F0E4F9112000F07DF9782001F0DEF96F
:101CB000362000F077F9002000F08AF93A2000F091
:101CC00071F9052000F084F9B22000F06BF90C20C6
:101CD00000F07EF90C2000F07BF9002000F078F98C
:101CE000332000F075F9332000F072F9B72000F0CE
:101CF00059F9352000F06CF9BB2000F053F9192098
:101D000000F066F9C02000F04DF92C2000F060F9D9
:101D1000C22000F047F9012000F05AF9C32000F07A
:101D200041F9122000F054F9C42000F03BF92020C2
:101D300000F04EF9C62000F035F90F2000F048F908
:101D4000D02000F02FF9A42000F042F9A12000F0EB
:101D50003FF9E02000F026F9D02000F039F9042006
:101D600000F036F90D2000F033F9112000F030F9C1
:101D7000132000F02DF92B2000F02AF93F2000F06D
:101D800027F9542000F024F94C2000F021F9182004
:101D900000F01EF90D2000F01BF90B2000F018F9DF
:101DA0001F2000F015F9232000F012F9E12000F0C7
:101DB000F9F8D02000F00CF9042000F009F90C200B
:101DC00000F006F9112000F003F9132000F000F9EB
:101DD0002C2000F0FDF83F2000F0FAF8442000F03D
:101DE000F7F8512000F0F4F82F2000F0F1F81F2050
:101DF00000F0EEF81F2000F0EBF8202000F0E8F8EB
:101E0000232000F0E5F8212000F0CCF8BDE81040D8
:101E1000292000F0C7B8000000040240411F5F29DC
:101E200009D84FF4967110FB01F06421B0FBF1F07A
:101E300001490968C8637047C00000202DE9FF4FC1
:101E400081B00446DDF83C9000904FEA59074FF00E
:101E50000008780700D0012000EBD70000FB09FB49
:101E6000203AD0B20390029802994844401E83B2AF
:101E7000E019401E82B22046FFF788FE002553E09D
:101E8000B9F10C0F2AD0B9F1100F2ED0B9F1180FFB
:101E90002ED0B9F1200F49D12749039801EB8010CA
:101EA000002610F805A0109800284FF0010000FA55
:101EB00006F000EA0A0022D020B12046049A0299D6
:101EC000FFF781FE641C0098A4B2201AB84225D105
:101ED0000298009C401C80B2029023E003981749AE
:101EE00000EB400001EB8000DAE71549039803E0BE
:101EF0000398144900EB400001EB0010D0E708B153
:101F0000049800E00E9800F03DF808F10100C0B21E
:101F1000B0FBF7F1804607FB118050B1761CF6B29A
:101F2000082EC0D36D1CADB25D45A9D305B0BDE888
:101F3000F08F4FF00008F5E7B44E0008803200083B
:101F4000F4360008E43C00082DE9FE4F9946DDE92F
:101F50000D6714468A460546DDF830800CE0CDF862
:101F600000804B4651462846CDE90167FFF766FFE2
:101F700005EB560085B2641C2278002AEFD1BDE83B
:101F8000FE8F000008B5010A8DF800108DF80100E1
:101F90000123022269460248FFF780FA08BD0000CB
:101FA0006800002070B5094D06464FF40074002209
:101FB00021462846FEF799FE304600F009F82146F2
:101FC0002846BDE870400122FEF78FBE00040240A3
:101FD00001B501231A4669460148FFF75FFA08BDBB
:101FE000680000207FB500241548009401940294F5
:101FF0001249039401604FF48031C0E90114046177
:10200000047680F820400F49C0E90A140125C56113
:10201000C46080F830404561FEF798FC08B1FEF7D7
:1020200019FA0095CDE9015469460548FEF7DCFB35
:10203000002801D0FEF70EFA7FBD0000002001400D
:10204000200000200100000F094808B5016841F098
:1020500001010160016801F001010091016841F096
:1020600002010160006800F00200009008BD00005D
:1020700030380240104810B50E4901604FF48271AB
:102080004160002102228160C0E903120122426105
:102090005202C0E906210162416281620A21C162E5
:1020A000FFF76AF9002803D0BDE81040FEF7D2B967
:1020B00010BD0000003001406800002010B58AB05B
:1020C000002407941C2168460894FEF7CDF81648B2
:1020D000144901606321C0E901144FF49671C0E90D
:1020E00003148461FFF77AFB08B1FEF7B3F9079494
:1020F00007A90D480894FFF7A5FA08B1FEF7AAF959
:102100006020CDE900040294082269460648049440
:10211000FFF7FEFA08B1FEF79DF90348FFF7D0FA82
:102120000AB010BD00040040C00000200C4810B5EB
:102130000A4901604FF4E1314160002181600C22C5
:10214000C160C0E904128161C161FFF7E1FB0028B1
:1021500003D0BDE81040FEF77DB910BD001001406E
:1021600008010020354800F0F9FB354800F0F6FB87
:10217000344800F0F3FB344800F0F0FB314800F045
:10218000EDFB324800F0EAFB2C4800F0E7FB30A002
:1021900000F0E4FBFEF7FEF92F4C002510B90120FA
:1021A000206000E025602DA000F0D8FB3BA000F0EF
:1021B000D5FB4AA000F0D2FB58A000F0CFFB20686E
:1021C00010B166A000F0CAFB74A000F0C7FBFEF7D8
:1021D000C1FA312806D0322807D0332807D0342856
:1021E00014D016E000F0A8FADDE77CA015E04FF06F
:1021F000E02005614561856172B683494868A06049
:102200006060096881F308888047CCE7206801286E
:1022100006D0206800280FD07CA000F09FFBC2E70A
:10222000FEF76CF9012803D00228BCD187A0F4E79F
:1022300091A000F093FBB5E797A0EEE77C6D000856
:10224000986C00084C6C0008306D0008E46C0008C5
:102250000D0A0D0A00000000100000200D0A3D3D8F
:102260003D3D3D3D3D3D3D3D3D3D3D3D3D3D3D3D9E
:10227000204D61696E204D656E75203D3D3D3D3DB3
:102280003D3D3D3D3D3D3D3D3D3D3D3D3D3D3D3D7E
:102290003D3D3D3D3D3D3D0D0A0A00002020446F7F
:1022A000776E6C6F616420496D61676520546F20A3
:1022B0007468652053544D33324634787820496E23
:1022C0007465726E616C20466C617368202D2D2DD3
:1022D0002D2D2D2D20310D0A0A00000020205570D3
:1022E0006C6F616420496D6167652046726F6D2077
:1022F0007468652053544D33324634787820496EE3
:102300007465726E616C20466C617368202D2D2D92
:102310002D2D2D2D20320D0A0A0000002020457899
:10232000656375746520546865204E65772050722A
:102330006F6772616D202D2D2D2D2D2D2D2D2D2DA5
:102340002D2D2D2D2D2D2D2D2D2D2D2D2D2D2D2DBD
:102350002D2D2D2D20330D0A0A0000002020446968
:102360007361626C6520746865207772697465209A
:1023700070726F74656374696F6E202D2D2D2D2D15
:102380002D2D2D2D2D2D2D2D2D2D2D2D2D2D2D2D7D
:102390002D2D2D2D20340D0A0A0000003D3D3D3D20
:1023A0003D3D3D3D3D3D3D3D3D3D3D3D3D3D3D3D5D
:1023B0003D3D3D3D3D3D3D3D3D3D3D3D3D3D3D3D4D
:1023C0003D3D3D3D3D3D3D3D3D3D3D3D3D3D3D3D3D
:1023D0003D3D3D3D3D3D0D0A0A00000054686973D6
:1023E0002066756E6374696F6E206973206469730B
:1023F00061626C65642120506C6561736520557362
:102400006520310D0000000000C00008496E7661B3
:102410006C6964204E756D6265722021203D3D3EE1
:1024200020546865206E756D6265722073686F75E3
:102430006C642062652065697468657220312C20A7
:10244000322C2033206F7220340D00004572726FE1
:10245000723A20466C6173682077726974652075E2
:102460006E70726F74656374696F6E206661696CFB
:1024700065642E2E2E0D0A00577269746520507205
:102480006F74656374696F6E2064697361626C65F3
:10249000642E2E2E0D0A0000496E76616C69642050
:1024A0004E756D6265722021203D3D3E2054686569
:1024B000206E756D6265722073686F756C64206242
:1024C000652065697468657220312C2032206F7236
:1024D00020330D00FEE7FEE77047000001220821CF
:1024E0000148FEF702BC00000000024010B500F0F9
:1024F00005F8BDE81040FFF7F1BF000030B587B028
:1025000014216846FDF7B0FE16480024016841F02A
:10251000010101600068144D00F0010005902246A1
:1025200008212846FEF7E1FB082000900120CDE9B4
:102530000104694628460394FEF7E2FA042000905D
:102540004FF44410CDE9010469462846FEF7D8FA55
:10255000002211460820FEF73BFC0820FEF72AFC6B
:1025600007B030BD303802400000024070B50C4664
:10257000054604E0284600F0D5F9012804D0641E81
:10258000F8D24FF0FF3070BD002070BD2DE9F84F3C
:10259000884600210646C8F8001092461146684653
:1025A000FFF7E4FF4FF0FF39B0BB9DF8000018289B
:1025B00014D006DC012809D0022809D004282BD128
:1025C0002EE0412816D0612826D113E0802401E0B6
:1025D0004FF4806401253070671D15E05146684650
:1025E000FFF7C4FFC0B99DF80000182814D1C8F83F
:1025F000009015E00120BDE8F88F70195146FFF7F3
:10260000B5FF48B96D1CADB2BD42F6D3B178707854
:1026100081F0FF01884201D04846ECE7C8F800404D
:102620000020E8E738B504461248134B0068B0FBB9
:10263000F3F04FF47A73584300906068B0F5827FEE
:102640000DD10B46009200228021204600F016F8A2
:1026500070B1606D40F020006065032038BD0098C7
:1026600030B1401E009020688068C0430006F6D557
:10267000002038BD0C00002000366E012DE9F84323
:102680001E46914688460446089DFEF733FB401BD4
:10269000351AFEF72FFB074625480068C0F3CB30FC
:1026A000684338E0701C37D0FEF724FBC01BA842FB
:1026B00003D215B1009860B32CE02068416821F086
:1026C000E00141606068B0F5827F0BD1A068B0F591
:1026D000004F02D0B0F5806F04D12068016821F06E
:1026E00040010160A06AB0F5005F09D1206801686F
:1026F00021F4005101602068016841F4005101603B
:10270000012084F85100002084F850000320BDE827
:10271000F8830025401E00902068816838EA010097
:1027200004D000214945BDD10020F0E70121F9E79F
:102730000C000020704700001FB520A207CA8DE8DA
:102740000700214803900220FDF712FF1FA000F0B0
:1027500005F92D4800F07EFB041E1FDD2B4800F01C
:10276000FDF82B4800F0FAF821466846FFF792F989
:1027700028A000F0F3F8684600F0F0F828A000F078
:10278000EDF82AA000F0EAF82EA1022203A8FDF736
:1027900021FF08B12EA00CE03C480AE0601C05D0E7
:1027A000A01C05D0E41C07D039A002E040A000E046
:1027B0004FA000F0D3F81FBD54A0FAE7202020203E
:1027C000202020202020000000800008576169742C
:1027D000696E6720666F72207468652066696C6533
:1027E00020746F2062652073656E74202E2E2E205B
:1027F0002870726573732027612720746F206162CF
:102800006F7274290A0D00006C010020F86B00083B
:102810006C0500200A0D2053697A653A20000000FB
:102820002042797465730D0A000000002D2D2D2DB6
:102830002D2D2D2D2D2D2D2D2D2D2D2D2D2D2D0AEB
:102840000000000041505020464C4147000000006D
:102850000A0A0D2041505020466C61672053657470
:10286000204572726F72210A0D2D2D2D2D2D2D2DCB
:102870002D2D2D2D2D2D2D2D2D2D2D2D2D2D2D2D88
:102880002D2D2D2D2D2D2D2D2D0D0A00B46B000875
:102890000A0D4661696C656420746F20726563651A
:1028A000697665207468652066696C65210A0D008B
:1028B0000A0A0D54686520696D6167652073697A3D
:1028C0006520697320686967686572207468616E45
:1028D0002074686520616C6C6F776564207370612B
:1028E0006365206D656D6F7279210A0D000000002F
:1028F0000A0A0D566572696669636174696F6E20B4
:102900006661696C6564210A0D0000000D0A0A41C8
:10291000626F7274656420627920757365722E0A25
:102920000D000000054909680A68D243920603D4E5
:10293000496801700120704700207047080100209D
:1029400004494860044800680168C9430906FBD48B
:1029500070470000001001400801002000B5024649
:1029600003E000BFFFF7ECFF521C10780028F9D1FC
:1029700000BD70B5002204781346302C04D1447891
:10298000782C0AD0582C08D06FF02F05845C74B3D3
:102990006B2C2ED04B2C2CD030E082780AB3022442
:1029A000025D5AB1A2F14105052D0AD9A2F16106D5
:1029B000052E06D91135092D07D913E001200B602A
:1029C00011E0A2F13006092E01D8303A04E0052DBD
:1029D00001D8373A00E0573A641C02EB03130B2C82
:1029E000DED302E000200B2C00D3002070BD0B6072
:1029F00002E01AB1980207E0012015E06D2C01D029
:102A00004D2C03D112B118050860F5E7A4F130068A
:102A1000092E08D803EB830305EB4303521C234420
:102A20000B2AB3D3E1E700200B2ADED270BDFEF7FC
:102A300067B9000030B593B030216846FDF714FC4B
:102A400014210CA8FDF710FC1C480024016841F07B
:102A500080510160006800F08050119018480168B2
:102A600041F4404101600068022500F440401190AB
:102A70000120039010200490009506950820CDE9D0
:102A800007406420CDE9090504200B906846FEF755
:102A9000BDFA08B172B6FEE70F20CDE90C054FF480
:102AA0008050CDE90E4003210CA81094FEF7C2F926
:102AB000002801D072B6FEE713B030BD40380240A6
:102AC000007000400248016841F4700101607047E5
:102AD00088ED00E0F0B502681D4B1E4C9F031E4DB3
:102AE0001E4E984207D0B84205D0A04203D0A8425B
:102AF00001D0B04204D122F0700C4A6842EA0C02C4
:102B0000984210D0B8420ED0A0420CD0A8420AD0B1
:102B1000B04208D0124CA04205D0124CA04202D0C4
:102B2000114CA04203D122F44074CA6822434C697C
:102B300022F08002224302608A68C2620A688262CE
:102B4000984201D10969016301214161F0BD000092
:102B5000000001400004004000080040000C00405C
:102B600000400140004401400048014010B501F020
:102B70001F030121046A99408C430462016A9A4050
:102B80001143016210BD000030B5026A22F001025B
:102B90000262026A4368846924F073050C682C435E
:102BA00022F002058A682A430A4DA8420BD122F07E
:102BB0000805CA6823F440732A434D6922F00402D1
:102BC0001D438B692B434360846149684163026202
:102BD00030BD00000000014030B5026A22F0100252
:102BE0000262026A436884690D6824F4E64444EA98
:102BF00005248D6822F0200242EA05120B4DA842FE
:102C00000ED1CD6822F0800242EA05124D6923F40C
:102C1000406343EA85038D6922F0400243EA85035D
:102C20004360846149688163026230BD00000140F5
:102C300030B5026A22F480720262036A4268C46993
:102C400023F4007324F073050C682C438D6843EA69
:102C500005230C4DA8420ED1CD6823F4006343EA4E
:102C600005234D6922F4405242EA05128D6923F48E
:102C7000806342EA05124260C4614968C16303622D
:102C800030BD00000000014030B5026A22F48052DD
:102C90000262046A4268C3690D6823F4E64343EAAA
:102CA00005238D6824F4005444EA0534064DA842F7
:102CB00004D14D6922F4804242EA85124260C36128
:102CC00049680164046230BD0000014070B50446EB
:102CD00000680169E26821F44051114301612169F2
:102CE000A068E26908436169114308432168CA6822
:102CF00049F20C639A430243CA6020684169A269A1
:102D000021F440711143416131492068884202D069
:102D10003049884202D1FEF737F901E0FEF724F985
:102D2000E2690023192164253226B2F5004F62685A
:102D300028D0A0FB0101930F9200FDF74BFA01464A
:102D4000B0FBF5F06FF01802504301EB800006EB8A
:102D50000010B0FBF5F000F0F002B1FBF5F002EB73
:102D60000012B1FBF5F06FF01803584301EB80003F
:102D700006EB0010B0FBF5F000F00F0021681044E6
:102D8000886070BDA0FB010192185B41FDF722FA3B
:102D90000146B0FBF5F00201B1FBF5F06FF018034E
:102DA000584301EB800006EBC000B0FBF5F000F0EB
:102DB000F80002EB4002B1FBF5F0584301EB800054
:102DC00006EBC000B0FBF5F000F00700D6E700000E
:102DD00000100140001401402DE9F04198461746CB
:102DE0000E460446069D27E0681C25D02DB1FDF750
:102DF00081FFA0EB0800A8421ED920680C3050E8E3
:102E0000001F21F4D07140E80012002AF5D120689B
:102E1000143050E8001F21F0010140E80012002AA0
:102E2000F5D1202084F83D0084F83E00002084F88D
:102E30003C000320BDE8F0812068006836EA00000D
:102E400004D00020B842CFD00020F3E70120F9E7FA
:102E5000FEE700002DE9F04FADF22C4D4FF0000AD7
:102E6000DFF864B10446CDF808A45546D0464FF4C7
:102E700080174FF0FF39CDF810B4CDF814A4002618
:102E80003A460DF20C416846FFF780FB98B10128E5
:102E900075D0B8F1000F00DD6D1C052D71DD182017
:102EA000FFF74EFD5FF01800FFF74AFD00200DF21E
:102EB0002C4DBDE8F08FDDF80C2400254A4507D0E5
:102EC00042B19DF80100F1B288420BD0152078E0A4
:102ED0000620E9E70620FFF733FDDDF8140400289B
:102EE000CDD05AE0BEB120460DF10301FDF7A3F9A4
:102EF000DDF80C042146C0F38D020DF58260FDF76C
:102F000069FBD8B31820FFF71BFD1820FFF718FD49
:102F10006FF00100CBE79DF8030088B300212B4A36
:102F20000DF1030002E05354401C491C03780BB11F
:102F3000FF29F8DD02F801A000210DF58362401C95
:102F400002E05354401C491C0378202B01D0102967
:102F5000F7DB02F801A00DF581611046FFF709FDCE
:102F6000DDF808046FF4E821C8420BD91820FFF7F8
:102F7000E7FC1820FFF7E4FC484698E710E016E06D
:102F800008E01DE05846FDF7D5FA0620FFF7D8FC0B
:102F9000432006E00620FFF7D3FCDDF8080486E7AF
:102FA0000620FFF7CDFC4FF00108761C68E71820DB
:102FB000FFF7C6FC1820FFF7C3FC6FF0020076E7AE
:102FC0004320FFF7BDFC5BE700C000086C05002054
:102FD000014A024900F023B8B53000081C00002067
:102FE0000907090E002804DB00F1E02080F8001436
:102FF000704700F00F0000F1E02080F8141D7047CA
:1030000002E008C8121F08C1002AFAD170477047B1
:10301000002001E001C1121F002AFBD170472DE9F9
:10302000F04116460F460446002503E03946B047F6
:10303000641C6D1C20780028F8D12846BDE8F0817A
:1030400010B50420FEF7DDFA06484FF47A710078D7
:10305000B1FBF0F004490968BDE81040B1FBF0F0A5
:10306000FEF7DBBA000000200C00002070B505461A
:1030700000244FF47A7603E0304600F004F8641C34
:10308000AC42F9D370BD70B54FF0E0240022656901
:1030900064214843A169A3698B42FCD002D2A1EB11
:1030A000030102E0A5EB030631440A4419468242BB
:1030B000F1D370BD13B54FF6FF7301226946024884
:1030C000FEF78EFC00981CBD08010020484988B01E
:1030D0004FF000600860FDF71BFEFFF7ABFCFEF74A
:1030E000B3FFFFF723F8FEF7C5FFFEF7E7FFFEF794
:1030F00079FFFFF7A5FFFEF71DFDFEF7F3FCFEF7D6
:10310000E9FC3C4E20213046FDF7EAFD00244FF457
:10311000FA75B8B13849D1E90001059103908DF8ED
:1031200010408DF8184003A96846FDF7C2F805A9BC
:103130006846FDF7A4F831A16846FDF7ACF8002811
:1031400039D04BE02846FFF791FF20213046FDF7AC
:10315000C7FD002842D1FFF7C9F908212A48FEF728
:103160007FFBFEF785FD00214FF48C73F0220846AB
:103170000094FEF733FD0A20FFF778FF3220FEF7B8
:103180004DFE1826CDE900464FF6FF773B461FA2BD
:103190008C2148200294FEF7D7FECDE900463B463D
:1031A0001DA2BC2120200294FEF7CEFEFDF708FAF6
:1031B000FEF7D8FF12E01CA0FFF70AFF4FF0E02057
:1031C00004614461846172B61E4841681E4A116000
:1031D0001E4A1160006880F3088888471CA0FFF72A
:1031E000F7FE21A0FFF7F4FE2846FDF709FCF5E7FE
:1031F00008ED00E00000024000800008415050202F
:10320000464C414700000000C0000020426F6F7430
:103210006C6F6164000000004F562D576174636845
:103220002056322E332E330041505020464C414719
:10323000204F4B2C206A756D7020746F2061707068
:103240000D0A000000C00008180000201400002033
:1032500072756E20696E20626F6F74207768696C7A
:10326000652831290D0A000074686572652069734C
:10327000206E6F206C6567616C204150500D0A0014
:103280000000000000000000000000000000040436
:10329000040404000004000014140A0000000000EC
:1032A0000000000000000A0A1F0A0A1F0A0A0000A4
:1032B00000040E1505060C14150E0400000012156E
:1032C0000D152E2C2A1200000000040A0A361515CE
:1032D00029160000020201000000000000000000AA
:1032E0001008080404040404080810000204040878
:1032F000080808080404020000000004150E0E155A
:103300000400000000000008083E0808000000005B
:1033100000000000000000000202010000000000A8
:10332000003F00000000000000000000000000005E
:10333000000200000020101008080404020201002E
:1033400000000E1111111111110E000000000406F1
:1033500004040404040E000000000E11110804020D
:10336000011F000000000E11100C1010110E0000C3
:103370000000080C0C0A091F081C000000001F01B7
:10338000010F1110110E000000000C12010D13119D
:10339000110E000000001E100808040404040000C0
:1033A00000000E11110E1111110E000000000E117F
:1033B00011191610090600000000000004000000AA
:1033C00000040000000000000004000000040400ED
:1033D00000001008040202040810000000000000B1
:1033E0003F003F0000000000000002040810100829
:1033F0000402000000000E11110804040004000083
:1034000000001C22292D2D1D221C00000000040498
:103410000C0A0A1E1233000000000F12120E1212C4
:10342000120F000000001E1101010101110E000029
:1034300000000F1212121212120F000000001F12D1
:103440000A0E0A02121F000000001F120A0E0A02D2
:103450000207000000001C1201013911120C0000CB
:1034600000003312121E12121233000000001F045B
:1034700004040404041F000000003E0808080808B3
:1034800008080907000037120A060A12123700005E
:103490000000070202020202223F000000003B1B64
:1034A0001B1B15151535000000003B1216161A1AC5
:1034B0001217000000000E1111111111110E000061
:1034C00000000F12120E02020207000000000E118F
:1034D00011111117190E180000000F12120E0A1206
:1034E0001237000000001E1101060810110F000025
:1034F00000001F1504040404040E00000000331231
:1035000012121212120C000000003312120A0A0CDE
:10351000040400000000151515150E0A0A0A000023
:1035200000001B0A0A04040A0A1B000000001B0A10
:103530000A0A0404040E000000001F090804040223
:10354000121F00001C0404040404040404041C00EE
:103550000002020404040808081010000E080808FD
:103560000808080808080E00040A0000000000000F
:103570000000000000000000000000000000003F0C
:103580000204000000000000000000000000000035
:10359000000C121C123C000000030202020E121268
:1035A000120E000000000000001C1202120C0000AD
:1035B00000181010101C1212123C00000000000035
:1035C000000C121E021C000000182404041E040437
:1035D000041E000000000000003C120C021C221C13
:1035E00000030202020E121212370000000404004F
:1035F00000060404040E000000080800000C08087F
:103600000808080700030202021A0A060A1300004B
:103610000007040404040404041F00000000000068
:10362000000F15151515000000000000000F121204
:103630001237000000000000000C1212120C0000F3
:1036400000000000000F1212120E0207000000001E
:10365000001C1212121C103800000000001B060291
:103660000207000000000000001E020C101E0000F7
:1036700000000004041E0404041C000000000000FC
:10368000001B1212123C000000000000001B0A0A7E
:1036900004040000000000000015150E0A0A0000D6
:1036A00000000000001B0A040A1B000000000000CC
:1036B000003312120C08040300000000001E08046E
:1036C000041E000018080808080C0808080818005C
:1036D0000808080808080808080808080604040478
:1036E0000408040404040600160900000000000099
:1036F00000000000000000000000000000000000CA
:103700000000000000000008080808080808000081
:103710001818000000486C2412000000000000008F
:10372000000000000000002424247F1212127F12E7
:10373000121200000000081C2A2A0A0C1828282A45
:103740002A1C080800000022251515152A58545473
:10375000542200000000000C1212120A76252911D2
:10376000916E000000060604030000000000000047
:103770000000000000402010100808080808081089
:10378000102040000002040808101010101010084B
:10379000080402000000000008086B1C1C6B0808ED
:1037A0000000000000000000080808087F08080862
:1037B0000800000000000000000000000000000001
:1037C000060604030000000000000000FE000000E8
:1037D00000000000000000000000000000000000E9
:1037E0000606000000008040402020101008080459
:1037F00004020200000000182442424242424242B7
:1038000024180000000000080E080808080808082E
:10381000083E00000000003C424242202010080404
:10382000427E00000000003C4242201820404042FE
:10383000221C0000000000203028242422227E20A8
:10384000207800000000007E0202021A264040425A
:10385000221C0000000000382402021A26424242C4
:10386000241800000000007E22221010080808081A
:10387000080800000000003C424242241824424252
:10388000423C00000000001824424242645840407C
:10389000241C0000000000000000181800000000B8
:1038A00018180000000000000000000800000000E0
:1038B000000808040000004020100804020408105A
:1038C000204000000000000000007F0000007F009A
:1038D0000000000000000002040810204020100832
:1038E000040200000000003C42424640201010004C
:1038F000181800000000001C225A555555552D423D
:10390000221C00000000000808181414243C224265
:1039100042E700000000001F2222221E22424242F3
:10392000221F00000000007C42420101010101420F
:10393000221C00000000001F22424242424242423A
:10394000221F00000000003F4212121E121202420B
:10395000423F00000000003F4212121E12120202FB
:10396000020700000000003C222201010171212217
:10397000221C0000000000E7424242427E424242D6
:1039800042E700000000003E080808080808080890
:10399000083E00000000007C1010101010101010E5
:1039A0001010110F0000007722120A0E0A121222C4
:1039B0002277000000000007020202020202020257
:1039C000427F000000000077363636362A2A2A2A3F
:1039D0002A6B0000000000E346464A4A52525262F7
:1039E000624700000000001C224141414141414129
:1039F000221C00000000003F424242423E020202FE
:103A0000020700000000001C2241414141414D538A
:103A1000321C60000000003F4242423E121222224D
:103A200042C700000000007C4242020418204042CD
:103A3000423E00000000007F490808080808080806
:103A4000081C0000000000E742424242424242425B
:103A5000423C0000000000E74242222424141418D3
:103A6000080800000000006B4949494955553622B5
:103A700022220000000000E7422424181818242401
:103A800042E700000000007722221414080808080A
:103A9000081C00000000007E2120101008040442D1
:103AA000423F0000007808080808080808080808CD
:103AB000080878000000020204040808081010201A
:103AC00020204040001E1010101010101010101078
:103AD00010101E000038440000000000000000002C
:103AE00000000000000000000000000000000000D6
:103AF000000000FF000608000000000000000000B9
:103B000000000000000000000000003C4278444239
:103B100042FC0000000000030202021A2642424258
:103B2000261A0000000000000000003844020202D3
:103B30004438000000000060404040784442424267
:103B400064D80000000000000000003C427E020239
:103B5000423C0000000000F08808087E08080808C1
:103B6000083E0000000000000000007C22221C0231
:103B70003C42423C000000030202023A46424242FA
:103B800042E700000000000C0C00000E08080808C6
:103B9000083E0000000000303000003820202020C7
:103BA0002020221E0000000302020272120A1612D6
:103BB000227700000000000E08080808080808081E
:103BC000083E0000000000000000007F92929292E8
:103BD00092B70000000000000000003B4642424255
:103BE00042E70000000000000000003C4242424268
:103BF000423C0000000000000000001B2642424240
:103C0000221E0207000000000000007844424242E9
:103C1000447840E000000000000000774C040404F9
:103C2000041F0000000000000000007C42023C4035
:103C3000423E0000000000000008083E0808080896
:103C400008300000000000000000006342424242D1
:103C500062DC000000000000000000E742242414A1
:103C60000808000000000000000000EB494955551D
:103C7000222200000000000000000076241818181E
:103C8000246E000000000000000000E7422424141D
:103C900018080807000000000000007E2210080835
:103CA000447E000000C02020202020102020202062
:103CB0002020C00010101010101010101010101044
:103CC0001010101000060808080808100808080856
:103CD000080806000C32C2000000000000000000CE
:103CE00000000000000000000000000000000000D4
:103CF00000000000000000000000000000000000C4
:103D000000000000000000000000000000000000B3
:103D100000000000000000000000000060006000E3
:103D20006000600060006000600040002000200033
:103D30002000000000000000600060006000000043
:103D400000000000000000006006600630039801DB
:103D50008800440000000000000000000000000097
:103D60000000000000000000000000000000000053
:103D7000000000000000000000000000100210021F
:103D800010021002FE07FE070802080108010801E0
:103D90000801FE07FE0704010401040104010000FC
:103DA0000000000000000000000040004000F001A2
:103DB00058034C03CC034C0058007000E000C001D5
:103DC000C00140034C035C034C034801F000400079
:103DD0004000000000000000000000000E010A0189
:103DE000910091009100510051003A00AE03A002F1
:103DF000500450044804480448048402840300002A
:103E000000000000000000000000000038006C000E
:103E10006C006C006C006C002C0098071C011A01EF
:103E2000330133016301E300C308C6093C07000006
:103E300000000000000000000C001C00100010003A
:103E40000800040000000000000000000000000066
:103E50000000000000000000000000000000000062
:103E600000000000000000000004000200018000CB
:103E700080004000400020002000200020002000A2
:103E8000200020004000400080008000000100026F
:103E90000004000000000000020004000800100000
:103EA0001000200020004000400040004000400082
:103EB0004000400020002000100010000800040016
:103EC00002000000000000000000000000000000F0
:103ED0004000C0004000460C4E0FD001F0015E0FC4
:103EE000460C4000400040000000000000000000C0
:103EF00000000000000000000000000000000000C2
:103F0000000040004000400040004000FE0F400024
:103F100040004000400040000000000000000000A1
:103F20000000000000000000000000000000000091
:103F30000000000000000000000000000000000081
:103F400000000000000000000C001C001000100029
:103F50000800040000000000000000000000000055
:103F6000000000000000000000000000FE0700004C
:103F70000000000000000000000000000000000041
:103F80000000000000000000000000000000000031
:103F90000000000000000000000000000000000021
:103FA00000000000000000001C001C001C000000BD
:103FB00000000000000000000004000600020003F2
:103FC00000010001800080004000400060002000EF
:103FD000200010001000080008000C00040006007B
:103FE0000200000000000000000000000000F000DF
:103FF00098010C030C0306060606060606060606CE
:104000000606060606060C030C039801F0000000E5
:104010000000000000000000000000000000400060
:104020007C00600060006000600060006000600074
:10403000600060006000600060006000FC03000041
:104040000000000000000000000000000000F80078
:104050008401020306030603000300018001C0007F
:10406000600020001000080204020602FE030000A7
:1040700000000000000000000000000000007800C8
:10408000C6008601860180018001C00070008001A9
:10409000000100030003060306038601F800000088
:1040A000000000000000000000000000000080018F
:1040B0008001C001A001A001900188018801840154
:1040C0008201FE0F8001800180018001E007000075
:1040D0000000000000000000000000000000FC03E1
:1040E00004000400040004000400F4008C01040334
:1040F000000300030603060382018401F8000000A8
:104100000000000000000000000000000000E001CE
:1041100018030C030C0004000600E60116030E064B
:1041200006060606060604060C021803F000000048
:104130000000000000000000000000000000F80780
:104140000C06040204010001000180008000400010
:1041500040004000600060006000600060000000FF
:104160000000000000000000000000000000F80156
:104170000C030606060606060C021C03F000C80126
:104180000C0306060606060606060C03F0010000F0
:104190000000000000000000000000000000F0002F
:1041A0000C010C03060206060606060606078C0628
:1041B00078060006000300030C018C017800000063
:1041C00000000000000000000000000000000000EF
:1041D0000000000000000000E000E000E00000003F
:1041E0000000000000000000E000E000E00000002F
:1041F00000000000000000000000000000000000BF
:1042000000000000000000006000600000000000EE
:10421000000000000000000000006000600040009E
:104220002000200000000000000000000004000248
:104230000001800040002000100008000400080079
:104240001000200040008000000100020004000077
:10425000000000000000000000000000000000005E
:104260000000000000000000FE0700000000000049
:10427000FE07000000000000000000000000000039
:104280000000000000000000000000000400080022
:104290001000200040008000000100020004000225
:1042A0000001800040002000100008000400000011
:1042B0000000000000000000000000000000E0031B
:1042C0001806040C040C0C0C0C0C000780014000B8
:1042D0004000400000000000E000E000E0000000BE
:1042E000000000000000000000000000E0001803D3
:1042F0000C02CC0564056605A605B604B604B60432
:10430000B604B602E4010C040C021803F00000002D
:10431000000000000000000000000000000060003D
:1043200060005000D00090009000880088010801D3
:10433000F801040304030402020202060F0F000046
:104340000000000000000000000000000000FE006F
:104350008C030C030C030C030C038C01FC000C03FA
:104360000C020C060C060C060C060C03FE010000E9
:104370000000000000000000000000000000E0035A
:1043800018030C060C0404040600060006000600D0
:104390000600060006040C040C021803F0000000DE
:1043A00000000000000000000000000000007F008E
:1043B0008C010C030C030C060C060C060C060C06F8
:1043C0000C060C060C060C030C038C017F0000008D
:1043D0000000000000000000000000000000FF03DB
:1043E000060306040604060086008600FE0086001A
:1043F000860086000600060406040602FF0300008D
:104400000000000000000000000000000000FF03AA
:10441000060306040604060086008600FE008600E9
:104420008600860006000600060006001F00000049
:104430000000000000000000000000000000F0008C
:1044400018010C020C020402060006000600060019
:10445000C60F060306030C030C031803F00000004C
:1044600000000000000000000000000000000F0F2E
:10447000060606060606060606060606FE070606E3
:104480000606060606060606060606060F0F0000C6
:104490000000000000000000000000000000FC031D
:1044A000600060006000600060006000600060000C
:1044B000600060006000600060006000FC030000BD
:1044C0000000000000000000000000000000F807ED
:1044D000C000C000C000C000C000C000C000C000DC
:1044E000C000C000C000C000C000C000C000C600C6
:1044F00066003C0000000000000000000000CF0348
:104500008601C60046002600160036002E006E000A
:104510004600C60086008601060106038F070000DC
:1045200000000000000000000000000000001F006C
:10453000060006000600060006000600060006004B
:10454000060006000600060406040602FF0300003B
:10455000000000000000000000000000000007074D
:10456000860386038E038E034E034E034A035A03CB
:104570005A033A033203320332031203870700005F
:1045800000000000000000000000000000008E0F8E
:104590000C021C021C023402340264026402440253
:1045A000C402840284038403040304031F02000082
:1045B0000000000000000000000000000000F0000B
:1045C00098010C030C0206060606060606060606F9
:1045D0000606060606060C020C039801F000000011
:1045E0000000000000000000000000000000FF00CC
:1045F0000603060606060606060606068603FE00EF
:104600000600060006000600060006001F00000067
:104610000000000000000000000000000000F000AA
:1046200098010C030C020606060606060606060698
:104630000606060676064C02CC039801F0008007B9
:104640000003000000000000000000000000FF0167
:10465000060306060606060606060603FE004600D4
:10466000C600860086010603060306060F0E00003C
:104670000000000000000000000000000000F80240
:104680000C030602060206000E003C00F800E003E0
:10469000800300070206020606060C03F001000074
:1046A0000000000000000000000000000000FE0705
:1046B00062046108610860006000600060006000E2
:1046C000600060006000600060006000F8010000B1
:1046D00000000000000000000000000000001E07B5
:1046E0000C020C020C020C020C020C020C020C025A
:1046F0000C020C020C020C020C021801F00000006B
:1047000000000000000000000000000000000F0793
:104710000602040104010C010C01880088009800C5
:104720009800500050007000300020002000000071
:104730000000000000000000000000000000F70E74
:10474000620442044604460464026402E402E40291
:104750009C029C0198019801880188008800000053
:1047600000000000000000000000000000009E07A4
:104770000C01080118019000B000600020006000EA
:104780006000D00090008801080104038E0700003B
:1047900000000000000000000000000000000F0FFB
:1047A000060404020C0208011801B800B0007000F1
:1047B000600060006000600060006000F8010000C0
:1047C0000000000000000000000000000000FC07E6
:1047D0000C0206030201800180004000400020001E
:1047E00020001000180008040C040402FE0300005E
:1047F0000000000000000000E00320002000200076
:1048000020002000200020002000200020002000A8
:104810002000200020002000200020002000200098
:10482000E00300000000000000000000040004009D
:1048300008000800100010001000200020004000B8
:104840004000C00080008000000100010002000262
:1048500000020004000000007C0040004000400016
:104860004000400040004000400040004000400048
:104870004000400040004000400040004000400038
:104880007C000000000060009000080100000000B3
:104890000000000000000000000000000000000018
:1048A0000000000000000000000000000000000008
:1048B00000000000000000000000000000000000F8
:1048C00000000000000000000000000000000000E8
:1048D00000000000000000000000000000000000D8
:1048E0000000FF0F00000000180060000000000042
:1048F00000000000000000000000000000000000B8
:1049000000000000000000000000000000000000A7
:104910000000000000000000000000000000000097
:104920000000000000000000F0010C030C03000375
:10493000E0031C030E03060306038E0B7C0E00002F
:1049400000000000000000000000000008000E0051
:104950000C000C000C000C00CC013C031C060C06E7
:104960000C060C060C060C060C021C03E4010000ED
:104970000000000000000000000000000000000037
:104980000000000000000000F0008C018C01860196
:1049900006000600060006020C020C01F0000000F2
:1049A0000000000000000000000000000002C00342
:1049B000000300030003000378038C030C030603C9
:1049C000060306030603060304038C0778010000B0
:1049D00000000000000000000000000000000000D7
:1049E0000000000000000000E001180308020C06AF
:1049F0000C06FC070C000C0018041802E001000073
:104A00000000000000000000000000000000C003E3
:104A10006006300630003000FE013000300030000B
:104A2000300030003000300030003000FC01000069
:104A30000000000000000000000000000000000076
:104A40000000000000000000F007D8068C018C0177
:104A50008C019801F8000C00FC00CC03060306034F
:104A60008E03F800000000000000000008000E00A7
:104A70000C000C000C000C00EC011C030C030C03DC
:104A80000C030C030C030C030C030C039E07000027
:104A900000000000000000000000000000006000B6
:104AA00060000000000040007C00600060006000CA
:104AB000600060006000600060006000FC030000B7
:104AC0000000000000000000000000000000C00125
:104AD000C001000000000001F001800180018001A0
:104AE00080018001800180018001800180018001BE
:104AF000CC007C00000000000000000008000E0058
:104B00000C000C000C000C008C038C008C004C0082
:104B10006C005C008C008C010C010C039E070000F3
:104B200000000000000000000000000040007C00C9
:104B30006000600060006000600060006000600075
:104B4000600060006000600060006000FC03000026
:104B50000000000000000000000000000000000055
:104B600000000000000000003707EE06660666063B
:104B7000660666066606660666066606FF0F00009F
:104B80000000000000000000000000000000000025
:104B90000000000000000000EE011C030C030C03E9
:104BA0000C030C030C030C030C030C039E07000006
:104BB00000000000000000000000000000000000F5
:104BC0000000000000000000F00098010C03060641
:104BD00006060606060606060C030C03F000000097
:104BE00000000000000000000000000000000000C5
:104BF0000000000000000000EE011C030C060C0683
:104C00000C060C060C060C060C031C03EC010C0035
:104C10000C003E000000000000000000000000004A
:104C2000000000000000000078028C030C03060363
:104C3000060306030603060304038C03780300033C
:104C40000003C0070000000000000000000000009A
:104C500000000000000000009F03580638061800FE
:104C6000180018001800180018001800FF000000B5
:104C70000000000000000000000000000000000034
:104C80000000000000000000F0031C030C020C02F6
:104C90003800F000C003040304038C03FC0100008F
:104CA0000000000000000000000000000000000004
:104CB0002000200030003000FE01300030003000C5
:104CC000300030003000300030023002E0010000DF
:104CD00000000000000000000000000000000000D4
:104CE00000000000000008028E030C030C030C03FC
:104CF0000C030C030C030C030C039C07780100004D
:104D000000000000000000000000000000000000A3
:104D100000000000000000001E070C02080108014E
:104D200018019000B000B00060006000200000009A
:104D30000000000000000000000000000000000073
:104D40000000000000000000F70E62044604640248
:104D50006402EC029C01980198019801080000008F
:104D60000000000000000000000000000000000043
:104D70000000000000000000BC0718011001B00096
:104D800060006000E0009000080108039E0700003A
:104D90000000000000000000000000000000000013
:104DA00000000000000000009E0708010801080143
:104DB00090009000B00060006000600020002000C3
:104DC00024001C00000000000000000000000000A3
:104DD0000000000000000000FC018401C400440049
:104DE000600020003000180208020C03FC010000E3
:104DF0000000000000000000000380008000800030
:104E00008000800080008000800040002000400082
:104E10008000800080008000800080008000800092
:104E200000030000400040004000400040004000FF
:104E30004000400040004000400040004000400072
:104E40004000400040004000400040004000400062
:104E500040004000000000000C0010001000100096
:104E60001000100010001000100020004000200072
:104E700010001000100010001000100010001000B2
:104E80000C00000000001C002204C204800300008B
:104E90000000000000000000000000000000000012
:104EA0000000000000000000000000000000000002
:104EB00000000000000000000000000000000000F2
:104EC00000000000000000000000000000000000E2
:104ED00000000000000000000000000000000000D2
:104EE00000000000000000000000000000000000C2
:104EF0000000000000000000000000000000C001F1
:104F0000C001C001C001C001C001C001800080001B
:104F10008000800080008000800000000000000011
:104F200000008001C003C0038001000000000000F9
:104F300000000000000000000000E01CE01CF01E6B
:104F4000700E3807180308018400000000000000FC
:104F50000000000000000000000000000000000051
:104F60000000000000000000000000000000000041
:104F70000000000000000000000000000000000031
:104F800020102010201020102010FE7FFE7F10081F
:104F9000100810081008100810081008FE7FFE7F87
:104FA00008040804080408040804000000000000C5
:104FB00000000000000000000000000000010001EF
:104FC000C0076019103118311839183938017001CB
:104FD000E001C0038007000F001D003900311C31C3
:104FE0001C310C310C11180DE0070001000100010B
:104FF00000000000000000000000000000000000B1
:105000001C1036186308630C6304630463026302B4
:105010006301361D9C3780228063406340632063B8
:105020002063306310221836081C000000000000C6
:105030000000000000000000000000000000000070
:10504000F00098018C018C018C018C018C00CC004B
:105050007800183E1C083608320863046304C30451
:10506000C303834306438E26781C00000000000023
:10507000000000000000000000001C003C003C009C
:105080003000300010000C0006000000000000009E
:105090000000000000000000000000000000000010
:1050A0000000000000000000000000000000000000
:1050B0000000000000000000000000400020001080
:1050C0000008000C00040006000300030003800138
:1050D0008001800180018001800180018001000346
:1050E0000003000300060006000C0008001000206A
:1050F0000040000000000000000002000400080062
:105100001000300020006000C000C000C00080011E
:105110008001800180018001800180018001C00048
:10512000C000C000600060003000100008000400F3
:10513000020000000000000000000000000000006D
:105140000000000000018003800300011C713C7915
:10515000783DC0070001C007783D3C791C71000113
:1051600080038003800100000000000000000000B8
:10517000000000000000000000000000000000002F
:10518000000000000000000100010001000100011A
:1051900000010001FC7F000100010001000100018D
:1051A00000010001000000000000000000000000FD
:1051B00000000000000000000000000000000000EF
:1051C00000000000000000000000000000000000DF
:1051D00000000000000000000000000000000000CF
:1051E000000000001C003C003C00300030001000BB
:1051F0000C0006000000000000000000000000009D
:10520000000000000000000000000000000000009E
:1052100000000000FE7F0000000000000000000011
:10522000000000000000000000000000000000007E
:10523000000000000000000000000000000000006E
:10524000000000000000000000000000000000005E
:10525000000000000000000000000000000000004E
:10526000000018003C003C00180000000000000096
:10527000000000000000000000000040006000206E
:105280000030001000180008000C000400060002A6
:105290000003000180018000C00040006000200089
:1052A00030001000180008000C0004000600020086
:1052B00000000000000000000000000000000000EE
:1052C000C007600C30181830183018200C600C60C3
:1052D0000C600C600C600C600C600C600C601820A2
:1052E000183018303018600CC007000000000000B3
:1052F00000000000000000000000000000000000AE
:1053000000018001F801800180018001800180019D
:105310008001800180018001800180018001800185
:10532000800180018001C003F81F00000000000020
:10533000000000000000000000000000000000006D
:10534000E007101C0818043004300C300C3000301A
:105350000018000800040002000180004000202026
:10536000102008200430FC1FFC1F0000000000007B
:10537000000000000000000000000000000000002D
:10538000E003180E0C0C0C180C180C180018000C6C
:105390000006C003000E00180010003000300C3072
:1053A0000C300C100C18180CE0030000000000007A
:1053B00000000000000000000000000000000000ED
:1053C000000C000E000E000F800E800E400E600ECE
:1053D000200E100E100E080E040E040EFE7F000E9E
:1053E000000E000E000E000E000EC07F0000000038
:1053F00000000000000000000000000000000000AD
:10540000F03FF03F10001000100008000800C8072F
:10541000280C1818081000300030003000300C3014
:105420000C3004180418080CF00300000000000001
:10543000000000000000000000000000000000006C
:10544000800FC010203010301800180008000C0029
:105450008C0F6C183C301C600C600C600C600C6095
:105460001860182030306018C007000000000000ED
:10547000000000000000000000000000000000002C
:10548000F83FF83F1C100C08040804040004000254
:105490000002000100010001800080008000C000C7
:1054A000C000C000C000C000C0000000000000003C
:1054B00000000000000000000000000000000000EC
:1054C000E007300C18180C300C300C301C30381839
:1054D0007008E007B007180E0C1C063806300630BE
:1054E000063006300C18180CE00300000000000025
:1054F00000000000000000000000000000000000AC
:10550000E00318040C080C180610063006300630AC
:10551000063006380C3C1836F03100300018001800
:1055200000180C0C0C060C03F00100000000000039
:10553000000000000000000000000000000000006B
:1055400000000000000000000000000000008001DA
:10555000C003C00380010000000000000000000044
:1055600000008001C003C0038001000000000000B3
:10557000000000000000000000000000000000002B
:105580000000000000000000000000000000C0005B
:10559000C00000000000000000000000000000004B
:1055A000000000000000C000C0008000800040003B
:1055B000400000000000000000000000000000208B
:1055C000001000080004000600038001C000600015
:1055D000300018000C00180030006000C00080018E
:1055E0000003000600040008001000200000000076
:1055F00000000000000000000000000000000000AB
:105600000000000000000000000000000000FE7F1D
:1056100000000000000000000000FE7F000000000D
:10562000000000000000000000000000000000007A
:105630000000000000000000000000000000040066
:105640000800100020006000C00080010003000678
:10565000000C001800300018000C00060003800148
:10566000C0006000200010000800040000000000DE
:105670000000000000000000000000000000C00763
:105680003018083008600C601C601C601C60003022
:10569000001C0006000180008000800080000000E7
:1056A00000008001C003C003800100000000000072
:1056B00000000000000000000000000000000000EA
:1056C000C0076018103018200C2F8C4D864CC64C2B
:1056D000C64C664C66446644662666266615CC1C37
:1056E0000C40082018303018C007000000000000EF
:1056F00000000000000000000000000000000001A9
:10570000C001C001C0014001600320032003200349
:105710003006100610061006F80F080C080C080CCE
:105720000C0C0418041806181F7C00000000000070
:105730000000000000000000000000000000000069
:10574000FE07181C18381830183018301830181880
:10575000180CF8071818183018201860186018600E
:105760001860186018301818FE0F000000000000C4
:105770000000000000000000000000000000000029
:10578000C0276038103018200C400C400400060080
:1057900006000600060006000600060006000C4093
:1057A0000C400C2018303018C0070000000000002A
:1057B00000000000000000000000000000000000E9
:1057C000FE03180E181818301830183018601860BA
:1057D0001860186018601860186018601860183039
:1057E000183018101818180EFE03000000000000F2
:1057F00000000000000000000000000000000000A9
:10580000FE3F1830182018601840180018081808B3
:10581000180CF80F180C18081808180018001800B1
:105820001840184018201830FE3F0000000000000B
:105830000000000000000000000000000000000068
:10584000FE7F1870184018C0188018001810181023
:105850001818F81F18181810181018001800180039
:1058600018001800180018007E000000000000005A
:105870000000000000000000000000000000000028
:10588000C013701C101018100C200C20040006000F
:10589000060006000600060006FC063006300C3046
:1058A0000C30183018303008C0070000000000002D
:1058B00000000000000000000000000000000000E8
:1058C0003F7E0C180C180C180C180C180C180C181F
:1058D0000C180C18FC1F0C180C180C180C180C18B1
:1058E0000C180C180C180C183F7E0000000000006B
:1058F00000000000000000000000000000000000A8
:10590000F81F8001800180018001800180018001F9
:10591000800180018001800180018001800180017F
:105920008001800180018001F81F0000000000005C
:105930000000000000000000000000000000000067
:10594000E07F0006000600060006000600060006CE
:105950000006000600060006000600060006000617
:105960000006000600060006000600060E060E03EE
:105970008E01FC000000000000000000000000009C
:105980007E7C1818180818041806180218019801C7
:105990009801D801B803380318071806180E180C18
:1059A000181C1818183018307EFC00000000000089
:1059B00000000000000000000000000000000000E7
:1059C0007E001800180018001800180018001800B1
:1059D0001800180018001800180018001800180007
:1059E0001840184018201830FE3F0000000000004A
:1059F00000000000000000000000000000000000A7
:105A00001FF81C381C381C381C3C343434343434F3
:105A1000343674326432643264326431C431C43135
:105A2000C431C430C43084309FFC0000000000004A
:105A30000000000000000000000000000000000066
:105A40001F7C1C103C103410341074106410E410CF
:105A5000C410C41184118413041304170416041E03
:105A6000041C041C041C04181F1800000000000083
:105A70000000000000000000000000000000000026
:105A8000C003300C181808100C300C30066006608B
:105A900006600660066006600660066006600C2010
:105AA0000C3008101818300CC00300000000000073
:105AB00000000000000000000000000000000000E6
:105AC000FE0F1818183018601860186018601860F9
:105AD00018301818F80F18001800180018001800CF
