:020000040800F2
:1000000088980120710200086D580008B33F00086D
:100010006D560008D10E0008FD6F000800000000BA
:10002000000000000000000000000000B101000816
:10003000F1120008000000000D0200080967000826
:100040008B0200088B0200088B020008C95E0008C2
:100050008B0200088B0200088B0200088B0200084C
:10006000811400088B020008911400088B0200081C
:100070008B0200088B0200088B0200088B0200082C
:100080008B0200088B0200088B02000800000000B1
:1000900000000000000000000000000097140008AD
:1000A0008B020008D56700088B0200088B0200084D
:1000B0008B0200088B0200088B0200088B020008EC
:1000C0008B0200088B0200088B0200088B020008DC
:1000D0008B020008BD6F00088B02000800000000C2
:1000E000711400088B0200088B0200080000000059
:1000F0000000000000000000000000008B0200086B
:10010000000000008B0200088B0200088B02000830
:1001100000000000000000000000000000000000DF
:100120008B0200088B0200087D1100088B0200087A
:100130008B0200080000000000000000000000002A
:100140000000000000000000000000008B0200081A
:10015000891100088B020008951100088B02000825
:100160008B0200088B020008000000000000000065
:10017000000000000000000000000000000000007F
:10018000000000008B0200080000000000000000DA
:100190008B0200088B020008DFF810D000F0DEFBB5
:1001A00000480047E1410208AFF300808898012031
:1001B0002C4B19680868B0E8F04F80F30988BFF34A
:1001C0006F8F4FF0000080F311887047000000002F
:1001D00008480068006880F308884FF0000080F34A
:1001E000148862B661B6BFF34F8FBFF36F8F00DF25
:1001F00000BF00BF08ED00E0DFF80C00016841F42B
:1002000070010160704700BF88ED00E0EFF30980E6
:10021000BFF36F8F134B1A681EF0100F08BF20ED4D
:10022000108A20E9F04F106009B44FF0500080F3BD
:100230001188BFF34F8FBFF36F8F30F0CFF84FF0BF
:10024000000080F3118809BC19680868B0E8F04F15
:100250001EF0100F08BFB0EC108A80F30988BFF3BE
:100260006F8F704708080020EFF30580704700008B
:100270000648804706480047FEE7FEE7FEE7FEE740
:10028000FEE7FEE7FEE7FEE7FEE7FEE7B9670008E8
:10029000990100082DE9F05F0546002092469B4633
:1002A00088460646814640241BE02846414647468C
:1002B000224600F06BFA53465A46C01A914110D3B9
:1002C00011461846224600F052FA2D1A67EB010833
:1002D0004F4622460120002100F049FA17EB0009A1
:1002E0004E41201EA4F10104DFDC484631462A4677
:1002F0004346BDE8F09F00000649074A086850439E
:1003000043F2390210440860400870470149086010
:1003100070470000300A00206D4EC64140EA0103DC
:100320009B0703D009E008C9121F08C0042AFAD2AB
:1003300003E011F8013B00F8013B521EF9D270476F
:10034000D2B201E000F8012B491EFBD27047002217
:10035000F6E710B513460A4604461946FFF7F0FFC4
:10036000204610BD421C10F8011B0029FBD1801A49
:10037000704710B5002200E0521C835C8C5CA342E5
:1003800001D1002BF8D1D8B2E1B2401A10BD30B57E
:1003900004460020034600E05B1C934203D2E05C6D
:1003A000CD5C401BF8D030BD034611F8012B00F89E
:1003B000012B002AF9D1184670472DE9FE4F8046DF
:1003C00081EA0300C00F0C46009021F0004123F0A9
:1003D0000045B8EB0200A94105D2404621469046AF
:1003E0001C460B46024623F00040104347D0270D21
:1003F000C7F30A00C3F30A510290401A0190402843
:100400006BDAC3F3130040F4801B0098924620B1CE
:100410000023D2EB030A63EB0B0B01985946C0F1A2
:100420004002504600F0A3F906460D465046594694
:10043000019A00F0BBF910EB08006141002487EA43
:10044000115284EAE7731A4340D0009A62B3019ACA
:10045000012A4FEA075215DC001B61EB02014FF045
:10046000004202EA0752CDE90042001C41F580112A
:1004700032462B4600F0F2F903B0BDE8F08F40465B
:100480002146F9E7001B61EB0201001C41F58013D6
:1004900000185B412018A2F5001747EB030140EA62
:1004A000D570B6196D4111E06D084FEA360645EA80
:1004B000C0754FEA0752001B61EB0201001C41F5B9
:1004C000801149084FEA30000019514132462B464D
:1004D00003B0BDE8F04F00F0B2B90098012240002F
:1004E0000023D0EB020263EBE073009821464FEA51
:1004F000E074B8EB000061EB0401E9E783F000432E
:100500005BE781F0004158E72DE9FE4F81EA0304E3
:1005100004F0004421F0004100944FF0000B23F060
:10052000004350EA01045ED052EA03045BD0C3F3F7
:100530000A54C1F30A552C44A4F2F3340194A0FBED
:100540000254C1F3130141F48011C3F3130343F4C4
:10055000801301FB024400FB034E840A970A44EA1D
:10056000815447EA8357A4FB076802958D0A05FB6F
:1005700007854FEA932C04FB0C542705029D4FEA94
:10058000065847EA1637B5EB08056EEB070C870EE1
:10059000920E47EA811742EA8312A7FB0201B6EBEB
:1005A0000B0164EB00042B0D43EA0C335E1844EBA3
:1005B0001C50DA465146E7FB0201C5F313044FEA2B
:1005C0000B3343EA14534FEA0432019C43EA060317
:1005D000A4F10C040294009CCDE900B400F03EF9B3
:1005E00003B0BDE8F08F00200146F9E72DE9F04D9A
:1005F00081EA030404F0004B21F0004514464FF05B
:10060000000A23F0004150EA050220D054EA01021A
:100610001DD0C5F30A570246C5F31303C1F31300F7
:10062000C1F30A5640F4801543F48013A7EB060883
:10063000101BD64608F2FD3873EB050002D308F113
:10064000010801E092185B41B8F1000F03DA0020C5
:100650000146BDE8F08D00204FF480110646844627
:100660000EE0171B73EB050705D3121B63EB0503A5
:1006700006434CEA010C49084FEA300092185B41EE
:1006800050EA0107EDD152EA030012D082EA0400D9
:1006900083EA0501084305D0101BAB4106D20122B5
:1006A000002306E000224FF0004302E06FF0010259
:1006B00053101AEB06004CEB085110EB0A0041EB0B
:1006C0000B01BDE8F04D00F0BAB80EB540F2334171
:1006D00002910021CDE900110A460B4600F0BEF858
:1006E00003B000BD00F0004230F000400AD0C10D60
:1006F00001F56071C0F3160042EA0151C2084007DB
:100700001143704700200146704701F0004330B4A8
:1007100021F0004150EA010206D00A0DA2F56072F4
:10072000C1F31301002A02DC30BC00207047440FE3
:1007300044EAC104C100E01830BC00EBC25000F034
:1007400047B830B50B46014600202022012409E0BD
:1007500021FA02F59D4205D303FA02F5491B04FA7A
:1007600002F52844151EA2F10102F1DC30BD202A59
:1007700004DB203A00FA02F1002070479140C2F1F8
:10078000200320FA03F3194390407047202A04DB2A
:10079000203A21FA02F00021704721FA02F3D040FA
:1007A000C2F120029140084319467047202A06DB17
:1007B000CB17203A41FA02F043EAE07306E041FA2F
:1007C00002F3D040C2F1200291400843194670471D
:1007D0000029A8BF7047401C490008BF20F0010055
:1007E000704710B4B0FA80FC00FA0CF050EA010433
:1007F00004BF10BC704749B1CCF1200421FA04F4C5
:1008000011FA0CF118BF012121430843A3EB0C019D
:10081000CB1D4FEA00614FEA102042BF002010BC00
:10082000704700EBC35010440029A4BF10BC7047B0
:10083000401C490008BF20F0010010BC704710B5F3
:10084000141E73F1000408DA401C41F100019218F3
:100850005B411A4301D120F0010010BD2DE9F04D9C
:1008600092469B4611B1B1FA81F202E0B0FA80F2F1
:1008700020329046FFF77BFF04460F4640EA0A000D
:1008800041EA0B0153465A46084313D0114653EA36
:10089000010019D0C8F140025046FFF777FF054626
:1008A0000E46504659464246FFF761FF084305D0C1
:1008B000012004E020463946BDE8F08D00200543C4
:1008C00046EAE0762C4337430A986305E40AA0EB36
:1008D00008000022FD0A44EA47540A3002D50020ED
:1008E0000146E9E7010510196941DDE908450019EC
:1008F0006941BDE8F04DA2E7C1F30A52C1F313010B
:1009000040F2FF3341F480119A4202DA002001469E
:10091000704740F233439A42A2F2334202DC524221
:10092000FFF734BFFFF723BF30B5041E71F1000499
:1009300004DB4FF00044404264EB0101141E73F1EC
:10094000000405DB1C464FF00043524263EB0403F6
:10095000994208BF904230BD00207047064C074DB9
:1009600006E0E06840F0010394E80700984710347F
:10097000AC42F6D3FFF714FCE0100608001106089D
:1009800070B58C1810F8015B15F0070301D110F851
:10099000013B2A1106D110F8012B03E010F8016B7E
:1009A00001F8016B5B1EF9D12B0705D40023521E01
:1009B0000DD401F8013BFAE710F8013BCB1A921C69
:1009C00003E013F8015B01F8015B521EF9D5A14267
:1009D000D8D3002070BD0000464910B54A6822F403
:1009E00040324A604A6843681A434A6001684A686C
:1009F00022F480724A6001684A68036942EA03226D
:100A00004A6001684A6822F040724A6001684A6898
:100A100083681A434A6001688A6822F400628A6027
:100A200001688A68C3681A438A60816A6FF07062DD
:100A3000D14201688A6822F070628A6001688A681F
:100A40000CD0836A1A438A6001688A6822F0405297
:100A50008A6001688A68C36A1A4301E022F0405242
:100A60008A6001688A6822F002028A6001688A68E6
:100A7000037E42EA43028A6090F820100029016850
:100A80004A680FD042F400624A6001684A6822F462
:100A900060424A6001684A68174C436A04EB43337A
:100AA0001A4301E022F400624A600168CA6A22F433
:100AB0007002CA620168CA6A838B104C04EB03534C
:100AC0001A43CA6201688A6822F400728A60016867
:100AD0008A6890F8303042EA43228A6001688A6866
:100AE00022F480628A6001688A68406942EA802054
:100AF000886010BD0023014000E0FFFF0000F0FF10
:100B0000094808B5016841F002010160006800F081
:100B100002000090054803F039FC28200BF054FB3C
:100B200000F0AAF8002008BD303802405807002025
:100B30002DE9F05F82468B46052400254C4803F0E2
:100B4000C3FC70214A4803F07BFC494803F0FAFCDF
:100B5000AC21474803F074FC454803F0F3FC332113
:100B6000434803F06DFC424803F0ECFC0021404890
:100B700003F066FC3E4803F0E5FC3D4803F0C3FC8F
:100B800050200BF021FB06E005200BF01DFB641E3E
:100B9000E4B200F071F800F06FF8C00702D0002C4A
:100BA000F2D162E0002C60D0314803F08DFC71215D
:100BB0002F4803F045FC2E4803F0C4FC2C4803F0FA
:100BC000FFFB2B4803F023FC294803F0F9FB814687
:100BD000274803F01CFC264803F0F2FB804624481B
:100BE00003F015FC224803F0EBFB0746204803F016
:100BF0000EFC1F4803F0E4FB06461D4803F007FC0B
:100C00001B4803F0DDFB0446194803F045FC184877
:100C100003F079FC45EA090548EA052147EA012184
:100C200008094FF47A714843000D00EE100A3807A6
:100C300046EA1051F8EE400AB2EE040A44EA0120F6
:100C40004FF4FA6180EE801A48430A4901EB1050D4
:100C500000EE900A0020F8EE600A8AED001A80EE9D
:100C6000801A8BED001ABDE8F09F0120FBE7000021
:100C7000580700200CFEFFFF10B50B4803F024FCC2
:100C80007121094803F0DCFB074803F05BFC0648D0
:100C900003F096FB0446044803F0FEFB024803F011
:100CA00032FC204610BD00005807002010B505F0AA
:100CB0002FF89FED091AF0EE400A80EE810ADFED71
:100CC000070A06F08DFDF7EE000A30EEC00ADFEDF0
:100CD000040A20EE200A10BD80E6C54701DE423E30
:100CE000002A2D472DE9F0411D462DED068B1446B7
:100CF0000E4607469DED0D8ADDED0C8A11FB06F0D0
:100D000012FB040000EE100AB8EEC00A07F062F908
:100D1000F0EE400A00EE107AB8EEC00A06F0B2FA21
:100D2000F0EE409A17FB07F014FB040000EE100AE7
:100D3000B8EEC00A07F04EF9F0EE400A00EE106A75
:100D4000B8EEC00A06F09EFAB0EE409A06F0A0FC9B
:100D5000F8EEE80A60EE208AB0EE490A07F072F871
:100D6000F0EE400A00EE105AB8EEC00A20EE80AA5B
:100D7000B0EE690A07F066F84AEE008AB0EE690A3A
:100D800006F086FCF8EEC80A20EE20AAB0EE490A6A
:100D900007F058F84AEE408AB0EE690A06F078FC8F
:100DA000F0EE400A00EE105AB8EEC00A20EE809A2B
:100DB000B0EE690A07F046F8F8EEC80A00EE809A2D
:100DC000B0EE680AF0EE490A06F05CFA10EE100A7E
:100DD000FFF788FC9FED091B53EC112BFFF794FBE9
:100DE0009FED081B53EC112BFFF700FCFFF78DFC68
:100DF000BDEC068B00EE100ABDE8F081000000009B
:100E0000008066404AD8124DFB210940064882B056
:100E1000016841F001010160006800F001000090EC
:100E2000024802B003F0B2BA30380240680700202E
:100E300008B50B46009202465021024803F0ACFB75
:100E400008BD00006807002008B50B460092024666
:100E50005021024803F012FC08BD00006807002082
:100E600070B500252C46154800F06EFD052113488D
:100E700000F014FD114800F0B3FC05440F4800F0E9
:100E8000C9FD01200BF0A0F9641CE4B2082CEAD3E0
:100E9000E8084000FFF719FC9FED091B53EC112BEC
:100EA000FFF732FB9FED081B53EC112BFFF72CFBD8
:100EB000FFF72BFC00EE100A70BD00003C0A00207A
:100EC0006666666666660A40000000000000303F05
:100ED000FEE7000030B587B014216846FFF737FA07
:100EE0001348016841F002010160016801F002014C
:100EF0000591016841F00101016000684FF4004470
:100F000000F0010005900120CDE90040029003208F
:100F1000084D03906946284601F04EF8012221460B
:100F2000284601F046F9044803F030FA07B030BD16
:100F3000303802400000024048070020022000F044
:100F400023B800001CB501A800900423032215213A
:100F50000C4803F021FB9DF804109DF8050001F0FA
:100F60000F0140EA01210748083801609DF8071089
:100F70009DF806200F3102F00F0241EA0221416084
:100F80001CBD00004807002002461521014803F05F
:100F900047BB0000480700200B46024615210148C8
:100FA00003F0A0BB4807002070B50A4D4FF4004481
:100FB00000222146284601F0FCF80A2000F046FFF6
:100FC00001222146284601F0F4F8BDE87040642073
:100FD00000F03CBF000002400321E520FFF7DCBF2A
:100FE000FFF7E2BF10B50C4603464979601E085C66
:100FF0002B2806D02D280ED02A2816D02F281ED018
:1010000026E0187D03EB800010ED020A50ED010A86
:1010100070EE200A1CE0187D03EB800010ED020A40
:1010200050ED010A70EE600A12E0187D03EB8000BB
:1010300010ED020A50ED010A60EE200A08E0187D6A
:1010400003EB800010ED020A10ED011AC0EE010A58
:10105000184604F019FC184604F016FCB0EE600ABD
:10106000184604F021FC2046BDE8104005F021BBE5
:10107000114D124F124E00244FF4FA782878B8B16F
:101080003C802C7000F074F840B104F029FD8068B9
:10109000B04203D00B4804F02FFD09E000F068F8DF
:1010A00030B904F01DFD8068B04201D104F0CAFCE3
:1010B000404624F0E7FBE1E7060000205C0000204A
:1010C00008010020FC0000207FB504F009FD8068C5
:1010D0001E49884236D11E4D02A8296888471D48FE
:1010E0009DF80D20194C01788A4208D002701AA18F
:1010F000684606F08FF8694660691BF04FFF184894
:101100009DF80C2001788A4208D0027012A168462E
:1011100006F080F8694620691BF040FF686A804746
:10112000104D01462870401E63280CD8606814F0EA
:1011300098FF2A780CA1684606F06CF86946E068CA
:101140001BF02CFF7FBD002028707FBD0801002010
:10115000640000203D0300202530326400000000C0
:101160003C030020410300202532642525000000B7
:101170000421014801F010B800000240014800F0CD
:10118000F3BC0000FC0A0020014800F0EDBC0000A8
:10119000E80B0020014800F0E7BC0000480C0020EC
:1011A00001681823CAB2103AB2FBF3F2054B6FF391
:1011B0000901032A9B5CC36500D9091D81650846A6
:1011C000704700006C7A040810B5014600208B6956
:1011D0008A6A4FF0C07453B1B3F5005F15D072B195
:1011E000012A0CD0022A0AD0032A09D104E01AB13C
:1011F000012A06D0022A03D1C96AC90100D50120FB
:1012000010BDC96AA142FAD010BD002AF7D0012A48
:10121000F2D0022AF3D0032AF3D010BD30B504680F
:10122000256825F480252560046863608368402B69
:10123000036803D099600068C26030BD9A6000689E
:10124000C16030BD0EB5264E264C00258DF80850E5
:101250000123002202A9306824F050FB78BB94F8E7
:1012600031008DF8000020480222102100788DF80E
:101270000100684605F0F7F8002201A91B4801F0BB
:101280009FFC03222021684605F0DAF89DF8000053
:101290009DF80610884216D094F82C0010B9616CA5
:1012A000002088479DF806008DF800008DF8025058
:1012B0008DF8015003222021684605F0D4F86420FF
:1012C00024F0E0FAC2E7206C80479DF806108DF804
:1012D00000108DF80200000A8DF80100EAE7000016
:1012E0005800002064000020DC010020840A002057
:1012F000704708B50A200AF067FF6A4602210020FD
:10130000FFF796FD9DF80000552803D19DF80100D8
:10131000AA2821D055208DF80000AA208DF80100C0
:101320000A200AF051FF6A4602210020FFF78CFDD7
:10133000002000900A200AF047FF6A4602210020A0
:10134000FFF776FD9DF80000552803D19DF80100B8
:10135000AA2801D0012008BD002008BDFFF756BD16
:1013600010B5292000F00CF84FF6FF7101EA0024B7
:10137000282000F005F8204310BD0020AFF30080C6
:1013800002462421014803F04BB90000C4070020A5
:101390000B4602462421014803F0A4B9C4070020EB
:1013A00010B5052404E0642000F050FD641EE4B292
:1013B000FFF7E3FF362802D0002CF4D106E02CB171
:1013C00000210120FFF7E4FF002010BD012010BD27
:1013D00010B5052404E0642000F038FD641EE4B27A
:1013E000FFF7CBFF362802D0002CF4D106E02CB159
:1013F00008210120FFF7CCFF002010BD012010BD07
:1014000038B519480524016841F0020101600068FF
:1014100000F002000090154802F0B8FF04E06420DC
:1014200000F014FD641EE4B2FFF7A7FF362802D0D7
:10143000002CF4D116E0ACB100210120FFF7A8FF89
:1014400000210820FFF7A4FF7F210A20FFF7A0FF5B
:1014500047210D20FFF79CFF00210E20FFF798FF8A
:10146000002038BD012038BD30380240C4070020BC
:10147000024901204870000300F092BD04000020E2
:10148000024901208870042000F08ABD0400002079
:10149000102000F085BD202000F082BD7CB50F4CEF
:1014A0000F4DB4F85E00563400EB8000400001B2EE
:1014B000A8681AF0E7FB22890AA1684605F0AAFE8F
:1014C000694628691BF06AFD228807A1684605F075
:1014D000A1FE6946E8691BF061FD7CBD6400002047
:1014E000340100203A2564003A25646D00000000B4
:1014F0007CB5104C104D002214F8491F686815F097
:101500000CF861780022A86815F007F822780BA182
:10151000684605F07FFE6946E8681BF03FFD62788B
:1015200006A1684605F076FE694628691BF036FD7F
:101530007CBD0000640000207402002025640000CF
:1015400072B6FEE72DE9F0411A4F002507F124009D
:101550003D803C4687F8745014210646FEF7F7FE9E
:1015600015A0606314A0A06413A0E06513A0206719
:101570000020A41C002104EBC00200BF22F811507F
:10158000491CC9B20429F9D3401CC0B20428F1D3C4
:10159000204609F003FA204609F000FAB91C30464B
:1015A0002EF0FEFB064831468068BDE8F04115F09C
:1015B0008FBB0000840D00200A0000000000000026
:1015C0009C020020054900200A5C0AB100207047F7
:1015D000401C80B21028F7D301207047FC0D00207A
:1015E00010B500200F4A01461154401CC0B211280A
:1015F000FAD300201318401CC0B283F864101028DE
:10160000F8D3FF2002F8740F10215070082205480B
:1016100013F08CFF0349BDE8104001F114002EF0D7
:101620009BBB0000FC0D002070B5022004F068FD9B
:101630000546012004F064FD0446002004F060FD2E
:1016400044EA002145EA0120010201D540F07F4033
:1016500070BD70B5052004F053FD0546042004F06C
:101660004FFD0446032004F04BFD44EA002145EA07
:101670000120010201D540F07F4070BD78B5002403
:10168000009490F83C20012A19D0012280F83C20D7
:101690000A6807230568092A13D9EE680A3A02EB9B
:1016A000420293409E43EE600B788A680A3B03EB4C
:1016B00043039A400368DD682A43DA6010E00220A1
:1016C00078BD2E6902EB420293409E432E610B7857
:1016D0008A6803EB43039A4003681D692A431A6131
:1016E0004A681F23072A13D205686E6B521E02EB4D
:1016F000820293409E436E630A8893B20A79521E17
:1017000002EB820293400268556B2B43536327E040
:1017100005680D2A12D22E6BD21F02EB8202934073
:101720009E432E630B790A88DB1F92B203EB83037F
:101730009A4003681D6B2A431A6311E0EE6A0D3A62
:1017400002EB820293409E43EE620B790A880D3BC6
:1017500092B203EB83039A400368DD6A2A43DA629C
:101760001B4B0568194A9D420AD10D68122D07D1FD
:10177000556825F400055560556845F480055560A9
:1017800005689D421DD1134D0B68AB4201D0112B52
:1017900017D1536823F480035360536843F4000364
:1017A00053600968A9420CD10B490C4A0968B1FB86
:1017B000F2F101EB8101490000E0491E009100298E
:1017C000FBD180F83C40002078BD000000230140A0
:1017D00000200140120000103C07002040420F0092
:1017E0000068C06C704770B504004FF0000503D06E
:1017F000206C002610B107E0012070BD204600F0EB
:101800001DF8666484F83C60206CC00610D4206C1F
:1018100020F4885040F0020020642046FFF7DCF8F6
:101820006664206C20F0020040F00100206400E0BB
:10183000012584F83C60284670BD000010B586B0D4
:10184000044614216846FEF782FD1149206888424B
:101850001CD110480021026842F4807202600068C6
:1018600000F4807005900B481438026842F00102C1
:101870000260006800F00100059002200090032043
:10188000CDE901016946044800F096FB06B010BDA1
:101890000020014044380240000002402DE9F041A0
:1018A000044600680D4681684FF0000749050BD5D6
:1018B0008068C00508D5206C40F02000206484F8C2
:1018C0003C700120BDE8F08100F078FC064613E092
:1018D000681C11D025B100F071FC801BA8420BD907
:1018E00020680068800707D4206C40F00400206462
:1018F00084F83C700320E5E7206800688007E7D59E
:1019000021686FF012000860206C40F400702064C1
:101910002068816811F0405F13D1217E89B9C16AC6
:1019200011F4700F02D0806840050AD4206C20F4B6
:1019300080702064206CC00403D4206C40F001004F
:1019400020640020BEE7000018B50021009190F847
:101950003C20012A07D0012280F83C2002689368CD
:10196000DB0702D011E0022018BD936843F00103A9
:101970009360244A244B1268B2FBF3F202EB42025A
:1019800000E0521E0092002AFBD102689368DB0738
:101990002ED0036C40F20164A34343F480730364CC
:1019A00053685B0505D5036C23F4005343F480535F
:1019B0000364036CDB0404D5436C23F00603436427
:1019C00000E0416480F83C1010496FF0220313607E
:1019D00049680068C90602D00D49884210D1816863
:1019E00011F0405F0CD1816841F08041816007E0D7
:1019F000016C41F010010164416C41F0010141644E
:101A0000002018BD3C07002040420F000023014089
:101A10000020014090F83C1001290CD0012180F8F1
:101A20003C1001688A6822F001028A6001688968B6
:101A3000C90702D007E002207047016C21F48851E9
:101A400041F001010164002180F83C100846704714
:101A50002DE9F0410446876D00F0B0FB064694F88E
:101A600035000025022806D08020606584F83450B7
:101A70000120BDE8F0812068016821F016010160B5
:101A80002068416921F080014161206C08B9A06C97
:101A900020B12068016821F0080101602068016818
:101AA00021F0010101600CE000F088FB801B05289B
:101AB00007D920206065032084F8350084F834506D
:101AC000D7E720680068C007EED194F85C103F208B
:101AD0008840B860012084F8350084F83450002034
:101AE000C7E790F83510022903D080214165012015
:101AF0007047052180F835100068016821F0010168
:101B000001600020704770B504002BD094F83500B8
:101B1000022826D02068016821F0010101602068B8
:101B20000025056020684560206885602068C560E4
:101B3000206805612168212048612046FFF730FBBD
:101B4000E56325646564A564E564256594F85C2017
:101B50003F2191408160656584F8355084F83450A8
:101B6000002070BD012070BD2DE9F84304464FF000
:101B70000009CDF8009063484FF41651A56D006838
:101B8000B0FBF1F72E6894F85C10082000FA01F120
:101B900031420FD021680A6852070BD50A6822F03B
:101BA00004020A6094F85C108840A860606D40F000
:101BB0000100606594F85C104FF0010808FA01F02C
:101BC000304208D021684969090604D5A860606DD3
:101BD00040F00200606594F85C10042088403042B8
:101BE00008D021680968890704D5A860606D40F0B5
:101BF0000400606594F85C1010208840304218D0D2
:101C000021680968090714D5A8602068016849039C
:101C100004D50068000308D5A16C07E00168C90578
:101C200003D4016821F008010160216C09B120464C
:101C3000884794F85C1020208840304231D02168D9
:101C40000968C9062DD5A86094F8350005282068D4
:101C5000016806D0490347D5006800031DD4616CB4
:101C60001CE021F0160101602068416921F080012B
:101C70004161206C08B9A06C20B12068016821F096
:101C80000801016094F85C103F208840A86084F847
:101C9000358084F83490216D1FE0E16B09B1204656
:101CA0008847606D00282BD0606DC00714D00520D8
:101CB00084F835002068016821F001010160009876
:101CC000401C0090B84203D820680068C007F6D1D5
:101CD00084F8358084F83490E16C002910D001B08C
:101CE0002046BDE8F04308470168C905D5D401681E
:101CF00021F01001016084F8358084F83490CCE73D
:101D0000BDE8F8833C0700202DE9F041044600F0CF
:101D100055FA06465CB1022084F83500002584F8A7
:101D200034502068016821F0010101600DE00120BC
:101D3000BDE8F08100F042FA801B052805D920207B
:101D40006065032084F83500F2E720680068C0076A
:101D5000F0D12268116820480140D4E901031843FA
:101D6000D4E903363343184363691843A36918431E
:101D7000E3691843236A18430843616A042903D1BD
:101D8000D4E90B1319430843106020684069666A60
:101D900020F0070130460E43012704280CD1A06A29
:101DA0000643E06A40B12046FFF70EFA20B140201A
:101DB000606584F83570BAE7206846612046FFF711
:101DC000EFF994F85C203F2191408160656584F8CB
:101DD00035700020ACE700003F8010F02DE9F041A5
:101DE0000446866D90F83400002501280DD00120AE
:101DF00084F8340094F835700020012F07D084F85F
:101E0000340002252846BDE8F0810220FBE70227C6
:101E100084F8357060652046FFF700FA94F85C108E
:101E20003F208840B0602068016841F016010160E1
:101E3000206C20B12068016841F008010160206831
:101E4000016841F001010160DCE7000070B5044663
:101E500000F0B4F90546601C02D004480078044440
:101E600000F0ACF9401BA042FAD370BD300700204F
:101E70002DE9F04F0022DFF808B101264FF00F09DD
:101E800006FA02F401EA0403A34274D122F0030724
:101E90005F44D7F8088895074FEA157C09FA0CFAD1
:101EA0000AEA0805DFF8DC80404502D14FF000085F
:101EB0001DE0DFF8D480404502D14FF0010816E064
:101EC000DFF8C880404502D14FF002080FE0DFF88C
:101ED000C080404502D14FF0030808E0DFF8B4802D
:101EE000404502D14FF0040801E04FF0070808FA1E
:101EF0000CF8A84522D1284DD5F800C02CEA030CD7
:101F0000C5F800C02D1DD5F800C02CEA030CC5F89B
:101F100000C0214D0C35D5F800C02CEA030CC5F8E3
:101F200000C02D1FD5F800C02CEA030CC5F800C076
:101F3000D7F8085825EA0A05C7F808580568570071
:101F40000323BB409D430560D50800EB8505D5F80C
:101F500020C057074FEAD76809FA08F72CEA070CA0
:101F6000C5F820C0C5689D43C5604568A543456068
:101F700084689C438460521C102A81D3BDE8F08F92
:101F8000003001400000024000040240000802400E
:101F9000000C024000100240003C0140704700006D
:101FA000044910B50A68024202D00860FFF7F6FF44
:101FB00010BD0000143C01402DE9F84FDFF8B8A136
:101FC0000022012403254FF00F090AF1040BAAF1A6
:101FD000040E00BF0B6804FA02F63340B34273D11B
:101FE0000F7907F00307012F01D0022F16D1876860
:101FF0004FEA420805FA08FC27EA0C07D1F80CC0A2
:102000000CFA08FC4CEA070CC0F808C04768B74354
:102010000E79C6F3001696403E4346600E79F643AD
:10202000B6070DD0C768560005FA06FC27EA0C076C
:10203000D1F808C00CFA06FC4CEA070CC0F80CC03A
:102040000E7906F00306022E10D1D60800EB8608A2
:10205000D8F8206057074FEAD76C09FA0CF7BE434F
:102060000F6907FA0CF73743C8F8207006684FEA83
:10207000420C05FA0CF7BE430F7907F0030707FA85
:102080000CF7374307604E6816F4403F6DD03B4E67
:10209000376847F480473760366822F0030706F454
:1020A00080460096364E07EB060CDCF8086897076A
:1020B0003F0F09FA07F826EA0806DFF8C88040450E
:1020C00003D14FF000081EE04FE0DFF8BC80404530
:1020D00002D14FF0010816E0DFF8B080404502D190
:1020E0004FF002080FE0DFF8A880404502D14FF022
:1020F000030808E0DFF89C80404502D14FF0040857
:1021000001E04FF0070808FA07F848EA0608CCF89B
:102110000888DAF800605746D1F804C09E435FEAA9
:10212000CC2C00D51E433E60DBF800605F46D1F842
:1021300004C09E435FEA8C2C00D51E433E60DEF84F
:1021400000607746D1F804C09E435FEA8C3C00D51E
:102150001E433E60084F083F3E68D1F804C09E43CE
:102160005FEACC3C00D51E433E60521C102AFFF4AF
:1021700031AFBDE8F88F0000083C01404438024010
:10218000003001400000024000040240000802400C
:10219000000C0240001002400069084000D00120FD
:1021A0007047426921EA02030A4043EA0241816121
:1021B00070470AB1816170470904FBE701488068F4
:1021C00070470000300700200248816802781144FF
:1021D00081607047300700200B4810B5016841F45A
:1021E00000710160016841F480610160016841F49F
:1021F00080710160032000F0A9F80F2000F006F8BC
:1022000000F04AF8002010BD003C024030B5054601
:102210001C4887B00024016841F00101016000689A
:1022200006A900F00100009001A800F001FA00F0FA
:102230002FFA1549154AB0FBF1F11548491E026005
:1022400040F2E732C0E90324C0E90114846101F0DF
:1022500069F8040012D10E4801F092F804000DD183
:10226000192000F046F8102D07D200222946192027
:1022700000F04CF80748056000E0012407B0204654
:1022800030BD00004438024040420F0000000140D1
:10229000C40C0020340700200C4882B0016841F4CF
:1022A00080410160006800F4804000900748001FF2
:1022B000016841F0805101600068002200F0805008
:1022C00000900F21901E02B000F020B84438024068
:1022D00000280DDB00F01F02012191404009800021
:1022E00000F1E020C0F88011BFF34F8FBFF36F8F74
:1022F0007047002809DB00F01F02012191404009CE
:10230000800000F1E020C0F800117047F0B40E4BDF
:102310001B680C46C3F30223C3F10705042D00D943
:102320000425191D072901D2002300E0DB1E012628
:1023300006FA05F1491E214099409E40761E16403E
:102340003143F0BC04F08DBF0CED00E0064900F015
:10235000070208684FF6FF03184040EA0220034ACC
:1023600010430860704700000CED00E00000FA0523
:102370000B4A136823F00303034313600948026800
:1023800042F004020260012907D040BF20BF20BFF5
:10239000016821F004010160704730BFF8E70000D8
:1023A0000070004010ED00E02DE9F843044600689D
:1023B0004FF00109C1074FF0000601D1400729D5B0
:1023C000DFF82081C8F86860FFF7F8FE0746464D41
:1023D00005E000BFFFF7F2FEC01B022859D82868AD
:1023E0000001F7D4A068217B800140EA0170616898
:1023F00008433D4984310860C8F86890FFF7DEFE65
:10240000074604E0FFF7DAFEC01B022841D828681F
:102410000001F7D52078800752D533484030016855
:1024200041F0805101600068304D00F08050009014
:10243000286840F480702860FFF7C0FE074604E07B
:10244000FFF7BCFEC01B022823D82868C005F7D5BB
:10245000254D7035286810F4407020D0218A01F491
:10246000407181421BD02868214920F44070C1F896
:1024700000900E6028602868C00710D0FFF79EFE0D
:10248000064641F2883707E0FFF798FE801BB84206
:1024900002D90320BDE8F88328688007F4D52169B4
:1024A0001148C1F301220830032A12D0016821F437
:1024B000F81101602868218AC1F30B0108432860E4
:1024C0002078000703D50B49207DC1F8E0010020EA
:1024D000E0E70268084B22F4F81219400A43026050
:1024E000E8E700000000474200380240007000406A
:1024F000400E474200104742FFFCFF0F2DE9F04716
:102500000E46050065D0DFF81481D8F80000F7B258
:1025100000F00700B04207D288F80070D8F8000039
:1025200000F00700B04254D128683D4C810712D515
:10253000400703D5206840F4E05020602878000769
:1025400003D5206840F4604020602068A96820F02E
:10255000F000084320602878C0072DD03049686813
:102560000839012812D0022813D0032811D0096895
:10257000890700292DDA216821F003010143216038
:10258000FFF71CFE814641F2883A0EE00968890394
:10259000EFE709688901ECE7FFF710FEA0EB0901FE
:1025A000514502D90320BDE8F0872068696800F032
:1025B0000C00B0EB810FEFD1D8F80010404601F0CD
:1025C0000701B14207D90770006800F00700B04268
:1025D00001D00120E7E72878400705D52068E968A1
:1025E00020F4E050084320602878000706D52068D2
:1025F000296920F4604040EAC100206000F058F8EA
:102600002168084AC1F30311515CC84006490860BB
:1026100006480068FFF7FAFD0020C4E7003C0240CE
:1026200008380240747A04083C0700203407002070
:102630000F2202600C4A136803F00303436013681F
:1026400003F0F0038360136803F4E053C36012687F
:102650004FF4E05303EAD20202610448006800F03C
:10266000070008607047000008380240003C024044
:102670000448054900680968044AC1F38221515C95
:10268000C84070473C07002008380240847A04089C
:102690000448054900680968044AC1F34231515CA5
:1026A000C84070473C07002008380240847A04087C
:1026B000154810B5006810F00C02144813D01449E6
:1026C000042A0FD0082A0ED10F4C241F2268236839
:1026D00002F03F025B0207D52068C0F38810A0FB20
:1026E000010106E0084610BD2168C1F38811A1FB75
:1026F00000010023FDF7CEFD2168C1F30141491C13
:102700004900B0FBF1F010BD083802400024F4008D
:1027100040787D012DE9F84F04006ED02078DFF875
:102720004C93C007A9F104054AD009F104000168DF
:10273000C1F38101012908D00068C0F3810002289B
:102740000AD1D9F80000400206D52868800337D5A1
:1027500060680028E1D033E06068B0F5803F10D0B9
:10276000B0F5A02F286810D020F4803028602868A9
:1027700020F4802028606068A8B1FFF71FFD06469E
:102780000DE0286840F48030F4E740F480202860B1
:10279000F7E700BFFFF712FD801B642873D8286895
:1027A0008003F7D50CE0FFF709FD064605E000BF02
:1027B000FFF704FD801B6428F0D828688003F7D455
:1027C0002078DFF8AC8280074FF0000A3ED5A7489A
:1027D000001D016811F00C0F08D00068C0F38100E3
:1027E00002280BD1D9F80000400207D428688007DE
:1027F00016D5E068012800D112E033E1E068B8B1F5
:102800000120C8F80000FFF7D9FC064605E000BF2C
:10281000FFF7D4FC801B0228C0D828688007F7D5B2
:102820002868216920F0F80040EAC10028600DE026
:10283000C8F800A0FFF7C2FC064604E0FFF7BEFCA4
:10284000801B02281FD828688007F7D4207800074B
:1028500022D5864F87486169703771B101210160C7
:10286000FFF7ACFC064604E0FFF7A8FC801B02283B
:1028700009D838688007F7D50EE0C0F800A0FFF748
:102880009DFC064605E082E0FFF798FC801B0228CD
:102890007DD838688007F7D42078400768D5DFF8FE
:1028A000CCB100270BF13C0BDBF80000C0000BD4CF
:1028B000DBF8001041F08051CBF80010DBF800008D
:1028C000012700F0805000906B4E3068C00510D496
:1028D000306840F480703060FFF770FC009005E0D5
:1028E000FFF76CFC0099401A022850D83068C005E8
:1028F000F6D55E4EA0686C3601280FD005283068EA
:1029000010D020F001003060306820F0040030600A
:10291000A068B8B1FFF752FC00900FE0306840F0BB
:102920000100F4E740F004003060F7E7FFF746FCF1
:102930000099411A41F28830814266D83068800798
:10294000F4D50EE0FFF73AFC009007E0FFF736FC05
:102950000099411A41F28830814256D83068800788
:10296000F4D42FB1DBF8001021F08051CBF8001027
:10297000A069C8B33D49091D0968C1F38101022955
:102980004AD00228504607D0C8F8600000E03CE07A
:10299000FFF714FC04463BE04746C8F86000FFF729
:1029A0000DFC064605E000BFFFF708FC801B02286F
:1029B0002BD828688001F7D4D4E907010843A16A1D
:1029C0002E4A490802EB0141626A41EA821108433A
:1029D00094F82C1040EA0161C9F800100120386613
:1029E000FFF7ECFB044606E03EE000BFFFF7E6FB26
:1029F000001B022809D828688001F7D534E000BF01
:102A0000FFF7DCFB001B022802D90320BDE8F88F8A
:102A100028688001F4D427E00128F7D0D9F8000015
:102A2000E26900F4800191421CD1226A00F03F016A
:102A3000914217D147F6C071626A0140B1EB821F23
:102A400010D1A26A4FF0FF3300F4403103EB520281
:102A5000B1EB024F06D194F82C1000F07060B0EB8F
:102A6000016F01D00120D1E70020CFE704380240F8
:102A700000004742800E4742007000400000FFFF08
:102A80000068503050F8210070470068503040F81E
:102A9000212070472DE9F8478A4639494FF4FA4C0E
:102AA00091460F684FF47A72B7FBFCF151430091E5
:102AB000017F012962D00125057702214177026853
:102AC000CA21516202685321516201688A684FF03D
:102AD000000352054FF0FF044FF0030608D5009A9B
:102AE000B2F10108CDF8008018D3CA685207F6D4B5
:102AF0008A6822F480628A600168CA6802F08002F3
:102B000062F49062CA60B7FBFCF14FF47A725143F1
:102B100000910168009A571E009705D24C624677D3
:102B200003770320BDE8F887CA685207F2D58A68A0
:102B300022F007028A6001688A6842EA09028A6014
:102B40000268C2F814A00F490A6842F480020A60C1
:102B50000C4908310A6842F480020A6001688A68F8
:102B600042F480428A6001688A6842F480628A6026
:102B700001684C62457703770020D3E70220D1E754
:102B80003C070020003C01407047000010B504469F
:102B90000068C068400509D52046FFF7F5FF2068AA
:102BA000C16801F0800161F49061C16003494FF494
:102BB000800008600120607710BD0000143C0140D7
:102BC00010B500680B4641680D480140080CD870EC
:102BD000C1F304245C7001F03F049C70C1F34231E6
:102BE000197052B903F0EAF8D870587803F0E6F893
:102BF0005870987803F0E2F89870002010BD00003B
:102C00003FFFFF0010B50B460168896A59600168F3
:102C10000969C1F30E019960006801680D4801401F
:102C2000C1F305401870C1F306245C7001F07F0405
:102C30009C70890DD97052B903F0C0F8187058789B
:102C400003F0BCF85870987803F0B8F8987000203A
:102C500010BD00007F7F7F0010B5040002D0607FB0
:102C600010B106E0012010BD00202077204600F0C2
:102C700039F8022060772168CA2048622168532011
:102C80004862204603F0B0F830BB20688168144ADF
:102C9000114081602168886862681043D4E9042388
:102CA0001A43104388602168E06808612068016960
:102CB000228941EA02410161204603F0B9F858B97E
:102CC00021680A6C22F480220A6421680A6CA369D4
:102CD0001A430A64012161772268FF21516210BD05
:102CE000BFFF8FFF10B586B0044618216846FDF778
:102CF0002EFB0D492068884214D102200090C001AB
:102D000004906846FFF750FB08B1FEF719FC07492D
:102D100001200860002205210320FFF7F7FA0320B5
:102D2000FFF7E7FA06B010BD002800403C0E47420E
:102D300070B50446007F0B46012819D0012626777E
:102D400002206077B2B19878D97840EA0145587886
:102D50001978000240EA413005432168CA204862E0
:102D6000216853204862204603F03EF8D0B122E0AB
:102D7000022070BD5878C10603D500F0EF000A307C
:102D80005870D87803F023F80204587803F01FF83D
:102D900042EA0022987803F01AF80243187842EACF
:102DA0004035DAE70748054020684560204603F0D3
:102DB0003FF800B966772268FF2151620021217730
:102DC00070BD00003FFFFF002DE9F0410446007F89
:102DD0000D46012823D04FF0010884F81C80022002
:102DE00060772068002780684FEA4060D2B10028F1
:102DF00000DBEF70A878297840EA01466878E97826
:102E0000000240EA815006432168CA2048622168D6
:102E100053204862204602F0E7FFB8B12CE00220C0
:102E2000BDE8F081002800DBEF70287802F0CFFFCA
:102E30000204687802F0CBFF42EA0022A87802F090
:102E4000C6FF0243E87842EA8056DDE70D480640B7
:102E5000206806602068816821F480218160D5E9BE
:102E60000301084321688A6810438860204602F005
:102E7000DFFF08B984F81D802268FF21516227779F
:102E8000CEE700007F7F7F0070B504460068C16810
:102E900021F0A001C160FFF791F905464FF47A7661
:102EA00007E000BFFFF78AF9401BB04201D90320B9
:102EB00070BD2068C0688006F4D5002070BD7047E2
:102EC00070B5040009D0606A002540B125616561D4
:102ED000A56294F8510040B10CE0012070BD60681B
:102EE000B0F5827FF4D0E561F2E784F850502046D7
:102EF00000F044F8022084F851002068016821F0B5
:102F000040010160A088218900F4827001F404412D
:102F10000843A18901F400610843217C01F002010A
:102F20000843217D01F001010843218B01F4007168
:102F30000843217F01F03801084394F8201001F084
:102F400080010843218D01F4005108432168086085
:102F5000A069042101EA104094F8241001F0100146
:102F60000843216848602068C16921F40061C1619B
:102F70006565012084F85100002070BD70B586B0F1
:102F8000064614216846FDF7E2F920493068884278
:102F90003AD11F480025016841F480510160006862
:102FA00000F4805005901A481438016841F002017D
:102FB00001600068694600F002000590282000903A
:102FC0000220CDE90105032003900520049011485B
:102FD000FEF7F2FF114C104820604FF080606060F7
:102FE0004020C4E9020500012061400060618000CA
:102FF000C4E90605256220466562FEF785FE08B134
:10300000FEF79EFAB464A66306B070BD00300140BE
:10301000443802400004024040640240FC0A0020A0
:103020002DE9F84F044690F8500000271D4616463B
:10303000894601280DD04FF0010B84F850B0FFF7FE
:10304000BDF8804694F85100BA46012804D0022702
:1030500093E00220BDE8F88FB9F1000F73D0002E85
:1030600071D0032084F85100C4F854A0C4F8309003
:10307000A686E686C4F838A0A4F83CA0A4F83EA032
:10308000C4F844A0C4F840A0A068B0F5004F09D12E
:103090002068016821F0400101602068016841F466
:1030A0008041016020680168490603D4016841F04D
:1030B00040010160E068B0F5006F606803D030B394
:1030C000012E24D041E008B1012E1CD1206B2168D3
:1030D0000088C86006E020688168890709D5216BEF
:1030E0000988C160206B801C2063E08E401EE08652
:1030F00009E0FFF763F8A0EB0800A84202D3681CC0
:1031000001D031E07DB3E08E0028E4D120E0206BD7
:1031100021680078087306E020688168890709D56E
:10312000216B09780173206B401C2063E08E401EE8
:10313000E0860AE0FFF742F8A0EB0800A84203D3BC
:10314000681C02D010E017E06DB1E08E0028E3D1DA
:1031500042462946204602F04BFF08B12020606518
:10316000A06818B106E0FFE7032706E02068C16801
:1031700080680090606D00B1012784F851B084F838
:1031800050A0384666E700002DE9F041044690F86B
:1031900050000026012809D0012784F8507094F8C7
:1031A00051000025012804D002264EE00220BDE88F
:1031B000F08189B182B1032084F8510065652163F3
:1031C000A286E286A56365642564A587E587A06875
:1031D000B0F5004F02D00BE0012636E02068016810
:1031E00021F0400101602068016841F480410160E4
:1031F000A16C18480864A16C1748C863A16C1748F3
:10320000C864A06C0565E38E2268216B0C32A06C4B
:10321000FEF7E4FD38B1606D40F0100060650126F6
:1032200084F8517011E020680168490603D40168F0
:1032300041F0400101602068416841F02001416097
:103240002068416841F00201416084F850503046E6
:10325000ADE70000815F00088B5F00085F5F00083A
:10326000704770474FF0E0210428086903D020F030
:1032700004000861704740F00400FAE710B5401EF2
:10328000B0F1807F01D3012010BD4FF0E0246061D8
:103290000F21601703F0E5FF0020A06107202061E7
:1032A000002010BD7047704770B590F83C20012A8F
:1032B0002CD0012480F83C40022280F83D20036895
:1032C0005A689D6822F070060A6832435A60104BB3
:1032D00002689A420ED0B2F1804F0BD00D4B9A4249
:1032E00008D00D4B9A4205D00C4B9A4202D00C4BA1
:1032F0009A4204D1496825F080031943916080F80F
:103300003D40002180F83C10084670BD022070BD91
:10331000000001400004004000080040000C004094
:103320000040014010B5040003D094F83D0010B1F6
:1033300007E0012010BD002084F83C00204600F08A
:103340001EF8022084F83D00211D206803F062FA77
:10335000012084F8460084F83E0084F83F0084F899
:10336000400084F8410084F8420084F8430084F867
:10337000440084F8450084F83D00002010BD7047EB
:1033800090F83D10012901D001207047022180F8FA
:103390003D100168CA6842F00102CA6000680E4927
:1033A00088420ED0B0F1804F0BD00C49884208D033
:1033B0000B49884205D00B49884202D00A4988420D
:1033C00004D1816801F00701062903D0016841F0AA
:1033D000010101600020704700000140000400402E
:1033E00000080040000C004000400140704770B5EC
:1033F0000446006801694FF00005C943890715D4E8
:10340000C168C943890711D4E91E016101202077F1
:10341000206880698007204602D0FFF7E7FF04E0BC
:1034200000F0C0F8204600F065F9257720680169B2
:10343000C943490717D4C168C943490713D46FF07A
:1034400004010161022020772068806910F4407F28
:10345000204602D0FFF7CAFF04E000F0A3F82046A0
:1034600000F048F9257720680169C943090716D497
:10347000C168C943090712D46FF008010161042033
:1034800020772068C0698007204602D0FFF7AEFF92
:1034900004E000F087F8204600F02CF9257720683A
:1034A0000169C943C90617D4C168C943C90613D401
:1034B0006FF010010161082020772068C06910F4C6
:1034C000407F204602D0FFF791FF04E000F06AF849
:1034D000204600F00FF9257720680169C943C90724
:1034E00008D1C168C943C90704D1891E01612046BA
:1034F00000F05AF920680169C943090609D4C16876
:10350000C943090605D46FF0800101612046FFF729
:10351000C9FE20680169C943490609D4C168C94385
:10352000490605D46FF040010161204600F046F9DC
:1035300020680169C94389060BD4C168C94389065B
:1035400007D46FF0200101612046BDE87040FFF70D
:10355000AABE70BD10B586B0044614216846FCF7BB
:10356000F6FE0D492068884214D10C4800210268FB
:1035700042F002020260006800F0020005900120A3
:1035800000900220CDE90101CDE90310694604480D
:10359000FEF712FD06B010BD0004004030380240B6
:1035A00000040240704770B5044690F83C000026C5
:1035B0000D4601280FD0012084F83C006AB1042A8E
:1035C0001DD0082A2FD00C2A3FD00126002084F8D5
:1035D0003C00304670BD022070BD206803F074F9D5
:1035E0002068816941F0080181612068816921F0CA
:1035F00004018161206881692A69114311E0206812
:1036000003F08AF92068816941F4006181612068D2
:10361000816921F480618161206881692A6941EAB8
:1036200002218161D2E7206803F0A2F92068C16914
:1036300041F00801C1612068C16921F00401C16144
:103640002068C1692A69114311E0206803F0BCF9C0
:103650002068C16941F40061C1612068C16921F439
:103660008061C1612068C1692A6941EA0221C161A2
:10367000ACE710B5040003D094F83D0010B107E0AA
:10368000012010BD002084F83C00204600F01EF808
:10369000022084F83D00211D206803F0BBF80120C2
:1036A00084F8460084F83E0084F83F0084F8400027
:1036B00084F8410084F8420084F8430084F8440010
:1036C00084F8450084F83D00002010BD08B500686E
:1036D0000649884208D10648016841F002010160AC
:1036E000006800F00200009008BD000000040040E7
:1036F000403802407047000010B50446022249B12C
:1037000004290ED0082913D094F84100012816D0BE
:10371000012010BD94F83E000128F9D184F83E2024
:103720000FE094F83F000128F2D184F83F2008E030
:1037300094F840000128EBD184F8402001E084F89F
:1037400041200122206803F0B1F812492068884224
:1037500003D1426C42F400424264206888420ED099
:10376000B0F1804F0BD00C49884208D00B498842F9
:1037700005D00B49884202D00A49884204D18168A9
:1037800001F00701062903D0016841F00101016041
:10379000002010BD0000014000040040000800406F
:1037A000000C00400040014000680349884201D1FC
:1037B000FEF70ABD704700000000014070477047E7
:1037C00010B504460068406994F83D10C0F3C0107D
:1037D000212911D180B12068143050E8001F21F058
:1037E000800140E80012002AF5D1606B08B1FEF7B5
:1037F0002FF9204603F068FA2068406994F83E10DB
:10380000C0F38010222911D180B12068143050E813
:10381000001F21F0400140E80012002AF5D1A06B02
:1038200008B1FEF715F9204603F027FA002010BD75
:1038300070470000F8B5016804460868CA684B691B
:1038400010F00F0F4FF0000559D003F0010602F4FD
:103850009077374365D0C10705D0D10503D5216CDA
:1038600041F001012164410705D5D90703D0216C3E
:1038700041F002012164810705D5D90703D0216CED
:1038800041F004012164010707D502F02001314312
:1038900003D0216C41F008012164216C00293AD049
:1038A000800604D5900602D5204603F01BFA206856
:1038B0004069216CC0F38010090700D460B3204632
:1038C00003F0DBF920684069400621D520681430F8
:1038D00050E8001F21F0400140E80012002AF5D115
:1038E000A06BA8B16C490165A06BFEF7FAF800283F
:1038F00011D0A06B016D01B0BDE8F0400847830610
:103900000FD593060DD52046BDE8F84003F0EAB97F
:103910002046FFF78DFFF8BD2046FFF789FF25649D
:10392000F8BD266B2023012E79D1C60677D5D606A1
:1039300075D50868486800904869400640D5A16B75
:10394000086840680004000CEAD0A28D8242E7D9E2
:10395000E085C869B0F5807F2DD020680C3050E834
:10396000001F21F4807140E80012002AF5D1206880
:10397000143050E8001F21F0010140E80012002A35
:10398000F5D12068143050E8001F21F0400140E8D4
:103990000012002AF5D184F83E30256320680C30EF
:1039A00050E8001F21F0100140E80012002AF5D174
:1039B000A06BFEF74DF8A08DE18D401A81B229E091
:1039C000A08DE18D401A81B2E08D0028A8D0002999
:1039D000A6D020680C3050E8002F22F4907240E806
:1039E0000026002EF5D12068143050E8002F22F078
:1039F000010240E80026002EF5D184F83E30256310
:103A000020680C3050E8002F22F0100240E800231C
:103A1000002BF5D12046FFF7D2FEF8BDFFE70506E3
:103A20002BD5150629D594F83D002128F5D1A0689D
:103A3000B0F5805F01D12069B0B1206A411C2162DC
:103A4000216800784860E08C401E0004000CE0848F
:103A5000E3D12068C16821F08001C1602068C1689D
:103A600041F04001C160D8E7206A0088C0F3080037
:103A70004860206A801C2062E5E74006CDD55006EC
:103A8000CBD5CA68204622F04002CA6084F83D3097
:103A900000F03DF9C1E70000856B000870B5040037
:103AA00004D094F83D00002510B106E0012070BD5F
:103AB00084F83C50204600F045F8242084F83D006E
:103AC0002068C16821F40051C160204603F06AF902
:103AD0002068016921F4904101612068416921F069
:103AE0002A0141612068C16841F40051C160256428
:103AF000202084F83D0084F83E00002070BD0000C6
:103B000010B5044600680C49884214D10B4801687E
:103B100021F0100101604FF4C0610948FEF7A8F9D7
:103B2000A06BFDF7F0FF606BFDF7EDFFBDE8104007
:103B30002520FEF7CDBB10BD0010014044380240E7
:103B4000000002402DE9F04186B006461421684687
:103B5000FCF7FDFB30493068884259D12F480024DA
:103B6000016841F010010160006800F0100005904C
:103B70002A481438016841F0010101600068694673
:103B800000F0010005904FF4C06000900220CDE9E4
:103B9000010403200390072004902148FEF70CFA4B
:103BA000214D20484FF000672860C5E901744FF4AB
:103BB0008068C5E903486C61AC61EC612C62284601
:103BC0006C62FEF7A1F808B1FDF7BAFCB563AE630D
:103BD000154D144860353030E5E802074020A5E86F
:103BE0001101114845F814496030AC61EC612C6258
:103BF0006C62FEF789F808B1FDF7A2FC756300223C
:103C000005212520AE63FEF781FB2520FEF771FB21
:103C100006B0BDE8F08100000010014044380240C9
:103C20000000024088640240E80B002090F83E301B
:103C3000202B0ED159B152B190F83C30012B08D055
:103C4000012380F83C300023036303F031B90120E5
:103C50007047022070477047704700002DE9F84315
:103C6000044690F83D001F4616460D4620284CD1CC
:103C7000C5B1BEB194F83C00012846D0012084F8BB
:103C80003C004FF00008C4F84080212084F83D003B
:103C9000FEF794FAA6848146E684A068B0F5805FBA
:103CA00003D004E00120BDE8F883206928B12E4646
:103CB0005FF0000584F83C800EE00026FAE78021E2
:103CC000204603F03FF9A0B9AEB116F8010B216808
:103CD0004860E08C401EE084E08C4B464FF00002D0
:103CE00000970028EBD14FF04001204603F02AF95D
:103CF00030B10320D7E735F8020BC0F30800E6E740
:103D0000202084F83D000020CDE70220CBE770475B
:103D100008B50020184E194FDFF86480194C8DF853
:103D2000000000BF01F0DCFE8068B0421FD101231B
:103D300000226946386821F03FFEFDF749FB94F800
:103D40006800A0B92CF042FBFDF70AFBD8F8001080
:103D500000F02EF8C5B22DF0F1F894F86900A842F1
:103D600005D0322D03D9782D01D284F86950322044
:103D700021F088FDD6E70000280400205000002034
:103D800060000020640000201CB5064806A190F8E1
:103D90006920684603F03EFA04486946406819F015
:103DA000FDF81CBD640000202564000028040020EC
:103DB00070B504460D462B4810F0F3FF10B12948AA
:103DC00008F026FA2748203010F0EBFF18B12548FC
:103DD000203008F01DFA2348403010F0E2FF18B1FF
:103DE0002048403008F014FA21461E480DF0D4FF58
:103DF0001C48294620300DF0CFFF1A481A4CD0E954
:103E0000032191422CD38268914229D34268914286
:103E100026D94269914223D38269914220D3C06955
:103E200081421DD90F48A11C203002690888131A4D
:103E3000B3F5D57F14D3488092B20A80101A4EF69B
:103E4000602191FBF0F1074840300DF0A5FF0548D7
:103E50004030C16921B10721001D00F089FA2070AE
:103E6000207870BD740E0020D4070020034A92F819
:103E70004820002A01D1FCF75BBE70476400002097
:103E8000FCF73EBE00F0C0BC00F0C6BC02F048B972
:103E900001F01EB801F070B8FDF7B2BAFDF780BAB4
:103EA00000F032BF08B500200090054890F82C00C3
:103EB00010B9684608F02BFB009880B208BD0000DE
:103EC0006400002020F08ABE044991F82C1011B142
:103ED0004FF0FF30704708F073BB00006400002013
:103EE0000249002081F83100704700006400002082
:103EF0000249012081F83100704700006400002071
:103F000001F030BE01F0C4BE01F0B2BE10B586B003
:103F100004001FD0002269460F48FEF773FE0022FE
:103F200005A90D48FEF74CFE9DF81700E0709DF8BE
:103F3000151061709DF81620A27014232CF028FB38
:103F400020709DF8000020719DF8010060719DF8BF
:103F50000200A07106B010BD840A002001F07EBFEF
:103F600001F096BF10B5012901D0022903D1401EEE
:103F70000C31C0B2C9B21A24491C11FB04F10A2445
:103F8000B1FBF4F100EB900000EB93000844104407
:103F9000594200EB4100401E00E0C01D0028FCDB40
:103FA000072190FBF1F201FB120000B90720C0B21B
:103FB00010BDFEE788B04FF4FA6ADFF8F881DFF849
:103FC000F8917E4C5FF000052CF000FA002251467B
:103FD0007B48FEF75FFD08B1FDF7B2FA1922794977
:103FE0007448FFF723FED8F80000C16841F01001C3
:103FF000C16008217448FFF77FFB08F0CFF8E06943
:10400000804700F0C9FC032606E0761EE06CF6B29D
:10401000804784F848001EB194F848000028F4D185
:10402000032606E0761E206EF6B2804784F85C0018
:1040300026B194F85C000028F4D102E094F85C000A
:1040400008B9606E8047032606E0761EA06DF6B2C2
:10405000804784F854001EB194F854000028F4D12D
:10406000032606E0761E606BF6B2804784F82C00CB
:104070001EB194F82C000028F4D1032606E0761E29
:10408000E06EF6B2804784F8680026B194F86800C4
:104090000028F4D102E010F0FF0F01D1206F80471B
:1040A000FDF75CF9FDF725F990BB02221021684667
:1040B00002F0C6F99DF8000008B1012804D19DF86E
:1040C000011031B1012904D084F8315089F8005031
:1040D00003E084F8310089F80010002201A9384873
:1040E000FEF76EFD03222021684602F0A9F99DF833
:1040F00000009DF8061088420AD19DF801009DF845
:10410000021041EA002094F82C1009B908F058FA7E
:1041100000F08AFB00F078FBFCF7DCFEFCF744FFC4
:1041200000F01CFD00214FF48C73F022084600952E
:1041300000F0CBFC0A2008F047F8322000F0E4FD44
:104140001826CDE900564FF6FF773B461FA28C217B
:104150004820029500F06EFE032000900423022206
:104160001DA103A803F056F8CDE900563B4603AA6B
:10417000BC212220029500F05DFE4FF47A7008F019
:1041800023F8BD23F02274210020009500F09DFC4F
:1041900018F038F81DF0BAF91DF0DCF92BF0FAFB35
:1041A0002CF0CCFE00202CF043F84FF4FA7021F0F4
:1041B00069FB09E7A40B0020DC010020640000205B
:1041C000840A0020A80C00205C0B002057656C635B
:1041D0006F6D6521000000004F562D5761746368B4
:1041E000205625642E25642E2564000070B586B007
:1041F00001F076FC8068534988427DD1524D684673
:10420000296888474F4C9DF80520103C6078824211
:1042100008D062704DA102A802F0FCFF02A9E0697B
:1042200018F0BCFE9DF804202078824208D022704D
:1042300048A102A802F0EEFF02A9606918F0AEFEE4
:10424000404E9DF80230E0789C36834214D0E370F3
:104250009DF800002071A2783FA102A802F0DAFFC9
:1042600002A9E06A18F09AFE207906EB800050F867
:10427000041C206B18F092FE9DF80120A078824269
:1042800016D0A2709DF80230E3709DF800002071F6
:1042900031A102A802F0BEFF02A9E06A18F07EFE7A
:1042A000207906EB800050F8041C206B18F076FE95
:1042B000297E607981420CD06171206A11F0D1FEB3
:1042C000627928A102A802F0A5FF02A9A06A18F04D
:1042D00065FEEA8DA089824208D0A28123A102A8AE
:1042E00002F098FF02A9E06B18F058FE95F949100A
:1042F00094F90900814200E022E00DD06172606C07
:1043000011F0AFFE94F9092018A102A802F082FF73
:1043100002A9E06C18F042FE95F94A1094F90A00DF
:1043200081420DD0A172606D11F09BFE94F90A20BC
:104330000EA102A802F06EFF02A9A06D18F02EFED9
:1043400006B070BD4C0300206400002025303264AC
:1043500000000000253264002532642D25303264CF
:1043600000000000253264252500000025640000BF
:1043700010B5002205E000BF50F82240521C234433
:10438000D2B28A42F8D3B3FBF1F010BD10B586B0BB
:10439000044614216846FBF7DAFF208900900120CB
:1043A000019002900220039069462068FDF704FE08
:1043B0006089009069466068FDF7FEFD06B010BD9B
:1043C00070B506460824002501F096FD13E0680646
:1043D000050E0021304601F07DFD022007F001FFAF
:1043E0000121304601F076FD012007F0FAFE30464B
:1043F00001F079FD0543641EE4B2E8D200213046A5
:1044000001F068FD304601F095FD284670BD10B5FD
:104410000446002101F085FD012007F0E2FE0121A4
:10442000204601F057FD012007F0DBFE0021204669
:1044300001F050FDBDE81040012007F0D2BE0000A1
:1044400070B50C460646082519E000BF01F042FD94
:10445000022007F0C6FE04F08001304601F061FD45
:10446000012007F0BEFE6006040E012007F0B9FE31
:104470000121304601F02EFD012007F0B2FE6D1E35
:10448000EDB24FF000013046E0D201F023FDBDE86F
:104490007040022007F0A5BE10B50446012101F0CE
:1044A00040FD012007F09DFE0121204601F012FD94
:1044B000012007F096FE0021204601F00BFDBDE82B
:1044C0001040022007F08DBE10B50446012101F016
:1044D00028FD022007F085FE0121204601F0FAFCAC
:1044E000012007F07EFE0021204601F01AFD012088
:1044F00007F077FE0021204601F0ECFCBDE81040FB
:10450000012007F06EBE10B50446002101F0E2FC68
:10451000022007F066FE0021204601F002FD012086
:1045200007F05FFE0121204601F0D4FC012007F0D6
:1045300058FE0121204601F0F4FCBDE810400120A6
:1045400007F04FBE70B50546052401F0D5FC0121EA
:10455000284601F0BFFC05E0641EA4B2012007F06C
:1045600040FE84B1284601F0BEFC0028F4D1284664
:1045700001F0E0FC0021284601F0ACFC022007F02D
:1045800030FE002070BD284601F0D4FC2846FFF71D
:10459000BAFF012070BD00002DE9F0411D4617460D
:1045A0000C468046069EFFF78FFF6006010E4046D0
:1045B000FFF746FF4046FFF7C5FF28B14046FFF72B
:1045C000A2FF0120BDE8F08139464046FFF738FFE1
:1045D0004046FFF7B7FF4046FFF776FF012000EBAC
:1045E0004400C1B24046FFF72BFF4046FFF7AAFF49
:1045F00000246F1E0AE000BFFFF7E2FE3055BC4208
:1046000002DA4046FFF703FF641CE4B2AC424046C6
:10461000F2D3FFF741FF4046FFF775FF0020D1E7D7
:1046200070B516460C460546FFF74EFF6006010EB4
:104630002846FFF705FF2846FFF784FF3146284646
:10464000FFF7FEFE2846FFF77DFF2846FFF73CFFF9
:10465000012000EB4400C1B22846FFF7F1FE2846D6
:10466000FFF770FF2846FFF7ABFE04462846FFF72A
:1046700013FF2846FFF747FF204670BD2DE9F041A4
:104680001D4617460C468046069EFFF71DFF600636
:10469000010E4046FFF7D4FE4046FFF753FF28B116
:1046A0004046FFF730FF0120BDE8F0813946404623
:1046B000FFF7C6FE4046FFF745FF002408E0315DE6
:1046C0004046FFF7BDFE4046FFF73CFF641CE4B2E6
:1046D000AC42F4D34046FFF716FF012007F081FDFE
:1046E0000020E1E72DE9F0411D4616460C4607463D
:1046F000FFF7EAFE6006010E3846FFF7A1FE3846D6
:10470000FFF720FF28B13846FFF7FDFE0120BDE886
:10471000F08131463846FFF793FE3846FFF712FF27
:1047200029463846FFF78CFE3846FFF70BFF384620
:10473000FFF7E9FE012007F054FD0020E7E7000045
:104740001CB50024114D124E124FDFF84C808DF82D
:1047500000408DF80440012300226946286821F0BA
:10476000CDF810B9052000F0CFFA0123002201A9ED
:10477000306821F0C3F820B93C8098F8000000F0C0
:10478000C3FA0A2021F07EF8E5E700004800002087
:10479000500000205C0000204203002038B5154C7A
:1047A000154900252088401C80B22080097801EB43
:1047B0008101B0EB410F08D110488DF80050012362
:1047C00000226946006821F0F7F80D48218800783A
:1047D00000EB8000B1EB400F0AD101208DF8000002
:1047E00003460848258000226946006821F0E4F865
:1047F00038BD00005C000020B80500204800002003
:10480000B90500204C00002000224FF480710148BF
:10481000FDF7CFBC00000240012211020148FDF764
:10482000C8BC00000000024070B586B01421684684
:10483000FBF78DFD0E480025016841F00101016084
:1048400000680C4E00F001004FF4807405902A4679
:1048500021463046FDF7ADFC0121CDE90041CDE90F
:10486000021569463046FDF7A7FB06B070BD000093
:1048700030380240000002402DE9F0410027244C6E
:10488000DFF8908001253E4610B12570667001E08A
:104890002078E8B120214046FDF77EFC20B11021B0
:1048A0004046FDF779FC98B1032020F0EBFF202172
:1048B0004046FDF771FC00B9657010214046FDF7D8
:1048C0006BFC10B10220607001E06078E0B12670EE
:1048D0006078C8B120214046FDF75EFCA0B11021F0
:1048E0004046FDF759FC78B9032020F0CBFF20218A
:1048F0004046FDF751FC38B110214046FDF74CFC15
:1049000010B92570677866703846BDE8F081000000
:10491000C0070020000002400EB500201A4FDFF84B
:104920006C801B4C1B4D8DF800008DF808008DF835
:10493000040001264FF002090020FFF79DFF012827
:1049400002D002281CD102E08DF800600CE001F0DA
:10495000C7F88068B84205D10123002202A9D8F81F
:1049600000000BE08DF800900123002269462068CA
:1049700021F022F80123002201A9286821F01CF867
:10498000012020F07FFFD7E74C0300204C000020DF
:10499000440000205000002030B587B01421684644
:1049A000FBF7D5FC18480024016841F001010160C3
:1049B0000068164D00F001000590202000904FF493
:1049C000041001900120029069462846FDF7F4FA90
:1049D000102000904FF48810CDE901046946284664
:1049E000FDF7EAFA002211461720FDF78FFC172089
:1049F000FDF77FFC002211460A20FDF787FC0A2004
:104A0000FDF777FC07B030BD3038024000000240AF
:104A10002DE9F04104461D4616460F462A2000F0B7
:104A200037FA204600F024FA304600F021FA2B2015
:104A300000F02EFA384600F01BFA284600F018FA6B
:104A4000BDE8F0412C2000F023BA0000024900200C
:104A50000968C863704700005C0B002070B55D1AE0
:104A6000141A641C6D1C143314316C439BB289B24C
:104A7000049EFFF7CDFF0D4D4FF40060E8602868FD
:104A8000016841F400610160A2B231462846FEF798
:104A90007BFB0748006841680029FCD10020E860E2
:104AA0002868016821F40061016070BDA40A00203B
:104AB000FC0A002010B514460B460246FFF7A8FF7B
:104AC0002046BDE8104000F0D3B92DE9F0478046FC
:104AD0001F4603F1130083B21646501E82B20C46E5
:104AE00001F1140081B24046DDF82090FFF790FFFD
:104AF0000AE0454604E0484600F0BAF96D1CADB244
:104B0000B542F8D3641CA4B2BC42F2D3BDE8F0872E
:104B100030B587B014216846FBF719FC0D480168D1
:104B200041F00201016000684FF4607400F002007F
:104B300005900120CDE900400320074D0390694610
:104B40002846FDF739FA012221462846FDF731FBB8
:104B500007B030BD303802400004024010B5FFF706
:104B6000D7FF684C00224FF480712046FDF721FBEF
:104B7000002280212046FDF71CFB642007F024FB67
:104B8000012280212046FDF714FB642007F01CFB66
:104B9000112000F07DF9782007F016FB362000F098
:104BA00077F9002000F08AF93A2000F071F9052029
:104BB00000F084F9B22000F06BF90C2000F07EF9CF
:104BC0000C2000F07BF9002000F078F9332000F091
:104BD00075F9332000F072F9B72000F059F935204B
:104BE00000F06CF9BB2000F053F9192000F066F9D1
:104BF000C02000F04DF92C2000F060F9C22000F038
:104C000047F9012000F05AF9C32000F041F91220C1
:104C100000F054F9C42000F03BF9202000F04EF9D8
:104C2000C62000F035F90F2000F048F9D02000F040
:104C30002FF9A42000F042F9A12000F03FF9E02074
:104C400000F026F9D02000F039F9042000F036F900
:104C50000D2000F033F9112000F030F9132000F09E
:104C60002DF92B2000F02AF93F2000F027F95420DD
:104C700000F024F94C2000F021F9182000F01EF972
:104C80000D2000F01BF90B2000F018F91F2000F098
:104C900015F9232000F012F9E12000F0F9F8D020F6
:104CA00000F00CF9042000F009F90C2000F006F9DE
:104CB000112000F003F9132000F000F92C2000F07F
:104CC000FDF83F2000F0FAF8442000F0F7F85120FA
:104CD00000F0F4F82F2000F0F1F81F2000F0EEF8BB
:104CE0001F2000F0EBF8202000F0E8F8232000F06F
:104CF000E5F8212000F0CCF8BDE81040292000F0B4
:104D0000C7B8000000040240411F5F2909D84FF4D2
:104D1000967110FB01F06421B0FBF1F001490968C4
:104D2000C86370475C0B00202DE9FF4F81B004463B
:104D3000DDF83C9000904FEA59074FF000087807E3
:104D400000D0012000EBD70000FB09FB203AD0B2D5
:104D50000390029802994844401E83B2E019401E15
:104D600082B22046FFF754FE002553E0B9F10C0F44
:104D70002AD0B9F1100F2ED0B9F1180F2ED0B9F1F9
:104D8000200F49D12749039801EB8010002610F825
:104D900005A0109800284FF0010000FA06F000EA84
:104DA0000A0022D020B12046049A0299FFF782FE21
:104DB000641C0098A4B2201AB84225D10298009C25
:104DC000401C80B2029023E00398174900EB40009A
:104DD00001EB8000DAE71549039803E003981449D2
:104DE00000EB400001EB0010D0E708B1049800E0B0
:104DF0000E9800F03DF808F10100C0B2B0FBF7F1E9
:104E0000804607FB118050B1761CF6B2082EC0D345
:104E10006D1CADB25D45A9D305B0BDE8F08F4FF074
:104E20000008F5E7C09604088C7A0408007F04089F
:104E3000F08404082DE9FE4F9946DDE90D6714461C
:104E40008A460546DDF830800CE0CDF800804B4600
:104E500051462846CDE90167FFF766FF05EB56008E
:104E600085B2641C2278002AEFD1BDE8FE8F0000D5
:104E700008B5010A8DF800108DF801000123022207
:104E800069460248FEF7CCF808BD0000A40A0020DD
:104E900070B5094D06464FF400740022214628469D
:104EA000FDF787F9304600F009F821462846BDE8AD
:104EB00070400122FDF77DB90004024001B50123D5
:104EC0001A4669460148FEF7ABF808BDA40A00205F
:104ED00038B527480024016841F0020101600068EC
:104EE00000F0020000902348FFF750FA1021232021
:104EF00000F0BEF80120FCF7A9FF2F21202000F0D0
:104F0000B7F80120FCF7A2FF202000F0A5F82F2819
:104F100007D00A20FCF79AFF641CE4B2032CE5D307
:104F200024E00120FCF792FF00241021002000F073
:104F30009FF80120FCF78AFF8021012000F098F8FB
:104F40000120FCF783FF0021022000F091F80120EE
:104F5000FCF77CFF022000F07FF8002807D00A2031
:104F6000FCF774FF641CE4B2032CDED3012038BDCF
:104F7000303802407807002010B50321022000F0ED
:104F800077F80F21BDE81040202000F071B810B56F
:104F90000021022000F06CF82F21BDE810402020F5
:104FA00000F066B87CB514460D4606466A460621F2
:104FB000282000F035F89DF801009DF8003043EA04
:104FC000002333809DF8030001029DF8020008438E
:104FD00028809DF8050001029DF804000843208008
:104FE0007CBD7CB514460D4606466A460621032064
:104FF00000F016F89DF800009DF8013043EA002308
:1050000033809DF8020001029DF8030008432080D0
:105010009DF8040001029DF80500084328807CBD2E
:105020002DE9F04190460E460546192801D9192769
:1050300000E01E27002409E02819C2B239460548BD
:10504000FFF7EEFA08F80400641CE4B2B442F3D3AC
:10505000BDE8F08178070020192801D9192100E066
:105060001E2102460148FFF7DBBA00007807002046
:105070000B46192801D9192100E01E2102460148DA
:10508000FFF730BB7807002038B50E4C0EA16846FC
:10509000627802F0BFF86946206A17F07FFFA278B5
:1050A00009A1684602F0B6F86946A06A17F076FFD3
:1050B000E27805A1684602F0ADF86946206B17F06A
:1050C0006DFF38BD800600202530326400000000EE
:1050D00008B500200A4C8DF800004FF47A750020C6
:1050E00012F062FCA84205D200231A466946606CA1
:1050F00020F062FC1EF02AFC012020F0C3FBEEE74A
:105100000C00002008B501261B4FDFF87090DFF877
:1051100070A0DFF870801C4C00254FF4967B00BF18
:1051200094F8310018B300F013F910B184F830602E
:105130001DE094F83000012817D184F8305000F0B9
:10514000CFFC8068B84209D000F0CAFC81684945AC
:1051500004D000F0C5FC8168514506D1012300222E
:105160006946D8F8000020F027FC84F830505846F3
:1051700020F088FBD4E700004C0300206C040020E2
:10518000F80500204C00002064000020064882B092
:10519000016841F002010160006800F00200009027
:1051A000024802B0FFF7F2B830380240880700200A
:1051B0007CB514460D4606466B4606223B21682008
:1051C00000F048F800280BD1BDF8001049BA318032
:1051D000BDF8021049BA2980BDF8041049BA2180EF
:1051E0007CBD3EB50C46054601AA694602A8FFF7FC
:1051F000DFFFBDF8000010FB00F1BDF8040010FB5C
:10520000001000EE100AB8EEC00A02F0E3FEBDF98D
:105210000800F0EE400A00EE100AB8EEC01A81EE67
:10522000200A02F085F9B1EE400A84ED000ABDF9CA
:10523000000000EE100ABDF90400F8EEC00A00EE0E
:10524000100AB8EEC01A80EE810A02F071F985EDFD
:10525000000A3EBD2DE9F04106461D4614460F46A4
:105260002048FFF731F97006010E1E48FFF7E8F8F5
:105270001C48FFF767F928B11A48FFF744F90120E5
:10528000BDE8F08139461748FFF7DAF81548FFF70F
:1052900059F91448FFF718F9012000EB4600C1B294
:1052A0001048FFF7CDF80F48FFF74CF90BE00D4819
:1052B000012C0FD0FFF784F828700A48FFF7A7F8F1
:1052C000641EE4B26D1C002CF1D10648FFF71BF9F7
:1052D0000020D5E7FFF774F828700248FFF7DCF8E4
:1052E000EEE70000880700202DE9F04104461E4645
:1052F00015460F461548FFF7E7F86006010E1348FC
:10530000FFF79EF81148FFF71DF980B939460F489D
:10531000FFF796F80D48FFF715F900240FE0315D0F
:105320000A48FFF78DF80948FFF70CF928B107483C
:10533000FFF7E9F80120BDE8F081641CE4B2AC425B
:10534000EDD30248FFF7DFF80020F4E788070020DC
:105350001CB501A96846FFF744FF00984FF07C5147
:1053600088420ADC4FF03F42904206D801988842BA
:1053700003DC904201D801201CBD00201CBD0000B0
:105380007FB50024154800940194029412490394B7
:1053900001604FF48031C0E901140461047680F8A3
:1053A00020400F49C0E90A140125C561C46080F896
:1053B00030404561FCF717FA08B1FCF7C1F80095D9
:1053C000CDE9015469460548FCF758F9002801D099
:1053D000FCF7B6F87FBD0000002001403C0A002029
:1053E0000100000F114808B5016841F48001016017
:1053F0000068002200F48000009005213A20FCF7AC
:1054000085FF3A20FCF775FF002205214420FCF7B8
:105410007DFF4420FCF76DFF002205214620FCF7AC
:1054200075FFBDE808404620FCF763BF30380240F6
:1054300010B501F0E5FD044A0021044820F0F0FA1F
:105440000349086010BD000064110308E964000806
:105450000000002070B5194886B00024016841F0B2
:1054600004010160016801F004010591016841F047
:1054700001010160016801F001010591016841F03D
:10548000020101600068142100F0020005906846E6
:10549000FAF75DFF0A4E4FF40055002229463046C8
:1054A000FCF787FE01200095CDE9010469463046EE
:1054B0000394FCF781FD06B070BD00003038024057
:1054C0000008024030B587B014216846FAF73FFF64
:1054D0002948002427490594C0E900147F218160F0
:1054E000FF21C0E9031444618461FDF7B5FB08B1F5
:1054F000FCF726F800212048FDF7C2FA45F25005D6
:10550000A84234D011208DF8000059208DF80100F8
:1055100055208DF802000394012269461648049430
:10552000FDF752FC08B1FCF70BF807208DF81400CA
:1055300005208DF8150021208DF8160023208DF808
:105540001700012205A90C48FDF7F2FB08B1FBF793
:10555000F7FF00224FF4FA610748FDF79BFA08B104
:10556000FBF7EEFF2A4600210348FDF78EFA07B04D
:1055700030BD000000280040840A0020104810B50B
:105580000E4901604FF48271416000210222816066
:10559000C0E90312012242615202C0E90621016200
:1055A000416281620A21C162FDF78AFC002803D0B2
:1055B000BDE81040FBF7C4BF10BD00000030014043
:1055C000A40A002010B58AB0002407941C21684664
:1055D0000894FAF7BCFE1648144901606321C0E93B
:1055E00001144FF49671C0E903148461FEF741F889
:1055F00008B1FBF7A5FF079407A90D480894FDF72C
:1056000053FE08B1FBF79CFF6020CDE90004029433
:105610000822694606480494FDF7C5FF08B1FBF768
:105620008FFF0348FDF796FF0AB010BD000400404D
:105630005C0B00200C4810B50A4901604FF4E131C1
:105640004160002181600C22C160C0E904128161C7
:10565000C161FEF723FA002803D0BDE81040FBF734
:105660006FBF10BD00100140A40B0020FEE700003A
:1056700086B0464E00254FF47A77307800287DD0EA
:10568000434835708DF804500123002201A90068B9
:1056900020F092F93F4940A001F0ACFD41A13D4806
:1056A000FAF767FE78B140A13A48FAF762FE70B1A6
:1056B00040A13848FAF75DFE80B13648FAF752FE4D
:1056C000142847D058E03DA001F094FD54E0032396
:1056D000042202213BA001F08DFD4DE03E4C002252
:1056E000211D3E48FDF78EFA002221463B48FDF77A
:1056F00067FA3B4890F84A10217690F84910617695
:1057000090F86910A17690F86A10E176C08DA083B8
:10571000A278617833A001F06DFDA37962792179D7
:1057200034A001F067FD94F9181038A001F062FD73
:1057300094F9191039A001F05DFDA17E3CA001F0A3
:1057400059FDE17E3FA001F055FDA18B40A001F085
:1057500051FD11E00295039502A90E48049500F051
:1057600073FF3F48007838B13EA102A8FAF701FE66
:1057700010B9084801F08EF9192100E002E005484F
:10578000FAF7E5FD384620F07DF876E704000020C2
:1057900050000020A80C00205265635374723A2513
:1057A000730D0A004F5600004F562B564552534971
:1057B0004F4E00004F562B53454E44004F4B0D0AA1
:1057C0000000000056455253494F4E3D5625642E69
:1057D00025642E25640D0A000C0D0020840A00208B
:1057E00064000020646174613A2532642D253032F2
:1057F000640D0A0074696D653A253032643A2530CB
:1058000032643A253032640D0A00000068756D6913
:10581000646974793A256425250D0A0074656D70F4
:10582000657261747572653A25640D0A00000000A6
:10583000486561727420526174653A256425250DAE
:105840000A00000053504F323A256425250D0A0006
:105850005374657020746F6461793A25640D0A0091
:10586000DC0100204F562B5354000000FEE700B52A
:10587000034602E0184600F007F8184600F021F849
:105880000028F7D000BD0000017D49B100EB810286
:10589000491E9FED040A017582ED000A0020704741
:1058A000FF20704700000000017D042907D000EBB5
:1058B0008102491C017582ED000A00207047FF201B
:1058C0007047007D08B100207047012070472DE926
:1058D000FF4F81B006460F460398FFF7C8FF0498B4
:1058E00000F0DBFE0020824660F307040090307871
:1058F0006AF307054FF0010BA0463038A9466BF359
:1059000007080A2803D3012005B0BDE8F08F002561
:10591000F2EE041A91E0725D2E2A08D1032060F3A2
:10592000070418F0FF0F01D00220EDE7A046A2F116
:105930003000092847D80399097D052903D8049A1E
:105940005279052A01D90320DEE700EE100A484605
:105950006AF30700B8EEC00A81466AF3070418F03C
:10596000FF00F0EE400A02D0032827D022E0009882
:1059700018B1401CC0B200900DE00398F0EE400A50
:1059800000EB810010ED011A41EE210A0DE080EEDE
:10599000A10AF0EE400A401EC0B2F8D2039800EB14
:1059A000810010ED010A70EE800A0398FFF76CFF8A
:1059B000B0EE600A0398FFF777FF3CE0C0EE210AE3
:1059C00001200090EAE72B2A05D02D2A03D02A2AAD
:1059D00001D02F2A30D10398007D052803D80498E0
:1059E0004079052801D904208EE7484662F3070074
:1059F00081460020009008F0FF006BF307040128A7
:105A000004D0049800F069FE10B110E005207BE797
:105A100004984179401E085C114600F064FE30B1E4
:105A2000DDE90301FBF7DEFA09F0FF0100E01146B2
:105A3000049800F048FEA0466D1CBD42FFF66BAF17
:105A4000002061E738B5114C207E002813D0204695
:105A500020F081F8207E012570B104EB800050F821
:105A6000044C206880470095A068002364220068E9
:105A700006211CF03BFA38BD0549044820F079F8AE
:105A80000449024820F075F8024CEAE7440D002072
:105A9000100400205C04002038B5104C207E002843
:105AA0001BD002E00D4820F056F8207E0128F9D8DE
:105AB000C0B204EB800050F8040C0068804701205D
:105AC0000090207E002304EB8000642250F8040C38
:105AD0000621806800681CF009FA38BD440D0020DA
